:10000000FEC000000C94DD0C0C94A80C0C94730C36
:1000100025C1000023C1000021C100001FC1000054
:100020000C94B10A1BC1000019C1000017C10000E7
:1000300015C1000013C1000011C100000FC1000074
:100040000DC100000BC100000C94FF0A0C94F50ACE
:100050000C94190C0C94460C0C94EC0BFFC0000093
:10006000FDC00000FBC00000F9C00000F7C00000A8
:100070000C94920B0C94BF0B0C94650BEFC000001A
:10008000EDC00000EBC00000E9C0000030620030AD
:100090000030780025643A25733A74726163653ADA
:1000A000726573203D200025733A25643A25530D6F
:1000B0000A006173736572743A776966692E6265C6
:1000C00067696E5F5028505354522822436F736102
:1000D00043433333303064656D6F22292900436F09
:1000E000736143433330303064656D6F3A2073740D
:1000F00061727465640025643A25733A74726163B1
:10010000653A726573203D200020757300436C6F63
:10011000736520736F636B65743A003A6D65617344
:100120007572653A0025643A25733A7472616365A5
:100130003A726573203D2000207573005265636537
:100140006976652048544D4C20706167653A003AE5
:100150006D6561737572653A00207573005573653E
:100160002073656C65637420746F207761697420F7
:10017000666F7220726573706F6E73653A003A6DC8
:100180006561737572653A002075730053656E641E
:1001900020726571756573743A003A6D65617375A7
:1001A00072653A0020757300436F6E6E656374204C
:1001B000746F207365727665723A003A6D6561738B
:1001C0007572653A0025643A25733A747261636505
:1001D0003A736F636B203D20002075730043726596
:1001E000617465206120736F636B65743A003A6DCA
:1001F0006561737572653A000D0A0000C01711241D
:100200001FBECFEFD0E4DEBFCDBF12E0A0E0B1E073
:10021000E8EDF4E300E00BBF02C007900D92A239B5
:10022000B107D9F725E0A2E9B2E001C01D92A432DE
:10023000B207E1F711E0CEEFD1E000E006C022976F
:100240000109FE010BBF0E94B219CC3FD10780E02B
:100250000807A9F70E94E8110C946A1AD1CEFC0194
:1002600085A196A1009771F120A531E0320F30A74A
:10027000DC01A20FB11D6C9380A597A1891322C048
:1002800090E09F012E5F3F4F5FB7F8944091E902E5
:100290004F5F4F706091EA02461791F065E0469F0C
:1002A000D0011124A551BD4F6EE06C9312963C9382
:1002B0002E93119714969C938E9313974093E90273
:1002C0005FBF10A6089583B7817F83BF83B7816026
:1002D00083BF889583B78E7F83BF089508959C015F
:1002E000A8EEB3E00E946C19E0910001F0910101C9
:1002F0000995089520EA3FE061507109810991094B
:1003000020F0F9013197F1F7F7CF0895A4E0B0E0BC
:10031000ECE8F1E00C94841920E130E000909202C6
:1003200002C0220F331F0A94E2F7BFB6F894C090C0
:10033000DD02D090DE02E090DF02F090E002A90141
:1003400056954795640F751F811D911D40E050E043
:100350000E944A192C0D3D1D4E1D5F1DBFBE2983F5
:100360003A834B835C83AFDFBFB6F8948091DD02A4
:100370009091DE02A091DF02B091E00229813A81E2
:100380004B815C8179018A01E81AF90A0A0B1B0B7F
:100390001E141F04100611060CF3BFBE2496E9E0DC
:1003A0000C94A019DC01ED91FC9102A8F3A9E02DB9
:1003B00009950895A1E0B0E0E0EEF1E00C948B190E
:1003C000DC01ED91FC9102A8F3A9E02D41E050E0A1
:1003D000BE016F5F7F4F09958130910511F48981CE
:1003E00090E02196E2E00C94A719DC01ED91FC91DC
:1003F00006A8F7A9E02D21E009950895DC01ED910B
:10040000FC9106A8F7A9E02D20E0099508958FEF4B
:100410009FEF08958FEF9FEF08958FEF9FEF08955F
:100420008FEF9FEF08958FEF9FEF08958FEF9FEF6E
:1004300008958FEF9FEF08958FEF9FEF08958FEF4F
:100440009FEF0895DC01ED91FC910084F185E02D92
:1004500009950895FC01603119F461E970E009C063
:10046000623019F46CE870E004C0683029F46FE879
:1004700070E080819181E6CF0895DC01ED91FC91DF
:100480000680F781E02D09950895DC01ED91FC913E
:100490000480F581E02D0995089508958FEF9FEF71
:1004A0000895EF92FF920F931F93CF93DF937C01F8
:1004B000EB0100E010E0688179816115710581F040
:1004C000D701ED91FC914A815B81008CF18DE02D8B
:1004D000C7010995009721F0080F191F2496EBCF4B
:1004E000C801CDB7DEB7E6E00C94A319A0E0B0E0F8
:1004F000ECE7F2E00C9485197C016A01EB0100E065
:1005000010E00C151D0571F0D701ED91FC910488E8
:10051000F589E02DC701099597FD04C089930F5F08
:100520001F4FEFCFC801CDB7DEB7E8E00C94A1199B
:10053000A0E0B0E0EEE9F2E00C948519EC017B015B
:100540006A018B01F1E0CF1AD10851F1E881F981FC
:100550000488F589E02DCE0109958F3F2FEF920792
:1005600079F48A818823E1F0AEDEE881F98104889C
:10057000F589E02DCE0109958F3FEFEF9E07A1F39E
:100580008D30910529F48B818230E1F28AE090E090
:1005900098012F5F3F4FF801808389010A9791F6F8
:1005A000F80110820E151F0519F480E090E001C0DB
:1005B000C701CDB7DEB7E8E00C94A1198FEF9FEF2C
:1005C00008958FEF9FEF08958FEF9FEF0895EF92BB
:1005D000FF920F931F93CF93DF937C01EB0100E019
:1005E00010E0688179816115710581F0D701ED9185
:1005F000FC914A815B810284F385E02DC701099556
:10060000009721F0080F191F2496EBCFC801CDB732
:10061000DEB7E6E00C94A319A0E0B0E0E2E1F3E07D
:100620000C9485198C017B016A01C0E0D0E0CC15E7
:10063000DD0589F0F701EC0FFD1F6491F801A08141
:10064000B1811496ED91FC911597C801099597FD1C
:1006500002C02196ECCFCE01CDB7DEB7E8E00C9416
:10066000A119A0E0B0E0E7E3F3E00C9485197C0168
:100670006A01EB0100E010E00C151D0571F06991B5
:10068000D701ED91FC910480F581E02DC70109951A
:1006900097FD03C00F5F1F4FEFCFC801CDB7DEB787
:1006A000E8E00C94A119A1E0B0E0E9E5F3E00C94D6
:1006B0008B196983DC01ED91FC910284F385E02DB7
:1006C00041E050E0BE016F5F7F4F09958130910599
:1006D00011F4898190E02196E2E00C94A71980E062
:1006E00090E0089580E090E00895FC011782168262
:1006F000158214820895CF93DF93EC012C813D8104
:100700008E819F812817390711F0DDDDF7CF80E05A
:1007100090E0DF91CF910895FC012481358186819D
:1007200097812817390769F0268137812F5F3F4F5E
:100730002F73332737832683E20FF31F808590E0E2
:1007400008958FEF9FEF0895DC0116962D913C914F
:10075000179740E050E0DC011496ED91FC9115975D
:100760002E173F0771F04F5F5F4F2F5F3F4F2F7383
:100770003327FC01E20FF31F70857613ECCFCA011B
:1007800008958FEF9FEF0895DC0114962D913C9111
:10079000159716968D919C9117972817390761F038
:1007A0001696ED91FC9117973196EF73FF27EA0F9C
:1007B000FB1F808590E008958FEF9FEF0895FC0167
:1007C000248135812F5F3F4F2F7333274681578117
:1007D0002417350751F0DC01A20FB31F18966C9354
:1007E00035832483862F90E008958FEF9FEF08953F
:1007F000FC012681378184819581215C3F4F281B34
:10080000390BC9018F7399270895FC012481358123
:1008100086819781281B390BC9018F739927089509
:100820001F93CF93DF93EC01162F88859985DC0108
:10083000ED91FC910480F581E02D612F09950196E1
:1008400011F441DDF2CFEC81FD81918190629183C1
:10085000812F90E0DF91CF911F910895DC011496D4
:10086000ED91FC91159781818776818381E00895D0
:100870008F929F92AF92BF92CF92DF92EF92FF92B0
:100880001F93CF93DF93EC014A015B01122F9A0172
:10089000AB01A3E0220F331F441F551FAA95D1F7C8
:1008A000C12CB4E2DB2EB4EFEB2EF12CC701B60164
:1008B0000E944A1921503109211580E1380780F042
:1008C000A5019401F4E0220F331F441F551FFA9530
:1008D000D1F7C701B6010E944A192150310904C05D
:1008E000EC81FD8182E08083EC81FD81358324836E
:1008F0001283EC81FD8188E9818381E0DF91CF91D2
:100900001F91FF90EF90DF90CF90BF90AF909F909E
:100910008F9008950895DC0116968D919C911797FC
:10092000DC01ED91FC91068CF78DE02D0995089581
:10093000DC0118968D919C911997DC01ED91FC9149
:10094000048CF58DE02D09950895DC0116968D91A6
:100950009C911797DC01ED91FC910488F589E02DBD
:1009600009950895DC0116968D919C911797DC01ED
:10097000ED91FC910288F389E02D09950895DC0141
:1009800016968D919C911797DC01ED91FC91008852
:10099000F189E02D09950895DC0118968D919C91BF
:1009A0001997DC01ED91FC910280F381E02D09950E
:1009B0000895DC0116968D919C911797DC01ED91BD
:1009C000FC910190F081E02D099508954FB7F894BE
:1009D0005CB321E030E0FC01068002C0220F331F2F
:1009E0000A94E2F7209525232CBB4FBF08954FB7FB
:1009F000F8945DB321E030E0FC01068002C0220FD4
:100A0000331F0A94E2F7209525232DBB4FBF08958D
:100A10006FB7F8947CB321E030E0A901FC010680B7
:100A200002C0440F551F0A94E2F7409547234CBB80
:100A30004DB3068002C0220F331F0A94E2F7422B07
:100A40004DBB6FBF089508950895089508950895C2
:100A5000089581E00895DC011796ED91FC911897B7
:100A600081E0848B0895A2E2B0E0E9E3F5E00C9424
:100A700085198C016A017B012A3021F0622F2AA39B
:100A8000E9DC2AA130E0AE014F5F5F4FC701B6013C
:100A90000E940C1ABC01F80180819181EEDCA296C3
:100AA000E8E00C94A119A2E1B0E0E9E5F5E00C94CE
:100AB00087198C017B014A3021F0642F4A8BCADCF4
:100AC0004A8950E0BE016F5F7F4FC7010E94371A0D
:100AD000BC01F80180819181D0DC6296E6E00C9443
:100AE000A319A2E0B0E0E7E7F5E00C9489198C01C6
:100AF000CB0169837A830E94D719D801ED91FC91CB
:100B00000484F585E02DAC0169817A81C8010995DD
:100B10002296E4E00C94A519DB010D900020E9F782
:100B2000AD0141505109461B570BDC01ED91FC9181
:100B30000284F385E02D09950895DC01ED91FC9187
:100B40000480F581E02D6AE309950895DC01ED91BB
:100B5000FC910680F781E02D6DE371E00995089521
:100B6000CF93DF93AB01BC01CDE3D3E028818BE3CE
:100B700093E079DF8AE088838BE393E0DF91CF9184
:100B800008951F93CF93DF93EC011FB7F8948091E2
:100B90004B03882319F01FBF96DBF7CF81E08093CA
:100BA0004B03D0934A03C093490389858CBD8A8542
:100BB0008DBDC0914703D0914803209779F08A8179
:100BC0009B81009739F0DC01ED91FC910480F58167
:100BD000E02D09950990D881C02DEFCF1FBFDF917F
:100BE000CF911F9108951F93CF93DF931FB7F89470
:100BF00010924B0310924A0310924903C09147038D
:100C0000D0914803209779F08A819B81009739F031
:100C1000DC01ED91FC910280F381E02D09950990B2
:100C2000D881C02DEFCF1FBFDF91CF911F910895C5
:100C3000FB0134962291DC012D93CD01E617F707D5
:100C4000C9F708950F931F93CF93DF938C01EA01A7
:100C5000603180E87807C1F16115A8E87A0729F0CA
:100C60006115714409F057C022C08881811153C0B9
:100C700049815A816B817C81D8011296ED91FC915A
:100C800013974830510508F046C0E65EFE4F81E0FC
:100C900090E002C0880F991F4A95E2F780959095E1
:100CA00020813181822393239183808334C0888182
:100CB000811131C0D8011296ED91FC91139781AD4D
:100CC0009D81890F81AF27C08881811124C0BA011D
:100CD0006F5F7F4FF801828193818796A9DFBE0104
:100CE0006B5F7F4FD80112968D919C9113978B96D5
:100CF0009FDFBE01675F7F4FF801828193818F96EE
:100D000097DFBE016F5E7F4FD80112968D919C9147
:100D10001397C3968DDFDF91CF911F910F910895A7
:100D2000FC0121912EBD680F791FE617F70739F0F6
:100D300081910DB407FEFDCF9EB58EBDF6CF0DB4EB
:100D400007FEFDCF8EB50895AF92BF92DF92EF926E
:100D5000FF920F931F93CF93DF9300D01F92CDB7D5
:100D6000DEB77A01322F30953170432F4170D42E87
:100D7000A22EB12C85010C5F1F4F030F111D29837B
:100D80006A837B83FEDEE0914903F0914A0380850C
:100D900029816A817B81823038F48FB7F894A481ED
:100DA000B58196819C938FBF81E08EBD0DB407FE07
:100DB000FDCF8EB58230C1F51EBD0DB407FEFDCF4F
:100DC0008EB50EBD0DB407FEFDCF8EB51EBC0DB4A5
:100DD00007FEFDCF8EB51EBC0DB407FEFDCF8EB550
:100DE00081E08EBD0DB407FEFDCF8EB56EBD0DB496
:100DF00007FEFDCF8EB57EBD0DB407FEFDCF8EB5CF
:100E00002EBD0DB407FEFDCF8EB5A114B10419F0AF
:100E1000B501C70185DFDD2029F01EBC0DB407FE3A
:100E2000FDCF8EB5C50102C082EF9FEFE09149036F
:100E3000F0914A032FB7F894A481B58136813C9391
:100E40002FBFE0914903F0914A032085223038F00A
:100E50002FB7F894A481B58136813C932FBF898345
:100E60009A83C1DE89819A810F900F900F90DF9154
:100E7000CF911F910F91FF90EF90DF90BF90AF90B7
:100E800008952FEF2EBDFC019B014FEF215031093A
:100E900039F00DB407FEFDCF5EB54EBD5193F6CFD0
:100EA000FB013197E80FF91F0DB407FEFDCF8EB59A
:100EB000808308950F931F938FB7F8940091D90200
:100EC0001091DA022091DB023091DC0266B5A89B1A
:100ED00002C06F3F91F48FBF70E080E090E042E08D
:100EE000660F771F881F991F4A95D1F7600F711FF2
:100EF000821F931F1F910F9108951C5F2F4F3F4F2B
:100F0000EACF4F925F926F927F928F929F92AF92B1
:100F1000BF92CF92DF92EF92FF926B017C01CADF0A
:100F200028EE33E040E050E00E944A1949015A019E
:100F300058EE452E53E0552E612C712CBBDFA301DA
:100F400092010E944A19281939094A095B092C158E
:100F50003D054E055F0510F4B6D9F0CFFF90EF9038
:100F6000DF90CF90BF90AF909F908F907F906F90C9
:100F70005F904F900895A2E1B0E0E1ECF7E00C94AF
:100F800087198C017B01442399F04A3021F0642FAA
:100F90004A8B60DA4A8950E0BE016F5F7F4FC7011C
:100FA0000E94E019BC01F8018081918166DA12C0CB
:100FB000E4E075956795EA95E1F76F70605DFC0177
:100FC0008081918162DA6E2D6F70605DF8018081A1
:100FD00091815BDA6296E6E00C94A319A2E2B0E09C
:100FE000E4EFF7E00C94811909A91AA9EBA9FCA96F
:100FF0007E0135E3E30EF11C5F013FEFA31AB30A54
:10100000E4916E2FEE2309F4A5C0E53209F09CC0EF
:101010002AE091E0F5018491682F882309F494C0B7
:10102000FFEFAF1ABF0A883609F43DC0F4F48236E8
:1010300011F422E0EFCF83369CF4823411F420E0E7
:10104000E9CF833509F080C06701F2E0CF0ED11CF3
:10105000F70160817181F80180819181F3D947C0E6
:10106000833629F18436B9F16FC0803759F144F4E1
:101070008C3609F441C08F3609F066C028E0CACF2B
:10108000853799F0883779F0833709F05DC06701BB
:10109000F2E0CF0ED11CF70160817181F8018081EF
:1010A0009181EBD924C020E1B5CF90E0B3CF6701A7
:1010B00032E0C30ED11CF7016081F801808191817B
:1010C000E4D915C06701F2E0CF0ED11CF7016081B1
:1010D000718140E10EC0A7014E5F5F4F6A01F701C9
:1010E00060817181422F992321F0C80144DF76018C
:1010F0002FC0C801D8DCFBCFA7014C5F5F4F4A016E
:10110000F7019923C9F0C080D180E280F3802A30B2
:1011100029F0622FC8012AA39DD92AA130E0AE018F
:101120004F5F5F4FC701B6010E94F419BC01F8017F
:1011300080819181A2D906C04081518162817381F1
:10114000C80191DC740104C0F801808191819DD9AE
:10115000F50152CFA296ECE00C949D19DC01149697
:10116000ED91FC91159721812F7B2183ED91FC91CD
:1011700004A0F5A1E02D09950895CF93DF93EC012C
:10118000AE81BF81EC81FD816681ED91FC9111976B
:101190000480F581E02DCD010995DF91CF9108956F
:1011A000CF93DF93EC0188859985DC01ED91FC916B
:1011B0000488F589E02D0995EC81FD818F3FBFEF13
:1011C0009B0711F0868308C081818F7D8183EC812C
:1011D000FD81818180648183DF91CF910895FC013D
:1011E000683038F0603140F0683148F486E290E0D1
:1011F00008C080E290E005C083E290E002C089E28E
:1012000090E091838083262F277081E090E001C0D9
:10121000880F2A95EAF7828363832FB7F894A08119
:10122000B18111968C9111979281892B11968C9393
:10123000A081B181928112968C911297411103C0C5
:101240009095892301C0892B12968C932FBF089506
:10125000CF93DF93EC01A881B981ED91FC911197B7
:101260006D817E810084F185E02DCD010995DF91AE
:10127000CF910895ABE0B0E0E0E4F9E00C947B1985
:101280005C017E836D8358874F83122F13DE28EE17
:1012900033E040E050E00E944A1969017A01812F51
:1012A00090E09A878987A8EE2A2EA3E03A2E412C57
:1012B000512CD50154968C91811114C0FBDDA201F3
:1012C00091010E944A192C193D094E095F09F50147
:1012D00085899689A0E0B0E0281739074A075B079F
:1012E00008F4E6C0F5018489882309F4DEC0D5013D
:1012F00054968C91882309F4B2C0C50142DCE09178
:101300004903F0914A038085823038F48FB7F8940E
:10131000A481B58196819C938FBFB3E0BEBD0DB40F
:1013200007FEFDCF8EB5823009F0C5C01EBC0DB4DE
:1013300007FEFDCF8EB51EBC0DB407FEFDCF8EB5EA
:101340001EBC0DB407FEFDCF6EB4712C762C662446
:101350001EBC0DB407FEFDCF8EB5682AE4E06E1604
:10136000710408F4ADC064E070E0CE01019689DD3F
:101370008981843011F08230C9F42C812134B0F499
:101380008A809B80022F10E021700115110531F039
:10139000B80189E992E02B8774DD2B8521110AC001
:1013A0001EBC0DB407FEFDCF8EB504C0812C912C60
:1013B0000AEE1FEF17FF11C0F4E06F1A71086114F5
:1013C000710459F080E090E01EBC0DB407FEFDCF23
:1013D0002EB5019686159705B9F7D50154961C923E
:1013E000E0914903F0914A038FB7F894A481B58145
:1013F00096819C938FBFE0914903F0914A038085C9
:10140000823038F08FB7F894A481B58196819C938F
:101410008FBFE9DB063DBFEF1B0709F44ACF17FF7B
:1014200020C084E191E09F938F931F928EE68F936B
:1014300084E990E09F938F938BE393E09F938F9346
:10144000CDDD4AE0B8018BE393E095DD8BE393E0DB
:10145000FFDE0FB6F894DEBF0FBECDBF36C000E092
:1014600010E08D819E818815990569F4A985BA855A
:101470000A171B0741F4A80169E972E08F8198857A
:101480000E94CE1922C0F5018789908D009709F43A
:1014900010CFDC01ED91FC910190F081E02D9801DD
:1014A00049E952E0B401099504CF02EC1FEF0DC0E9
:1014B0000E946301FECE02EF1FEF612C712C02C06F
:1014C00006ED1FEF812C912C7ACFC8012B96E2E11B
:1014D0000C949719CF93DF93EC01BADECE01DF9124
:1014E000CF910895DC01ED91FC91048CF58DE02DF8
:1014F00009950895DC01ED91FC910084F185E02DC2
:1015000009950895ADE0B0E0E8E8FAE00C94891997
:10151000FC0103891489458950E060E070E049834B
:101520005A836B837C831D821E821F82188628E06B
:10153000AE014F5F5F4F66E070E1C80105DC97FDCB
:101540000CC025E0AE01475F5F4F66E070E1C80167
:1015500091DE97FD02C08A859B852D96E4E00C9470
:10156000A5191F920F920FB60F9211240BB60F926E
:101570002F933F934F935F936F937F938F939F939B
:10158000AF93BF93EF93FF938091DD029091DE02C2
:10159000A091DF02B091E0020196A11DB11D8093E0
:1015A000DD029093DE02A093DF02B093E002E091AF
:1015B0009502F0919602309729F0809193029091D4
:1015C00094020995FF91EF91BF91AF919F918F91F7
:1015D0007F916F915F914F913F912F910F900BBE33
:1015E0000F900FBE0F901F9018951F920F920FB67D
:1015F0000F9211240F900FBE0F901F9018951F92FD
:101600000F920FB60F9211242F938F939F93AF9346
:10161000BF938091D9029091DA02A091DB02B09140
:10162000DC029C5FAF4FBF4F8093D9029093DA02E8
:10163000A093DB02B093DC028091E7029091E80274
:101640008115944034F08091E7029091E802945023
:1016500024C08091E5029091E6028F3C934011F501
:101660001092E6021092E5028091E1029091E2026E
:10167000A091E302B091E4020196A11DB11D8093F7
:10168000E1029093E202A093E302B093E40280911E
:10169000E7029091E802805C9D4F9093E80280936E
:1016A000E70209C08091E5029091E60201969093CD
:1016B000E6028093E502BF91AF919F918F912F91A8
:1016C0000F900FBE0F901F9018951F920F920FB69C
:1016D0000F9211240BB60F922F933F934F935F936A
:1016E0006F937F938F939F93AF93BF93EF93FF93EA
:1016F00080914E0390914F03009709F02FDDFF91E9
:10170000EF91BF91AF919F918F917F916F915F9179
:101710004F913F912F910F900BBE0F900FBE0F90E6
:101720001F9018951F920F920FB60F9211240BB6AF
:101730000F922F933F934F935F936F937F938F936A
:101740009F93AF93BF93EF93FF9380914E0390913C
:101750004F03009709F011DDFF91EF91BF91AF9119
:101760009F918F917F916F915F914F913F912F91B9
:101770000F900BBE0F900FBE0F901F9018951F92E9
:101780000F920FB60F9211240BB60F922F933F9327
:101790004F935F936F937F938F939F93AF93BF9379
:1017A000EF93FF9380914E0390914F03009709F0C0
:1017B000F7DCFF91EF91BF91AF919F918F917F9156
:1017C0006F915F914F913F912F910F900BBE0F90B2
:1017D0000FBE0F901F9018951F920F920FB60F9289
:1017E00011240BB60F922F933F934F935F936F93F8
:1017F0007F938F939F93AF93BF93EF93FF938091CA
:101800004C0390914D03009709F0A8DCFF91EF91F4
:10181000BF91AF919F918F917F916F915F914F9108
:101820003F912F910F900BBE0F900FBE0F901F9006
:1018300018951F920F920FB60F9211240BB60F92AC
:101840002F933F934F935F936F937F938F939F93C8
:10185000AF93BF93EF93FF9380914C0390914D030F
:10186000009709F08ADCFF91EF91BF91AF919F91B2
:101870008F917F916F915F914F913F912F910F9039
:101880000BBE0F900FBE0F901F9018951F920F92D6
:101890000FB60F9211240BB60F922F933F934F93D5
:1018A0005F936F937F938F939F93AF93BF93EF93C8
:1018B000FF9380914C0390914D03009709F070DCE9
:1018C000FF91EF91BF91AF919F918F917F916F9118
:1018D0005F914F913F912F910F900BBE0F900FBED4
:1018E0000F901F9018951F920F920FB60F92112410
:1018F0000BB60F922F933F934F935F936F937F930A
:101900008F939F93AF93BF93EF93FF9380915E0369
:1019100090915F03009749F0DC01ED91FC910190FB
:10192000F081E02D60E070E00995FF91EF91BF91AB
:10193000AF919F918F917F916F915F914F913F9167
:101940002F910F900BBE0F900FBE0F901F90189508
:101950001F920F920FB60F9211240BB60F922F9376
:101960003F934F935F936F937F938F939F93AF9327
:10197000BF93EF93FF9380915C0390915D03009779
:1019800049F0DC01ED91FC910190F081E02D60E0E7
:1019900070E00995FF91EF91BF91AF919F918F9169
:1019A0007F916F915F914F913F912F910F900BBE5F
:1019B0000F900FBE0F901F9018951F920F920FB6A9
:1019C0000F9211240BB60F922F933F934F935F9377
:1019D0006F937F938F939F93AF93BF93EF93FF93F7
:1019E00080915A0390915B03009749F0DC01ED91DF
:1019F000FC910190F081E02D60E070E00995FF918D
:101A0000EF91BF91AF919F918F917F916F915F9176
:101A10004F913F912F910F900BBE0F900FBE0F90E3
:101A20001F901895A5E0B0E0E8E1FDE00C947D1969
:101A30007C01562E6A0159014801A3D8E09149035F
:101A4000F0914A038085823038F48FB7F894A481EE
:101A5000B58196819C938FBF83E08EBD0DB407FE48
:101A6000FDCF8EB5823009F082C01EBC0DB407FEDA
:101A7000FDCF8EB51EBC0DB407FEFDCF8EB51EBCCE
:101A80000DB407FEFDCF6EB4712C762C66241EBCFF
:101A90000DB407FEFDCF8EB5682A85E06816710487
:101AA00008F46AC065E070E0CE010196EAD9898148
:101AB000823071F58A8185112BC08B81883141F587
:101AC0004C805D80E8E14E1A51088201841495042F
:101AD00008F1C114D10429F068E170E0C601D1D940
:101AE00008C088E11EBC0DB407FEFDCF9EB5815035
:101AF000C9F74114510419F0B201C501C2D98C8152
:101B000080FF08C01EBC0DB407FEFDCF8EB502C01D
:101B10000AEE1FEF17FF0FC0F5E06F1A710880E0A3
:101B200090E08615970539F01EBC0DB407FEFDCF79
:101B30002EB50196F6CFF701148AE0914903F09192
:101B40004A038FB7F894A481B58196819C938FBF87
:101B5000E0914903F0914A038085823080F08FB78D
:101B6000F894A481B58196819C938FBF08C002EF41
:101B70001FEF612C712CD3CF06ED1FEFD0CF33D8E0
:101B8000C8012596E0E10C949919A1E3B0E0EBECD3
:101B9000FDE00C947D195C014A016B01EE24D7FC39
:101BA000E094FE2CCEA2DFA2E8A6F9A6C901A0E02F
:101BB000B0E08AA79BA7ACA7BDA71EA61FA618AA20
:101BC00019AA2CE0AE014A5D5F4F64E070E1C501E7
:101BD000BBD813E02DE0AE01475E5F4F64E070E1DB
:101BE000C50148DB863D2FEF920729F4115091F78C
:101BF00086ED9FEF59C097FD57C08A8D9B8DAC8DA8
:101C0000BD8D8C159D05AE05BF0569F58E8D9F8D2B
:101C1000A8A1B9A1892B8A2B8B2B19F480E090E025
:101C200043C048D928EE33E040E050E00E944A1912
:101C300069017A0198EE492E93E0592E612C712C9E
:101C4000F5018489811112C035D9A30192010E9446
:101C50004A192C193D094E095F09283B3B404105B3
:101C60005105F8F003C082EF9FEF1EC0F501848993
:101C70008823A1F00E8D1F8D28A139A1F50184893B
:101C8000882361F29401AE014F5F5F4F65E8C501A3
:101C9000C9DE863DFFEF9F0799F206C082EC9FEFF9
:101CA00003C00E946301CCCFE196E0E10C94991946
:101CB000FB019A01DC0155966C91559770E0AF01DC
:101CC00053968D919C91549760CFEF92FF920F9312
:101CD0001F93CF93DF93EC018B017A01E881F981A7
:101CE0000190F081E02D099597FD0AC0892B59F0EC
:101CF0006D8970E09701A8018B899C8946DF05C03A
:101D00008FEF9FEF02C080E090E0CDB7DEB7E6E056
:101D10000C94A319AFE3B0E0E0E9FEE00C947B196A
:101D20004C01CB015A0139011FAF0EAFF8014081C0
:101D3000518162817381F901008111812281338196
:101D4000F5012080318042805380AA2797FDA0951D
:101D5000BA2F89839A83AB83BC8384E190E0A0E0AF
:101D6000B0E08D839E83AF83B88789879A87AB87DE
:101D7000BC878D879E87AF87B88B898B9A8BAB8BFF
:101D8000BC8B81E090E0A0E0B0E0C114D104E1049C
:101D9000F10419F080E090E0DC018D8B9E8BAF8B1D
:101DA000B88F298E3A8E4B8E5C8E0D8F1E8F2F8FA3
:101DB00038A349A35AA36BA37CA31DA21EA21FA2F2
:101DC00018A6C9A6DAA6EBA6FCA62CE2AE014F5FC8
:101DD0005F4F68E070E1C4010E94A40697FD2EC029
:101DE00021E1AE01435D5F4F68E070E1C40142DA7A
:101DF00097FD24C08DA581111FC08AA99BA9ACA9FC
:101E0000BDA9F50180839183A283B3838EA99FA985
:101E1000A8ADB9ADF30180839183A283B3838AAD6A
:101E20009BADACADBDADEEADFFAD80839183A28324
:101E3000B3838EA59FA502C082EF9FEFEF96E2E1EC
:101E40000C949719ACE0B0E0E8E2FFE00C94831941
:101E50005C011D821E821F82188619821A821B82D3
:101E60001C82FC012589622F70E081E090E0A0E0F7
:101E7000B0E004C0880F991FAA1FBB1F2A95D2F794
:101E800089879A87AB87BC876F5F7F4F20E5C22E1B
:101E900023ECD22EE12CF12C8E010F5F1F4F9E01FF
:101EA0002B5F3F4FAE01475F5F4F8389948932DFDD
:101EB00097FD12C049855A856B857C85F50105889B
:101EC00004C076956795579547950A94D2F7417067
:101ED000552766277727CA012C96EAE00C949F19AC
:101EE0004F925F926F927F928F929F92AF92BF922A
:101EF000CF92DF92EF92FF92CF93DF93EC016A01D2
:101F00007B010E945A0728EE33E040E050E00E9437
:101F10004A1949015A0138EE432E33E0532E612C01
:101F2000712C8C8981110FC00E945A07A301920164
:101F30000E944A19281939094A095B092C153D05DF
:101F40004E055F0558F08C89882359F020E449E953
:101F500052E060E070E0CE018DD9E3CF0E946301D2
:101F6000E0CF80E090E0DF91CF91FF90EF90DF90A5
:101F7000CF90BF90AF909F908F907F906F905F9029
:101F80004F900895A9E0B0E0E8ECFFE00C948719C9
:101F90008C017B0144E650E060E070E0A1DFA70126
:101FA000662757FD6095762F4E835F836887798714
:101FB00024E0AE014A5F5F4F6BE070E1C8010E9410
:101FC000A40697FD19C025E0AE014F5F5F4F6BE09F
:101FD00070E1C8014FD99C01263D8FEF380799F376
:101FE00037FD06C08981811105C08A819B8104C0AB
:101FF000C90102C082EF9FEF2996E6E00C94A31975
:10200000FC01658970E083899489BCCFFC016589F6
:1020100070E083899489B6CFA5E1B0E0E2E1F0E118
:102020000C9483195C01FC01F5880389148948EE3E
:1020300053E060E070E0C80153DF8F2D90E0A0E036
:10204000B0E08A8B9B8BAC8BBD8B24E0AE014E5EE7
:102050005F4F65E070E1C8010E94A40697FD45C08E
:1020600021E1AE014F5F5F4F65E070E1C80102D929
:1020700097FD3BC0CE80DF80E884F9848A819B8114
:10208000AC81BD81B7FD2FC0F8E0CF16D10458F563
:10209000F801E65EFE4F81E090E00C2C02C0880F54
:1020A000991F0A94E2F720813181822B932B91832F
:1020B0008083BE01625F7F4FC50146960E9418066D
:1020C0008C859D85F501938F828F2CE12C9DC0011D
:1020D0002D9D900D1124800F911FFC01E15BFF4F9E
:1020E000C082C60102C082EF9FEF6596EAE00C94C1
:1020F0009F19AAE1B0E0EFE7F0E10C947B198C01A5
:102100001B014A017901F80181AD811106C040E04F
:1021100050E0BA01C801E4DEF6CF442437FC409415
:10212000542C29823A824B825C828CE090E0A0E0C1
:10213000B0E08D839E83AF83B887C701A0E0B0E095
:1021400089879A87AB87BC871D861E861F86188A5B
:102150003701F0E16F0E711C6301570125E1A20EFA
:10216000B11CC50181709927E1E08E27282F2170CD
:102170002A8F222321F0570186E1A80EB11CC80145
:102180000E94C105E0914903F0914A0380858230A5
:1021900038F48FB7F894A481B58196819C938FBF52
:1021A00081E08EBD0DB407FEFDCF8EB5823009F003
:1021B00046C0BEBC0DB407FEFDCF8EB5AEBC0DB49F
:1021C00007FEFDCF8EB51EBC0DB407FEFDCF8EB54C
:1021D0001EBC0DB407FEFDCF8EB582E08EBD0DB4E2
:1021E00007FEFDCF8EB581E88EBD0DB407FEFDCF95
:1021F0008EB580E18EBD0DB407FEFDCF8EB56EBCF1
:102200000DB407FEFDCF8EB57EBC0DB407FEFDCF2D
:102210008EB560E170E0CE0101960E949006E11457
:10222000F10421F0B701C4010E9490062A8D2223F7
:1022300051F01EBC0DB407FEFDCF8EB504C042EFB9
:10224000C42EDD24DA94E0914903F0914A038FB75C
:10225000F894A481B58196819C938FBFE091490346
:10226000F0914A038085823038F08FB7F894A481CA
:10227000B58196819C938FBF0E94F305D7FC1BC04C
:1022800029E0AE014F5E5F4F63E070E1C8010E943C
:102290003A0997FD14C08A899B89AC89BD8982154A
:1022A0009305A405B50549F4F80181AD815081AFCE
:1022B0008E899F8904C0C60102C082EF9FEF6A9693
:1022C000E2E10C949719FB0121110CC0DC01559639
:1022D0006C91559770E09A01AF0153968D919C9146
:1022E000549707CF8FEF9FEF0895A9E1B0E0EBE798
:1022F000F1E10C9489198C01CB01AA2797FDA095D7
:10230000BA2F89839A83AB83BC8388E090E0A0E0F6
:10231000B0E08D839E83AF83B88789879A87AB8728
:10232000BC8782E090E09E878D87022E232F302D80
:10233000388B2F87FA0180819181A281B381898BAB
:102340009A8BAB8BBC8B24E1AE014F5F5F4F67E094
:1023500070E1C8010E94A40697FD2AC025E0AE01E5
:102360004B5E5F4F67E070E1C8010E943A0997FD3C
:102370001FC08D8981111AC04E895F89688D798D42
:102380004830510598F4F801E65EFE4F81E090E098
:10239000042E02C0880F991F0A94E2F72081318130
:1023A000822B932B91838083CA0102C082EF9FEF1F
:1023B0006996E4E0CAC7FB019A01DC0155966C916D
:1023C000559770E0AF0153968D919C9154978DCFA6
:1023D000AFE7B0E0EDEEF1E18EC780917A00876063
:1023E00080937A0080E880BF1092C10041E063E1F1
:1023F000CE0188589F4F0E94EF0841E064E1CE0172
:102400008C589F4F0E94EF0841E062E1CE01805955
:102410009F4F0E94EF0841E065E1CE0184599F4F34
:102420000E94EF0841E068E0CE0189599F4F0E9469
:10243000EF0840E069E0CE018F5B9F4F0E94EF08FC
:1024400040E06EE1CE0101960E94EF0878942EE004
:1024500040E051EE60E070E080E593E00E943804D7
:1024600080E593E090933C0380933B03E09150031D
:10247000F09151030084F185E02D6EED70E0099537
:102480008BE393E00E9428099FB7F894A89584B73E
:10249000877F84BF88E18093600080E48093600040
:1024A0009FBF109296021092950210929402109281
:1024B00093021092920281E08093970286E891E065
:1024C000909301018093000180919802811112C0C4
:1024D0009FB7F89483E085BD81E080936E0016BCC1
:1024E00015BA9FBF8093980281E897E0909301010D
:1024F0008093000188E893E19093760380937503BD
:10250000E0916D03F0916E0390916F0380818923B8
:10251000E9F39FB7F894E0917903F0917A0382810F
:1025200020917B03822B82839FBFE0916D03F0910A
:102530006E0390916F0380818923E9F7E0916B032B
:10254000F0916C030280F381E02D8BE693E0099516
:1025500080E693E00E94C105E0914903F0914A03AF
:102560008085823038F48FB7F894A481B581968144
:102570009C938FBF88EC90E00197F1F781E08EBDCE
:102580000DB407FEFDCF8EB51EBC0DB407FEFDCF0A
:102590008EB585E08EBD0DB407FEFDCF8EB51EBC99
:1025A0000DB407FEFDCF8EB588EC90E00197F1F7F2
:1025B0001EBC0DB407FEFDCF8EB581E08EBD0DB4FF
:1025C00007FEFDCF8EB51EBC0DB407FEFDCF8EB548
:1025D00080E48EBD0DB407FEFDCF8EB581E08EBDCB
:1025E0000DB407FEFDCF8EB51EBC0DB407FEFDCFAA
:1025F0008EB5E0914903F0914A038FB7F894A48116
:10260000B58196819C938FBFE0914903F0914A0375
:102610008085823038F08FB7F894A481B581968197
:102620009C938FBF0E94F305E0910001F09101019E
:1026300068EE73E080E090E0099521E0AE014F5F25
:102640005F4F60E070E480E693E00E943A0997FDF6
:1026500004C08981992787FD909597FDD6C020E019
:1026600040E050E06BE070E480E693E00E94A40656
:1026700097FD19C024E0AE014F5F5F4F6BE070E43F
:1026800080E693E00E943A0997FD0DC08A8180930D
:1026900099038B819C819093980380939703898100
:1026A000992787FD909597FDB0C021E0AE01445970
:1026B0005F4F61E070E880E693E00E943A091816E7
:1026C00019068CF5AD968FADAD9781112CC025E123
:1026D000AE014F5F5F4F60E170E880E693E00E94DB
:1026E0003A0918161906FCF4898181111CC0BE0133
:1026F0006E5F7F4F87E893E00E941806BE016A5F15
:102700007F4F8BE893E00E941806BE01665F7F4F03
:102710008FE893E00E941806BE016E5E7F4F83E94A
:1027200093E00E9418061E0121E4220E311C86E06F
:1027300090E0A0E0B0E0F10180839183A283B383B5
:1027400029968CAF9DAFAEAFBFAF29972D961CAE2B
:102750001DAE1EAE1FAE2D972CE0A10161E072E010
:1027600080E693E00E94A40697FD46C021E0AE01FA
:1027700049595F4F61E072E080E693E00E943A09B8
:1027800097FD3AC0E0910001F09101016AE070E02C
:1027900080E090E0099580917403882371F006E051
:1027A00010E021E833E0AE014F5F5F4F61E980E662
:1027B00093E038D997FF03C01FC080E090E04981C3
:1027C0005A816B817C81463051056105710519F094
:1027D00082EF9FEF11C04D815E816F817885463019
:1027E000510561057105A1F749855A856B857C8581
:1027F000452B462B472B61F797FD07C08CE291E0F4
:102800009093760380937503FEC282EB90E09F93D2
:102810008F931F9280E38F9389E592E09F938F932C
:1028200087EA90E09F938F938BE393E09F938F933E
:102830000E94EE0780913B0390913C03DC01ED91F7
:10284000FC910480F581E02D60914603099580910B
:102850003B0390913C03DC01ED91FC91048CF58DE0
:10286000E02D099580E090E035D625E0AE0149598C
:102870005F4F61E070E180E693E00E943A0997FDC6
:102880001CC3A8968FADA897811119C3AA966EACE8
:102890007FACAA970E945A076C197D098E099F097F
:1028A00060934203709343038093440390934503E2
:1028B00040913D0362E470E08BE393E00E94BB072C
:1028C0002AE0522E50923D030BE313E080913B032C
:1028D00090913C030E949D0580913B0390913C03A5
:1028E0000E94A605C0904203D0904303E0904403A9
:1028F000F09045036EEE71E080913B0390913C03B4
:102900000E947A0A6DED71E080913B0390913C0347
:102910000E947A0AC701B6010E94B00569ED71E014
:1029200080913B0390913C030E947A0AC8010E9467
:102930002809ADE3B1E0BF93AF931F9285E48F9375
:10294000A5ECB1E0BF93AF931F930F930E94EE07E6
:102950004AE0B301C8010E94BB07C8010E942809D0
:1029600080913B0390913C030E94720A0E945A0797
:102970004B015C0120E530E0AE0148585F4FB301E8
:1029800080E693E0B2DC8C010E945A07681979094D
:102990008A099B0960934203709343038093440325
:1029A0009093450340913D0367E470E08BE393E02F
:1029B0000E94BB0750923D0380913B0390913C03E2
:1029C0000E949D0580913B0390913C030E94A605C7
:1029D000C0904203D0904303E0904403F09045033D
:1029E0006BEB71E080913B0390913C030E947A0A6B
:1029F00068EA71E080913B0390913C030E947A0A5F
:102A0000C701B6010E94B00564EA71E080913B0302
:102A100090913C030E947A0A8BE393E00E9428097C
:102A20000FB6F894DEBF0FBECDBF17FD88C28091F0
:102A30003B0390913C030E94720A0E945A074B018B
:102A40005C01D1010D900020E9F79D012150310971
:102A500022193309A101B30180E693E04ADB8C011E
:102A60000E945A07681979098A099B0960934203F1
:102A700070934303809344039093450340913D0337
:102A80006CE470E08BE393E00E94BB0750923D033F
:102A900080913B0390913C030E949D0580913B03F4
:102AA00090913C030E94A605C0904203D09043033E
:102AB000E0904403F09045036AE971E080913B03A4
:102AC00090913C030E947A0A6CE871E080913B038C
:102AD00090913C030E947A0AC701B6010E94B0059A
:102AE00068E871E080913B0390913C030E947A0A70
:102AF0008BE393E00E94280917FD21C221E030E01A
:102B000040E050E0062C04C0220F331F441F551F25
:102B10000A94D2F7C458DF4F288339834A835B83F2
:102B2000CC57D040E8968CAD9DADAEADBFADE8972B
:102B3000822B932BA42BB52BE8968CAF9DAFAEAF19
:102B4000BFAFE897E0968CAD9DADAEADBFADE09761
:102B5000822B932BA42BB52BE0968CAF9DAFAEAF01
:102B6000BFAFE09780913B0390913C030E94720AB3
:102B70000E945A074B015C0190E5C92E93ECD92EB7
:102B8000E12CF12C8E0104591F4F9E0120593F4F1B
:102B9000AE014C585F4FB3016F5F7F4F80E693E00B
:102BA000B9D88C010E945A07681979098A099B09CA
:102BB00060934203709343038093440390934503CF
:102BC00040913D0363E570E08BE393E00E94BB0717
:102BD00050923D0380913B0390913C030E949D05E0
:102BE00080913B0390913C030E94A605C090420354
:102BF000D0904303E0904403F09045036EE771E00A
:102C000080913B0390913C030E947A0A6DE571E04C
:102C100080913B0390913C030E947A0AC701B60160
:102C20000E94B00569E571E080913B0390913C03FF
:102C30000E947A0A8BE393E00E94280917FD7FC166
:102C400080913B0390913C030E94720A0E945A07B4
:102C50004B015C01101611060CF436C10E945A0794
:102C6000681979098A099B096093420370934303A9
:102C7000809344039093450340913D0367E570E0E2
:102C80008BE393E00E94BB078AE080933D03809131
:102C90003B0390913C030E949D0580913B039091E2
:102CA0003C030E94A605C0904203D0904303E090ED
:102CB0004403F09045036FE471E080913B039091F1
:102CC0003C030E947A0A6CE371E080913B0390918F
:102CD0003C030E947A0AC701B6010E94B00568E36E
:102CE00071E080913B0390913C030E947A0A8BE350
:102CF00093E00E94280917FD22C10BE313E08091A5
:102D00003B0390913C030E94720A0E945A076B0198
:102D10007C01B30180E693E035D95C010E945A073B
:102D20006C197D098E099F096093420370934303D8
:102D3000809344039093450340913D0368E670E01F
:102D4000C8010E94BB078AE080933D0380913B034A
:102D500090913C030E949D0580913B0390913C0320
:102D60000E94A605409042035090430360904403A4
:102D7000709045036BE171E080913B0390913C03BF
:102D80000E947A0A6DE071E080913B0390913C03D0
:102D90000E947A0AC301B2010E94B00569E071E0A5
:102DA00080913B0390913C030E947A0AC8010E94E3
:102DB0002809ADE3B1E0BF93AF931F928BE68F93E9
:102DC00086EF90E09F938F931F930F930E94EE07DF
:102DD0004AE0B501C8010E94BB07C8010E9428094A
:102DE000C8010E94280948EB5BE060E070E080E6E3
:102DF00093E076D882E090E00E946F010FB6F894DD
:102E0000DEBF0FBECDBF8DEAE9968FAFE99782ECAA
:102E1000EA968FAFEA9781E7EB968FAFEB9782E95F
:102E2000EC968FAFEC9786E2ECE6F2E0DE01AF5B6A
:102E3000BF4F01900D928A95E1F7E8961CAE1DAE4A
:102E40001EAE1FAEE897E4961CAE1DAE1EAE1FAEC2
:102E5000E497E0961CAE1DAE1EAE1FAEE0978091CB
:102E60003B0390913C030E94720A0E945A076B0137
:102E70007C0122E030E040E050E029833A834B833C
:102E80005C8381E090E0A0E0B0E08D839E83AF831F
:102E9000B88726E030E040E050E029873A874B874A
:102EA0005C872CE0AE014F5F5F4F61E070E180E630
:102EB00093E00E94A40697FFD8CC3C01EBCC32EF04
:102EC000632E77247A94E6CCE8968CAD9DADAEADBA
:102ED000BFADE897C458DF4F288139814A815B81B3
:102EE000CC57D04082239323A423B523892B8A2B4C
:102EF0008B2B09F4B3CE20E430E0AE014F5F5F4F7F
:102F0000B30180E693E00E94C50D8C0197FDA6CE2B
:102F100088E8C82E83E1D82EE12CF12C8E010459CB
:102F20001F4F9E0120593F4FAE014C585F4F61E04B
:102F300070E080E693E00E948A0E8C018BCEADE3B8
:102F4000B1E0BF93AF931F9287E68F9385E291E044
:102F50009F938F938BE393E09F938F930E94EE0751
:102F60004AE0B8018BE393E00E94BB078BE393E058
:102F70000E9428090FB6F894DEBF0FBECDBFBDCEAC
:102F8000CF93DF931092E9021092EA02EBEEF2E0A7
:102F900010821282118214821382359633E0EB3351
:102FA000F307B1F720917C0430917D0440917E04B9
:102FB00050917F046091800470918104809182041B
:102FC00090918304A1E0D2D120937C0430937D04BE
:102FD00040937E0450937F04609380047093810437
:102FE0008093820490938304CDD1B1F410923C037A
:102FF00010923B038AE080933D0386E080933E037A
:1030000084E080933F0388EF91E0909341038093A5
:1030100040038DE180934603209184043091850420
:1030200040918604509187046091880470918904CE
:1030300080918A0490918B04A1E098D1209384041C
:1030400030938504409386045093870460938804EA
:103050007093890480938A0490938B0493D1A9F48C
:10306000109248031092470310924A0310924903AA
:1030700010924B039FB7F89484B1806B84B9269863
:1030800085B18F7585B92E9A9FBF1092DE0410927C
:10309000DF0487E791E09093DD048093DC041092D5
:1030A000E1041092E0041092E3041092E204109202
:1030B0009604109297049093950480939404109230
:1030C00099041092980410929B0410929A042091F3
:1030D0008C0430918D0440918E0450918F04609146
:1030E0009004709191048091920490919304A1E0D6
:1030F0003DD120938C0430938D0440938E045093E3
:103100008F04609390047093910480939204909341
:10311000930438D111F510925203109253038DE4A9
:1031200091E0909351038093500380EC90E0909352
:103130005503809354038CED94E090935703809350
:10314000560384E994E0909359038093580380E5F3
:1031500093E090934D0380934C031092610310927F
:1031600060038BE693E0909363038093620341E0F6
:1031700068E084E693E00E94EF081092680384E51B
:103180008093690310926A0340E06AE08DE693E061
:103190000E94EF089FB7F894E0916D03F0916E03E1
:1031A000828120916F03822B82839FBF9FB7F89407
:1031B000C0E6D3E0E0916D03F0916E032181809130
:1031C0006F038095822381839FBF8BE991E0909369
:1031D0006C0380936B0382E080937103809169009C
:1031E0008F7C8062809369008BE693E090935F030D
:1031F00080935E0387EA91E090936C0380936B0366
:10320000D0937303C09372031092740388EB9BE016
:10321000909376038093750310927803109277034E
:1032200040E069E089E793E00E94EF0887E592E0DB
:1032300090937E0380937D03D0938003C0937F039C
:10324000EAE9F3E0AAEAB3E02CE087E192E0ED01DD
:103250002E971882219618821C92AF014C5F5F4F07
:10326000EA01322F19923A95E9F7918380837C968F
:103270005C96C4E0EA37FC0751F710927B04109289
:103280007A048DE793E09093780380937703DF913E
:10329000CF910895A1E21A2EAA1BBB1BFD010DC000
:1032A000AA1FBB1FEE1FFF1FA217B307E407F507F6
:1032B00020F0A21BB30BE40BF50B661F771F881FD2
:1032C000991F1A9469F760957095809590959B0168
:1032D000AC01BD01CF010895A29FB001B39FC00111
:1032E000A39F700D811D1124911DB29F700D811D32
:1032F0001124911D08952F923F924F925F926F92E9
:103300007F928F929F92AF92BF92CF92DF92EF9275
:10331000FF920F931F93CF93DF93CDB7DEB7CA1BF6
:10332000DB0B0FB6F894DEBF0FBECDBF09942A8821
:10333000398848885F846E847D848C849B84AA84C9
:10334000B984C884DF80EE80FD800C811B81AA8156
:10335000B981CE0FD11D0FB6F894DEBF0FBECDBF21
:10336000ED0108950790F691E02D09940024A7FD42
:1033700000942A0F301D401D501D601D701D801DC2
:10338000901D08950024A7FD00942A1730054005DC
:10339000500560057005800590050895FB01DC016E
:1033A00002C001900D9241505040D8F70895FC01A1
:1033B00005900020E9F7809590958E0F9F1F089546
:1033C0004532510518F4423008F004C0FB01108268
:1033D000CB010895BB274A3031F4992322F4BDE292
:1033E000909581959F4F4EC02532310518F42230BB
:1033F00008F004C0FA011082CA010895BB272A30E0
:1034000051F4992342F4BDE29095809570956195B1
:103410007F4F8F4F9F4F0BC02532310518F422305C
:1034200008F004C0FA011082CA010895BB27FA010E
:10343000A62F6217710581059105330B30FB66F0ED
:10344000AA27660F771F881F991FAA1FA21710F0BF
:10345000A21B63953850A9F7A05DAA3308F0A95DB7
:10346000A19336F7B111B1931082CA0123C045323E
:10347000510518F4423008F004C0FB011082CB0162
:103480000895BB27FB015527AA27880F991FAA1F5C
:10349000A41710F0A41B83955051B9F7A05DAA336F
:1034A00008F0A95DA193009779F7B111B19311923A
:1034B000CB0100C0DC01FC01672F71917723E1F79C
:1034C000329704C07C916D9370836291AE17BF07F1
:0834D000C8F30895F894FFCF42
:1034D8007A01000000002F01260525052405FEFFBE
:1034E80000002805696E74204843493A3A617761BB
:1034F80069742875696E7431365F742C20766F692B
:10350800642A2C2075696E74385F742900766F6997
:1035180064206C6F6F7028290000000000D904CC6B
:103528000410048C05710531030C03E702BF04B2D3
:1035380004A50498027602510298048B0438042EDC
:10354800048A04000000000504F803DF038C0571F9
:103558000531030C03E702C403A4038C0398027625
:103568000251027B0375030000000023050805F7DC
:1035780004E604000000002B050805F704E6040033
:1035880000000072036F0353038C057105FE01F5FB
:1035980001E702E402E102DA019802D20151024E87
:1035A800024D026E016E016E016E016E016E016EBA
:1035B800016E016E016E016E016E016E016E0100F9
:1035C80000000072036F0353038C05710531030C6F
:1035D80003E702E402E102DE029802760251024E9B
:1035E800024D0200000000220F1F0253038C0571D8
:1035F80005FE01F501E702E402E102DA019802653D
:103608000E51021C024D0219020610820A0C10DB30
:10361800111602130200101002580E0D020A02635E
:10362800110702000000002206436F736143433311
:1036380030303064656D6F2E696E6F0047455420D9
:103648002F20485454502F312E310D0A436F6E6E7F
:10365800656374696F6E3A20636C6F73650D0A0D4C
:023668000A0056
:00000001FF
