:1000000019C100000C94D0140C949B140C94661429
:1000100040C100003EC100003CC100003AC10000E8
:100020000C949E1236C1000034C1000032C10000A1
:1000300030C100002EC100002CC100002AC1000008
:1000400028C1000026C100000C94EC120C94E212AE
:100050000C940A140C9438140C94DC131AC100008C
:1000600018C1000016C1000014C1000012C1000038
:100070000C9480130C94AE130C9452130AC100001C
:1000800008C1000006C1000004C100003062003059
:100090000030780025733A25643A25530D0A00256F
:1000A000643A25733A74726163653A726573203DF0
:1000B000200025643A25733A74726163653A72656B
:1000C00073203D200020757300436C6F73652073AF
:1000D0006F636B65743A003A6D6561737572653A6A
:1000E0000025643A25733A74726163653A636F75EB
:1000F0006E74203D20006173736572743A7265738B
:10010000203E3D203000207573005265636569769E
:10011000652048544D4C20706167652062756666A5
:1001200065723A003A6D6561737572653A00617384
:10013000736572743A726573203E3D2030002075FD
:100140007300436865636B20696620646174612095
:10015000697320617661696C61626C653A003A6D21
:100160006561737572653A0025643A25733A747255
:100170006163653A636F756E74203D20006173732F
:100180006572743A2873697A655F742920636F75A4
:100190006E74203D3D207374726C656E286D7367BC
:1001A00029002075730053656E6420726571756552
:1001B00073743A003A6D6561737572653A00207523
:1001C0007300436F6E6E65637420746F2073657285
:1001D0007665723A003A6D6561737572653A0061D1
:1001E00073736572743A736F636B657420213D207D
:1001F0004E554C4C00207573004372656174652048
:100200006120736F636B65743A003A6D6561737555
:1002100072653A00436F7361434333303030736F1C
:10022000636B65743A2073746172746564000D0ABF
:100230000000151711241FBECFEFD0E4DEBFCDBFE5
:1002400012E0A0E0B1E0E4E6F3E300E00BBF02C09F
:1002500007900D92A439B107D9F725E0A4E9B2E0DF
:1002600001C01D92A632B207E1F712E0C4E3D2E06A
:1002700000E006C022970109FE010BBF0E94F8189A
:10028000C233D10780E00807A9F70E9405150C9436
:10029000B019B6CEFC0185A196A1009771F120A5F9
:1002A00031E0320F30A7DC01A20FB11D6C9380A5A5
:1002B00097A1891322C090E09F012E5F3F4F5FB747
:1002C000F8944091EB024F5F4F706091EC0246173B
:1002D00091F065E0469FD0011124A351BD4F6EE01F
:1002E0006C9312963C932E93119714969C938E9335
:1002F00013974093EB025FBF10A6089583B7817FE9
:1003000083BF83B7816083BF889583B78E7F83BFA8
:100310000895089520EA3FE061507109810991092B
:1003200020F0F9013197F1F7F7CF0895A4E0B0E09C
:10033000ECE9F1E00C94CA1820E130E00090DC0216
:1003400002C0220F331F0A94E2F7BFB6F894C090A0
:10035000D802D090D902E090DA02F090DB02A90135
:1003600056954795640F751F811D911D40E050E023
:100370000E949F182C0D3D1D4E1D5F1DBFBE298381
:100380003A834B835C83BADFBFB6F8948091D8027E
:100390009091D902A091DA02B091DB0229813A81D1
:1003A0004B815C8179018A01E81AF90A0A0B1B0B5F
:1003B0001E141F04100611060CF3BFBE2496E9E0BC
:1003C0000C94E618DC01ED91FC9102A8F3A9E02D54
:1003D00009950895A1E0B0E0E0EFF1E00C94D118A8
:1003E000DC01ED91FC9102A8F3A9E02D41E050E081
:1003F000BE016F5F7F4F09958130910511F48981AE
:1004000090E02196E2E00C94ED18DC01ED91FC9176
:1004100006A8F7A9E02D21E009950895DC01ED91EA
:10042000FC9106A8F7A9E02D20E0099508958FEF2B
:100430009FEF08958FEF9FEF08958FEF9FEF08953F
:100440008FEF9FEF08958FEF9FEF08958FEF9FEF4E
:1004500008958FEF9FEF08958FEF9FEF08958FEF2F
:100460009FEF0895DC01ED91FC910084F185E02D72
:1004700009950895FC01603119F461E970E009C043
:10048000623019F46CE870E004C0683029F46FE859
:1004900070E080819181E6CF0895DC01ED91FC91BF
:1004A0000680F781E02D09950895DC01ED91FC911E
:1004B0000480F581E02D0995089508958FEF9FEF51
:1004C0000895EF92FF920F931F93CF93DF937C01D8
:1004D000EB0100E010E0688179816115710581F020
:1004E000D701ED91FC914A815B81008CF18DE02D6B
:1004F000C7010995009721F0080F191F2496EBCF2B
:10050000C801CDB7DEB7E6E00C94E918A0E0B0E092
:10051000ECE8F2E00C94CB187C016A01EB0100E0FE
:1005200010E00C151D0571F0D701ED91FC910488C8
:10053000F589E02DC701099597FD04C089930F5FE8
:100540001F4FEFCFC801CDB7DEB7E8E00C94E71836
:10055000A0E0B0E0EEEAF2E00C94CB18EC017B01F5
:100560006A018B01F1E0CF1AD10851F1E881F981DC
:100570000488F589E02DCE0109958F3F2FEF920772
:1005800079F48A818823E1F0B9DEE881F981048871
:10059000F589E02DCE0109958F3FEFEF9E07A1F37E
:1005A0008D30910529F48B818230E1F28AE090E070
:1005B00098012F5F3F4FF801808389010A9791F6D8
:1005C000F80110820E151F0519F480E090E001C0BB
:1005D000C701CDB7DEB7E8E00C94E7188FEF9FEFC7
:1005E00008958FEF9FEF08958FEF9FEF0895EF929B
:1005F000FF920F931F93CF93DF937C01EB0100E0F9
:1006000010E0688179816115710581F0D701ED9164
:10061000FC914A815B810284F385E02DC701099535
:10062000009721F0080F191F2496EBCFC801CDB712
:10063000DEB7E6E00C94E918A0E0B0E0E2E2F3E017
:100640000C94CB188C017B016A01C0E0D0E0CC1582
:10065000DD0589F0F701EC0FFD1F6491F801A08121
:10066000B1811496ED91FC911597C801099597FDFC
:1006700002C02196ECCFCE01CDB7DEB7E8E00C94F6
:10068000E718A0E0B0E0E7E4F3E00C94CB187C01BD
:100690006A01EB0100E010E00C151D0571F0699195
:1006A000D701ED91FC910480F581E02DC7010995FA
:1006B00097FD03C00F5F1F4FEFCFC801CDB7DEB767
:1006C000E8E00C94E718A1E0B0E0E9E6F3E00C9470
:1006D000D1186983DC01ED91FC910284F385E02D52
:1006E00041E050E0BE016F5F7F4F09958130910579
:1006F00011F4898190E02196E2E00C94ED1880E0FD
:1007000090E0089580E090E00895FC011782168241
:10071000158214820895CF93DF93EC012C813D81E3
:100720008E819F812817390711F0E8DDF7CF80E02F
:1007300090E0DF91CF910895FC012481358186817D
:1007400097812817390769F0268137812F5F3F4F3E
:100750002F73332737832683E20FF31F808590E0C2
:1007600008958FEF9FEF0895DC0116962D913C912F
:10077000179740E050E0DC011496ED91FC9115973D
:100780002E173F0771F04F5F5F4F2F5F3F4F2F7363
:100790003327FC01E20FF31F70857613ECCFCA01FB
:1007A00008958FEF9FEF0895DC0114962D913C91F1
:1007B000159716968D919C9117972817390761F018
:1007C0001696ED91FC9117973196EF73FF27EA0F7C
:1007D000FB1F808590E008958FEF9FEF0895FC0147
:1007E000248135812F5F3F4F2F73332746815781F7
:1007F0002417350751F0DC01A20FB31F18966C9334
:1008000035832483862F90E008958FEF9FEF08951E
:10081000FC012681378184819581215C3F4F281B13
:10082000390BC9018F7399270895FC012481358103
:1008300086819781281B390BC9018F7399270895E9
:100840001F93CF93DF93EC01162F88859985DC01E8
:10085000ED91FC910480F581E02D612F09950196C1
:1008600011F44CDDF2CFEC81FD8191819062918396
:10087000812F90E0DF91CF911F910895DC011496B4
:10088000ED91FC91159781818776818381E00895B0
:100890008F929F92AF92BF92CF92DF92EF92FF9290
:1008A0001F93CF93DF93EC014A015B01122F9A0152
:1008B000AB01A3E0220F331F441F551FAA95D1F7A8
:1008C000C12CB4E2DB2EB4EFEB2EF12CC701B60144
:1008D0000E949F1821503109211580E1380780F0CE
:1008E000A5019401F4E0220F331F441F551FFA9510
:1008F000D1F7C701B6010E949F182150310904C0E9
:10090000EC81FD8182E08083EC81FD81358324834D
:100910001283EC81FD8188E9818381E0DF91CF91B1
:100920001F91FF90EF90DF90CF90BF90AF909F907E
:100930008F9008950895DC0116968D919C911797DC
:10094000DC01ED91FC91068CF78DE02D0995089561
:10095000DC0118968D919C911997DC01ED91FC9129
:10096000048CF58DE02D09950895DC0116968D9186
:100970009C911797DC01ED91FC910488F589E02D9D
:1009800009950895DC0116968D919C911797DC01CD
:10099000ED91FC910288F389E02D09950895DC0121
:1009A00016968D919C911797DC01ED91FC91008832
:1009B000F189E02D09950895DC0118968D919C919F
:1009C0001997DC01ED91FC910280F381E02D0995EE
:1009D0000895DC0116968D919C911797DC01ED919D
:1009E000FC910190F081E02D099508954FB7F8949E
:1009F0005CB321E030E0FC01068002C0220F331F0F
:100A00000A94E2F7209525232CBB4FBF08954FB7DA
:100A1000F8945DB321E030E0FC01068002C0220FB3
:100A2000331F0A94E2F7209525232DBB4FBF08956D
:100A30006FB7F8947CB321E030E0A901FC01068097
:100A400002C0440F551F0A94E2F7409547234CBB60
:100A50004DB3068002C0220F331F0A94E2F7422BE7
:100A60004DBB6FBF089508950895089508950895A2
:100A7000089581E00895DC011796ED91FC91189797
:100A800081E0848B0895A2E2B0E0E9E4F5E00C9403
:100A9000CB188C016A017B012A3021F0622F2AA336
:100AA000E9DC2AA130E0AE014F5F5F4FC701B6011C
:100AB0000E945219BC01F80180819181EEDCA2965E
:100AC000E8E00C94E718A2E1B0E0E9E6F5E00C9468
:100AD000CD188C017B014A3021F0642F4A8BCADC8F
:100AE0004A8950E0BE016F5F7F4FC7010E947D19A8
:100AF000BC01F80180819181D0DC6296E6E00C9423
:100B0000E918A2E0B0E0E7E8F5E00C94CF188C011A
:100B1000CB0169837A830E941D19D801ED91FC9164
:100B20000484F585E02DAC0169817A81C8010995BD
:100B30002296E4E00C94EB18DB010D900020E9F71D
:100B4000AD0141505109461B570BDC01ED91FC9161
:100B50000284F385E02D09950895DC01ED91FC9167
:100B60000480F581E02D6AE309950895DC01ED919B
:100B7000FC910680F781E02D6DE371E00995089501
:100B8000CF93DF93AB01BC01CFE3D3E028818DE3AA
:100B900093E079DF8AE088838DE393E0DF91CF9162
:100BA00008951F93CF93DF93EC011FB7F8948091C2
:100BB0004D03882319F01FBFA1DBF7CF81E080939D
:100BC0004D03D0934C03C0934B0389858CBD8A851C
:100BD0008DBDC0914903D0914A03209779F08A8155
:100BE0009B81009739F0DC01ED91FC910480F58147
:100BF000E02D09950990D881C02DEFCF1FBFDF915F
:100C0000CF911F9108951F93CF93DF931FB7F8944F
:100C100010924D0310924C0310924B03C091490364
:100C2000D0914A03209779F08A819B81009739F00F
:100C3000DC01ED91FC910280F381E02D0995099092
:100C4000D881C02DEFCF1FBFDF91CF911F910895A5
:100C5000FB0134962291DC012D93CD01E617F707B5
:100C6000C9F708950F931F93CF93DF938C01EA0187
:100C7000603180E87807C1F16115A8E87A0729F0AA
:100C80006115714409F057C022C08881811153C099
:100C900049815A816B817C81D8011296ED91FC913A
:100CA00013974830510508F046C0E65EFE4F81E0DC
:100CB00090E002C0880F991F4A95E2F780959095C1
:100CC00020813181822393239183808334C0888162
:100CD000811131C0D8011296ED91FC91139781AD2D
:100CE0009D81890F81AF27C08881811124C0BA01FD
:100CF0006F5F7F4FF801828193818796A9DFBE01E4
:100D00006B5F7F4FD80112968D919C9113978B96B4
:100D10009FDFBE01675F7F4FF801828193818F96CD
:100D200097DFBE016F5E7F4FD80112968D919C9127
:100D30001397C3968DDFDF91CF911F910F91089587
:100D4000FC0121912EBD680F791FE617F70739F0D6
:100D500081910DB407FEFDCF9EB58EBDF6CF0DB4CB
:100D600007FEFDCF8EB50895AF92BF92DF92EF924E
:100D7000FF920F931F93CF93DF9300D01F92CDB7B5
:100D8000DEB77A01322F30953170432F4170D42E67
:100D9000A22EB12C85010C5F1F4F030F111D29835B
:100DA0006A837B83FEDEE0914B03F0914C038085E8
:100DB00029816A817B81823038F48FB7F894A481CD
:100DC000B58196819C938FBF81E08EBD0DB407FEE7
:100DD000FDCF8EB58230C1F51EBD0DB407FEFDCF2F
:100DE0008EB50EBD0DB407FEFDCF8EB51EBC0DB485
:100DF00007FEFDCF8EB51EBC0DB407FEFDCF8EB530
:100E000081E08EBD0DB407FEFDCF8EB56EBD0DB475
:100E100007FEFDCF8EB57EBD0DB407FEFDCF8EB5AE
:100E20002EBD0DB407FEFDCF8EB5A114B10419F08F
:100E3000B501C70185DFDD2029F01EBC0DB407FE1A
:100E4000FDCF8EB5C50102C082EF9FEFE0914B034D
:100E5000F0914C032FB7F894A481B58136813C936F
:100E60002FBFE0914B03F0914C032085223038F0E6
:100E70002FB7F894A481B58136813C932FBF898325
:100E80009A83C1DE89819A810F900F900F90DF9134
:100E9000CF911F910F91FF90EF90DF90BF90AF9097
:100EA00008952FEF2EBDFC019B014FEF215031091A
:100EB00039F00DB407FEFDCF5EB54EBD5193F6CFB0
:100EC000FB013197E80FF91F0DB407FEFDCF8EB57A
:100ED000808308950F931F938FB7F8940091D402E5
:100EE0001091D5022091D6023091D70266B5A89B09
:100EF00002C06F3F91F48FBF70E080E090E042E06D
:100F0000660F771F881F991F4A95D1F7600F711FD1
:100F1000821F931F1F910F9108951C5F2F4F3F4F0A
:100F2000EACF4F925F926F927F928F929F92AF9291
:100F3000BF92CF92DF92EF92FF926B017C01CADFEA
:100F400028EE33E040E050E00E949F1849015A012A
:100F500058EE452E53E0552E612C712CBBDFA301BA
:100F600092010E949F18281939094A095B092C151A
:100F70003D054E055F0510F4C1D9F0CFFF90EF900D
:100F8000DF90CF90BF90AF909F908F907F906F90A9
:100F90005F904F900895A2E1B0E0E1EDF7E00C948E
:100FA000CD188C017B01442399F04A3021F0642F45
:100FB0004A8B60DA4A8950E0BE016F5F7F4FC701FC
:100FC0000E942619BC01F8018081918166DA12C065
:100FD000E4E075956795EA95E1F76F70605DFC0157
:100FE0008081918162DA6E2D6F70605DF801808181
:100FF00091815BDA6296E6E00C94E918A2E2B0E037
:10100000E4E0F8E00C94C71809A91AA9EBA9FCA917
:101010007E0135E3E30EF11C5F013FEFA31AB30A33
:10102000E4916E2FEE2309F4A5C0E53209F09CC0CF
:101030002AE091E0F5018491682F882309F494C097
:10104000FFEFAF1ABF0A883609F43DC0F4F48236C8
:1010500011F422E0EFCF83369CF4823411F420E0C7
:10106000E9CF833509F080C06701F2E0CF0ED11CD3
:10107000F70160817181F80180819181F3D947C0C6
:10108000833629F18436B9F16FC0803759F144F4C1
:101090008C3609F441C08F3609F066C028E0CACF0B
:1010A000853799F0883779F0833709F05DC067019B
:1010B000F2E0CF0ED11CF70160817181F8018081CF
:1010C0009181EBD924C020E1B5CF90E0B3CF670187
:1010D00032E0C30ED11CF7016081F801808191815B
:1010E000E4D915C06701F2E0CF0ED11CF701608191
:1010F000718140E10EC0A7014E5F5F4F6A01F701A9
:1011000060817181422F992321F0C80144DF76016B
:101110002FC0C801D8DCFBCFA7014C5F5F4F4A014D
:10112000F7019923C9F0C080D180E280F3802A3092
:1011300029F0622FC8012AA39DD92AA130E0AE016F
:101140004F5F5F4FC701B6010E943A19BC01F80119
:1011500080819181A2D906C04081518162817381D1
:10116000C80191DC740104C0F801808191819DD98E
:10117000F50152CFA296ECE00C94E3187F936F93A5
:101180009F938F9389E592E09F938F9384E990E0FA
:101190009F938F93CDE3D3E0DF93CF932FDF8881AD
:1011A0009981DC01ED91FC910480F581E02D609145
:1011B0004803099588819981DC01ED91FC91048CAB
:1011C000F58DE02D099580E090E00E94B019DC01DA
:1011D0001496ED91FC91159721812F7B2183ED9140
:1011E000FC9104A0F5A1E02D09950895CF93DF931C
:1011F000EC01AE81BF81EC81FD816681ED91FC91B6
:1012000011970480F581E02DCD010995DF91CF91F3
:101210000895CF93DF93EC0188859985DC01ED91EA
:10122000FC910488F589E02D0995EC81FD818F3FC3
:10123000BFEF9B0711F0868308C081818F7D81837A
:10124000EC81FD81818180648183DF91CF9108955C
:10125000FC01683038F0603140F0683148F486E2D3
:1012600090E008C080E290E005C083E290E002C018
:1012700089E290E091838083262F277081E090E0BF
:1012800001C0880F2A95EAF7828363832FB7F89409
:10129000A081B18111968C9111979281892B119621
:1012A0008C93A081B181928112968C9112974111F9
:1012B00003C09095892301C0892B12968C932FBF70
:1012C0000895CF93DF93EC01A881B981ED91FC9152
:1012D00011976D817E810084F185E02DCD01099506
:1012E000DF91CF910895ABE0B0E0E9E7F9E00C942D
:1012F000C1185C017E836D8358874F83122FEADD0E
:1013000028EE33E040E050E00E949F1869017A0126
:10131000812F90E09A878987A8EE2A2EA3E03A2EA3
:10132000412C512CD50154968C91811114C0D2DDE1
:10133000A20191010E949F182C193D094E095F09D5
:10134000F50185899689A0E0B0E0281739074A079A
:101350005B0708F4E6C0F5018489882309F4DEC040
:10136000D50154968C91882309F4B2C0C50119DCCB
:10137000E0914B03F0914C038085823038F48FB7B5
:10138000F894A481B58196819C938FBFB3E0BEBDD4
:101390000DB407FEFDCF8EB5823009F0C5C01EBC6E
:1013A0000DB407FEFDCF8EB51EBC0DB407FEFDCFFC
:1013B0008EB51EBC0DB407FEFDCF6EB4712C762C1D
:1013C00066241EBC0DB407FEFDCF8EB5682AE4E08E
:1013D0006E16710408F4ADC064E070E0CE010196B1
:1013E00060DD8981843011F08230C9F42C81213490
:1013F000B0F48A809B80022F10E021700115110546
:1014000031F0B80184E992E02B874BDD2B85211167
:101410000AC01EBC0DB407FEFDCF8EB504C0812CE2
:10142000912C0AEE1FEF17FF11C0F4E06F1A71083C
:101430006114710459F080E090E01EBC0DB407FE09
:10144000FDCF2EB5019686159705B9F7D5015496AF
:101450001C92E0914B03F0914C038FB7F894A48158
:10146000B58196819C938FBFE0914B03F0914C0323
:101470008085823038F08FB7F894A481B581968149
:101480009C938FBFC0DB063DBFEF1B0709F44ACF1B
:1014900017FF20C084E191E09F938F931F928EE607
:1014A0008F938FE990E09F938F938DE393E09F93C9
:1014B0008F93A4DD4AE0B8018DE393E06CDD8DE30A
:1014C00093E0FFDE0FB6F894DEBF0FBECDBF36C08F
:1014D00000E010E08D819E818815990569F4A98549
:1014E000BA850A171B0741F4A80164E972E08F81ED
:1014F00098850E94141922C0F5018789908D009764
:1015000009F410CFDC01ED91FC910190F081E02D08
:10151000980144E952E0B401099504CF02EC1FEFB1
:101520000DC00E947E01FECE02EF1FEF612C712CD8
:1015300002C006ED1FEF812C912C7ACFC8012B96AB
:10154000E2E10C94DD18ADE0B0E0E9EAFAE00C94D9
:10155000CF18FC0103891489458950E060E070E0F0
:1015600049835A836B837C831D821E821F82188667
:1015700028E0AE014F5F5F4F66E070E1C801F4DB29
:1015800097FD0CC025E0AE01475F5F4F66E070E15C
:10159000C801A9DE97FD02C08A859B852D96E4E0EF
:1015A0000C94EB18CF93DF93EC018BDECE01DF912F
:1015B000CF910895DC01ED91FC91048CF58DE02D27
:1015C00009950895DC01ED91FC910084F185E02DF1
:1015D00009950895ADE3B0E0E0EFFAE00C94C91886
:1015E0008C01FC012589822F90E0C12CD12C760141
:1015F000C39404C0CC0CDD1CEE1CFF1C2A95D2F752
:10160000A388B4880196AA2797FDA095BA2F89834D
:101610009A83AB83BC8384E190E0A0E0B0E08D834B
:101620009E83AF83B88789879A87AB87BC878D876E
:101630009E87AF87B88B898B9A8BAB8BBC8B1D8AAF
:101640001E8A1F8A188EC98EDA8EEB8EFC8E1D8E36
:101650001E8E1F8E18A219A21AA21BA21CA21DA2C6
:101660001EA21FA218A680E593ECA0E0B0E089A717
:101670009AA7ABA7BCA72CE2AE014F5F5F4F68E013
:1016800070E1C50171DB97FD16C021E1AE01435D3C
:101690005F4F68E070E1C50126DE97FD0CC08DA5A7
:1016A000811107C0CAA8DBA8ECA8FDA88EA59FA53C
:1016B00002C082EF9FEF97FD0FC0F801058804C0BC
:1016C000F694E794D794C7940A94D2F7F1E0CF2226
:1016D000DD24EE24FF24C601ED96EAE00C94E51823
:1016E0004F925F926F927F928F929F92AF92BF9232
:1016F000CF92DF92EF92FF92CF93DF93EC016A01DA
:101700007B01E8DB28EE33E040E050E00E949F18C8
:1017100049015A0148EE442E43E0542E612C712CAD
:101720008C8981110EC0D6DBA30192010E949F1803
:10173000281939094A095B092C153D054E055F0535
:1017400058F08C89882359F020E444E952E060E0A5
:1017500070E0CE01C8DDE4CF0E947E01E1CF80E0E1
:1017600090E0DF91CF91FF90EF90DF90CF90BF900E
:10177000AF909F908F907F906F905F904F90089563
:10178000A9E0B0E0E6ECFBE00C94CD188C017B0105
:1017900044E650E060E070E0A3DFA701662757FD54
:1017A0006095762F4E835F836887798724E0AE014A
:1017B0004A5F5F4F6BE070E1C801D6DA97FD19C050
:1017C00025E0AE014F5F5F4F6BE070E1C8018BDD3C
:1017D0009C01263D8FEF380799F337FD06C08981BC
:1017E000811105C08A819B8104C0C90102C082EFBA
:1017F0009FEF2996E6E00C94E918FC01658970E0FA
:1018000083899489BDCFFC01658970E083899489BF
:10181000B7CFA5E1B0E0EFE0FCE00C94C9185C01A3
:10182000FC01F5880389148948EE53E060E070E01C
:10183000C80156DF8F2D90E0A0E0B0E08A8B9B8B33
:10184000AC8BBD8B24E0AE014E5E5F4F65E070E176
:10185000C8018ADA97FD44C021E1AE014F5F5F4FB6
:1018600065E070E1C8013FDD97FD3AC0CE80DF80C2
:10187000E884F9848A819B81AC81BD81B7FD2EC04B
:10188000F8E0CF16D10450F5F801E65EFE4F81E096
:1018900090E00C2C02C0880F991F0A94E2F7208177
:1018A0003181822B932B91838083BE01625F7F4FB6
:1018B000C5014696CDD98C859D85F501938F828F84
:1018C0002CE12C9DC0012D9D900D1124800F911FA6
:1018D000FC01E15BFF4FC082C60102C082EF9FEFB7
:1018E0006596EAE00C94E518AAE1B0E0EAE7FCE0CE
:1018F0000C94C1183B017A012111DAC0FC01258842
:1019000003891489F80181AD811106C040E050E0DF
:10191000BA01C801E5DEF6CF312C412C512C2982C9
:101920003A824B825C828CE090E0A0E0B0E08D8354
:101930009E83AF83B887C701A0E0B0E089879A870C
:10194000AB87BC871D861E861F86188A4701F0E17B
:101950008F0E911C6401570125E1A20EB11CC50137
:1019600081709927E1E08E27282F21702A8F22236A
:1019700021F0570186E1A80EB11CC80112D9E091EF
:101980004B03F0914C038085823038F48FB7F89484
:10199000A481B58196819C938FBF81E08EBD0DB4EB
:1019A00007FEFDCF8EB5823009F044C0BEBC0DB439
:1019B00007FEFDCF8EB5AEBC0DB407FEFDCF8EB5D4
:1019C0001EBC0DB407FEFDCF8EB51EBC0DB407FEC8
:1019D000FDCF8EB582E08EBD0DB407FEFDCF8EB576
:1019E00081E88EBD0DB407FEFDCF8EB580E18EBDC2
:1019F0000DB407FEFDCF8EB58EBC0DB407FEFDCF36
:101A00008EB59EBC0DB407FEFDCF8EB560E170E0D3
:101A1000CE01019695D9E114F10419F0B701C30183
:101A20008FD92A8D222351F01EBC0DB407FEFDCFA5
:101A30008EB504C052EFC52EDD24DA94E0914B033D
:101A4000F0914C038FB7F894A481B58196819C9353
:101A50008FBFE0914B03F0914C038085823038F0CA
:101A60008FB7F894A481B58196819C938FBFCBD812
:101A7000D7FC1AC029E0AE014F5E5F4F63E070E112
:101A8000C80131DC97FD16C08A899B89AC89BD8964
:101A900082159305A405B50549F4F80181AD81507F
:101AA00081AF8E899F8906C0C60104C082EF01C044
:101AB0008FEF9FEF6A96E2E10C94DD18A9E1B0E0A8
:101AC000E4E6FDE00C94CF18FC01038914898589B4
:101AD00090E0A0E0B0E089839A83AB83BC8388E088
:101AE00090E0A0E0B0E08D839E83AF83B8878987C4
:101AF0009A87AB87BC8782E090E09E878D87042E13
:101B0000452F502D588B4F87FB0180819181A281F9
:101B1000B381898B9A8BAB8BBC8B24E1AE014F5F79
:101B20005F4F67E070E1C8011FD997FD29C025E02C
:101B3000AE014B5E5F4F67E070E1C801D4DB97FDFB
:101B40001FC08D8981111AC04E895F89688D798D7A
:101B50004830510598F4F801E65EFE4F81E090E0D0
:101B6000042E02C0880F991F0A94E2F72081318168
:101B7000822B932B91838083CA0102C082EF9FEF57
:101B80006996E4E00C94EB184F925F926F927F920B
:101B90009F92AF92BF92CF92DF92EF92FF920F93FC
:101BA0001F93CF93DF93CDB7DEB7CB52D2400FB6A2
:101BB000F894DEBF0FBECDBF7E018FEFE81A8DEF28
:101BC000F80A86E2EEE6F2E0D70101900D928A95DE
:101BD000E1F780913D0390913E03ECDC7BD92B0132
:101BE0003C0182E090E0A0E0B0E089839A83AB837F
:101BF000BC8381E090E0A0E0B0E08D839E83AF8362
:101C0000B88786E090E0A0E0B0E089879A87AB874C
:101C1000BC872CE0AE014F5F5F4F61E070E182E670
:101C200093E0A2D897FD1BC025E0AE01495D5D4F52
:101C300061E070E182E693E056DB97FD10C0C95D7C
:101C4000DD4F8881C752D240811107C0C85DDD4F8A
:101C500088819981C852D24002C082EF9FEF97FDE0
:101C60000FC02CE1289FF001299FF00D1124E456AC
:101C7000FC4F858B82E693E0948B838B8F0102C0AF
:101C800000E010E027D96419750986099709609367
:101C90004403709345038093460390934703409118
:101CA0003F0368E370E08DE393E075D98AE08093A9
:101CB0003F0380913D0390913E030E94AD058091CA
:101CC0003D0390913E030E94B6054090440350901E
:101CD000450360904603709047036AE072E080918C
:101CE0003D0390913E036EDC69EF71E080913D030E
:101CF00090913E0367DCC301B2010E94C00565EF0D
:101D000071E080913D0390913E035CDC8DE393E0B4
:101D1000D8DA0115110529F46FED71E08AE390E03E
:101D2000F3C08DEAC95DDD4F8883C752D24082EC93
:101D3000C85DDD4F8883C852D24081E7C75DDD4F63
:101D40008883C952D24082E9C65DDD4F8883CA527A
:101D5000D240AAE09A2EFDE3AF2EF3E0BF2E809191
:101D60003D0390913E0326DCB5D82B013C01D80100
:101D7000ED91FC9100A4F1A5E02D40E550E0BE01FD
:101D8000695D7D4FC80109956C01A4D86419750976
:101D90008609970960934403709345038093460333
:101DA0009093470340913F036EE370E0C501F3D881
:101DB00090923F0380913D0390913E030E94AD05B8
:101DC00080913D0390913E030E94B60540904403EC
:101DD00050904503609046037090470365ED71E0B5
:101DE00080913D0390913E03EDDB62EC71E08091C8
:101DF0003D0390913E03E6DBC301B2010E94C005A2
:101E00006EEB71E080913D0390913E03DBDBC501F9
:101E100058DAD7FE08C048EE53E060E070E082E692
:101E200093E05EDC98CF80913D0390913E03C2DB4E
:101E300051D82B013C01D7010D900020E9F7AD01ED
:101E4000415051094E195F09D801ED91FC9100AC48
:101E5000F1ADE02D20E0B701C80109956C013AD839
:101E600064197509860997096093440370934503C3
:101E7000809346039093470340913F0363E470E0EF
:101E80008DE393E088D88AE080933F0380913D03FF
:101E900090913E030E94AD0580913D0390913E03D9
:101EA0000E94B6054090440350904503609046035D
:101EB0007090470364EB71E080913D0390913E0385
:101EC00081DB66EA71E080913D0390913E037ADB0D
:101ED000C301B2010E94C00562EA71E080913D0336
:101EE00090913E036FDB8DE393E0EBD9F701019016
:101EF0000020E9F73197EE19FF09CE16DF0629F029
:101F00006DE771E085E490E039D98DE391E09F932E
:101F10008F931F9286E48F9388E691E09F938F932F
:101F2000BF92AF926BD84AE0B6018DE393E033D80D
:101F30008DE393E0C6D90FB6F894DEBF0FBECDBFD8
:101F4000A12CB12CEAE09E2E7DE3E72E73E0F72E64
:101F500080913D0390913E032DDB0E946A072B0187
:101F60003C01D801ED91FC910190F081E02DC80178
:101F700009956C010E946A07641975098609970919
:101F80006093440370934503809346039093470303
:101F900040913F036AE470E0C7010E94CB07909232
:101FA0003F0380913D0390913E030E94AD058091D7
:101FB0003D0390913E030E94B6054090440350902B
:101FC000450360904603709047036EE571E0809191
:101FD0003D0390913E03F6DA62E471E080913D03A7
:101FE00090913E03EFDAC301B2010E94C0056EE397
:101FF00071E080913D0390913E03E4DAC70161D91D
:10200000D7FE05C06EE271E08CE490E07DCFCD2874
:1020100009F469C080913D0390913E03CBDA0E94A0
:102020006A072B013C01D801ED91FC9102A8F3A9AC
:10203000E02D40E052E0BE016F5F7F4FC80109957F
:102040007C010E946A0764197509860997096093E3
:102050004403709345038093460390934703409154
:102060003F036EE470E08DE393E00E94CB07909213
:102070003F0380913D0390913E030E94AD05809106
:102080003D0390913E030E94B6054090440350905A
:102090004503609046037090470364E271E08091CD
:1020A0003D0390913E038EDA6AE071E080913D033A
:1020B00090913E0387DAC301B2010E94C00566E039
:1020C00071E080913D0390913E037CDA8DE393E0D3
:1020D000F8D8F7FE05C066EF70E080E590E014CF19
:1020E000AE0CBF1C31CF6DE3C62E61E0D62EDF9261
:1020F000CF921F928AE58F9381EE90E09F938F930A
:10210000FF92EF920E94FE074AE0B5018DE393E053
:102110000E94CB078DE393E0D4D880913D0390914A
:102120003E0348DA0E946A072B013C01D801ED9179
:10213000FC9102A0F3A1E02DC80109958C010E9439
:102140006A076419750986099709609344037093B7
:102150004503809346039093470340913F036CE50A
:1021600070E08DE393E00E94CB078AE080933F0309
:1021700080913D0390913E030E94AD0580913D0307
:1021800090913E030E94B605409044035090450351
:10219000609046037090470367ED70E080913D03C7
:1021A00090913E030FDA69EC70E080913D039091CD
:1021B0003E0308DAC301B2010E94C00565EC70E07D
:1021C00080913D0390913E03FDD98DE393E079D852
:1021D000DF92CF921F928EE58F9382EB90E09F93D8
:1021E0008F93FF92EF920E94FE074AE0B8018DE3C1
:1021F00093E00E94CB078DE393E063D88DE393E0F7
:1022000060D840E157E260E070E082E693E068DA8F
:102210000FB6F894DEBF0FBECDBFC55DDD4F0FB664
:10222000F894DEBF0FBECDBFDF91CF911F910F910C
:10223000FF90EF90DF90CF90BF90AF909F907F90F6
:102240006F905F904F900895A5E0B0E0E9E2F1E172
:102250009AC77C01562E6A01590148010E94D10596
:10226000E0914B03F0914C038085823038F48FB7B6
:10227000F894A481B58196819C938FBF83E08EBD35
:102280000DB407FEFDCF8EB5823009F085C01EBCAF
:102290000DB407FEFDCF8EB51EBC0DB407FEFDCFFD
:1022A0008EB51EBC0DB407FEFDCF6EB4712C762C1E
:1022B00066241EBC0DB407FEFDCF8EB5682A85E0EE
:1022C0006816710408F46DC065E070E0CE010196F7
:1022D0000E9451078981823081F58A8185112DC044
:1022E0008B81883151F54C805D80E8E14E1A5108B0
:1022F00082018414950418F1C114D10431F068E10D
:1023000070E0C6010E94510708C088E11EBC0DB4F0
:1023100007FEFDCF9EB58150C9F74114510421F04D
:10232000B201C5010E9451078C8180FF08C01EBC0C
:102330000DB407FEFDCF8EB502C00AEE1FEF17FFEA
:102340000FC0F5E06F1A710880E090E086159705E0
:1023500039F01EBC0DB407FEFDCF2EB50196F6CFA9
:10236000F701148AE0914B03F0914C038FB7F89476
:10237000A481B58196819C938FBFE0914B03F0912E
:102380004C038085823080F08FB7F894A481B581AA
:1023900096819C938FBF08C002EF1FEF612C712CB8
:1023A000D3CF06ED1FEFD0CF0E940306C8012596BC
:1023B000E0E105C7A1E3B0E0EFEDF1E1E4C65C01C7
:1023C0004A016B01EE24D7FCE094FE2CCEA2DFA2E2
:1023D000E8A6F9A6C901A0E0B0E08AA79BA7ACA730
:1023E000BDA71EA61FA618AA19AA2CE0AE014A5D19
:1023F0005F4F64E070E1C5010E94B40613E02DE078
:10240000AE01475E5F4F64E070E1C5010E94730951
:10241000863D2FEF920729F4115089F786ED9FEF43
:1024200059C097FD57C08A8D9B8DAC8DBD8D8C1585
:102430009D05AE05BF0569F58E8D9F8DA8A1B9A13B
:10244000892B8A2B8B2B19F480E090E043C00E94EB
:102450006A0728EE33E040E050E071D669017A0166
:1024600098EE492E93E0592E612C712CF501848948
:10247000811112C00E946A07A301920160D62C1933
:102480003D094E095F09283B3B4041055105F8F0E5
:1024900003C082EF9FEF1EC0F50184898823A1F05D
:1024A0000E8D1F8D28A139A1F5018489882361F241
:1024B0009401AE014F5F5F4F65E8C501C5DE863D03
:1024C000FFEF9F0799F206C082EC9FEF03C00E94C6
:1024D0007E01CCCFE196E0E172C6FB019A01DC01FE
:1024E00055966C91559770E0AF0153968D919C91E4
:1024F000549760CFEF92FF920F931F93CF93DF9388
:10250000EC018B017A01E881F9810190F081E02DE5
:10251000099597FD0AC0892B59F06D8970E09701E4
:10252000A8018B899C8946DF05C08FEF9FEF02C011
:1025300080E090E0CDB7DEB7E6E04BC61F920F9289
:102540000FB60F9211240BB60F922F933F934F9318
:102550005F936F937F938F939F93AF93BF93EF930B
:10256000FF938091D8029091D902A091DA02B091A4
:10257000DB020196A11DB11D8093D8029093D90270
:10258000A093DA02B093DB02E091E802F091E90255
:10259000309729F08091E6029091E7020995FF912A
:1025A000EF91BF91AF919F918F917F916F915F91CB
:1025B0004F913F912F910F900BBE0F900FBE0F9038
:1025C0001F9018951F920F920FB60F9211240F9023
:1025D0000FBE0F901F9018951F920F920FB60F927B
:1025E00011242F938F939F93AF93BF938091D40225
:1025F0009091D502A091D602B091D7029C5FAF4FC7
:10260000BF4F8093D4029093D502A093D602B0938B
:10261000D7028091E3029091E4028115944034F056
:102620008091E3029091E402945024C08091E102F1
:102630009091E2028F3C934011F51092E2021092C9
:10264000E1028091DD029091DE02A091DF02B09163
:10265000E0020196A11DB11D8093DD029093DE0280
:10266000A093DF02B093E0028091E3029091E40234
:10267000805C9D4F9093E4028093E30209C08091B7
:10268000E1029091E20201969093E2028093E102CE
:10269000BF91AF919F918F912F910F900FBE0F908F
:1026A0001F9018951F920F920FB60F9211240BB620
:1026B0000F922F933F934F935F936F937F938F93DB
:1026C0009F93AF93BF93EF93FF93809150039091AB
:1026D0005103009711F00E94E708FF91EF91BF911D
:1026E000AF919F918F917F916F915F914F913F91AA
:1026F0002F910F900BBE0F900FBE0F901F9018954B
:102700001F920F920FB60F9211240BB60F922F93B8
:102710003F934F935F936F937F938F939F93AF9369
:10272000BF93EF93FF9380915003909151030097D3
:1027300011F00E94F608FF91EF91BF91AF919F9128
:102740008F917F916F915F914F913F912F910F905A
:102750000BBE0F900FBE0F901F9018951F920F92F7
:102760000FB60F9211240BB60F922F933F934F93F6
:102770005F936F937F938F939F93AF93BF93EF93E9
:10278000FF938091500390915103009711F00E94A4
:102790000909FF91EF91BF91AF919F918F917F9127
:1027A0006F915F914F913F912F910F900BBE0F90C2
:1027B0000FBE0F901F9018951F920F920FB60F9299
:1027C00011240BB60F922F933F934F935F936F9308
:1027D0007F938F939F93AF93BF93EF93FF938091DA
:1027E0004E0390914F03009711F00E94E708FF916C
:1027F000EF91BF91AF919F918F917F916F915F9179
:102800004F913F912F910F900BBE0F900FBE0F90E5
:102810001F9018951F920F920FB60F9211240BB6AE
:102820000F922F933F934F935F936F937F938F9369
:102830009F93AF93BF93EF93FF9380914E0390913B
:102840004F03009711F00E94F608FF91EF91BF919E
:10285000AF919F918F917F916F915F914F913F9138
:102860002F910F900BBE0F900FBE0F901F901895D9
:102870001F920F920FB60F9211240BB60F922F9347
:102880003F934F935F936F937F938F939F93AF93F8
:10289000BF93EF93FF9380914E0390914F03009766
:1028A00011F00E940909FF91EF91BF91AF919F91A3
:1028B0008F917F916F915F914F913F912F910F90E9
:1028C0000BBE0F900FBE0F901F9018951F920F9286
:1028D0000FB60F9211240BB60F922F933F934F9385
:1028E0005F936F937F938F939F93AF93BF93EF9378
:1028F000FF938091600390916103009749F0DC01A0
:10290000ED91FC910190F081E02D60E070E009957F
:10291000FF91EF91BF91AF919F918F917F916F91B7
:102920005F914F913F912F910F900BBE0F900FBE73
:102930000F901F9018951F920F920FB60F921124AF
:102940000BB60F922F933F934F935F936F937F93A9
:102950008F939F93AF93BF93EF93FF9380915E0309
:1029600090915F03009749F0DC01ED91FC9101909B
:10297000F081E02D60E070E00995FF91EF91BF914B
:10298000AF919F918F917F916F915F914F913F9107
:102990002F910F900BBE0F900FBE0F901F901895A8
:1029A0001F920F920FB60F9211240BB60F922F9316
:1029B0003F934F935F936F937F938F939F93AF93C7
:1029C000BF93EF93FF9380915C0390915D03009719
:1029D00049F0DC01ED91FC910190F081E02D60E087
:1029E00070E00995FF91EF91BF91AF919F918F9109
:1029F0007F916F915F914F913F912F910F900BBEFF
:102A00000F900FBE0F901F901895A8E3B0E0EAE07A
:102A1000F5E1C5C380917A00876080937A0080E8F1
:102A200080BF1092C10041E063E1CE01C5960E94D3
:102A3000280941E064E1CE01C1960E94280941E0E5
:102A400062E1CE018D960E94280941E065E1CE0148
:102A500089960E94280941E068E0CE0185960E948F
:102A6000280940E069E0CE0149960E94280940E02B
:102A70006EE1CE0101960E94280978942EE040E094
:102A800051EE60E070E082E593E00E94480482E548
:102A900093E090933E0380933D03E0915203F091C5
:102AA00053030084F185E02D64E172E009958DE324
:102AB00093E00E9461099FB7F894A89584B7877F37
:102AC00084BF88E18093600080E4809360009FBFB2
:102AD0001092E9021092E8021092E7021092E602C8
:102AE0001092DC0281E08093E50286E991E0909308
:102AF0000101809300018091EA02811112C09FB709
:102B0000F89483E085BD81E080936E0016BC15BA11
:102B10009FBF8093EA0281E997E09093010180933F
:102B2000000188E893E19093780380937703E09124
:102B30006F03F09170039091710380818923E9F311
:102B40009FB7F894E0917B03F0917C038281209100
:102B50007D03822B82839FBFE0916F03F09170030E
:102B60009091710380818923E9F7E0916D03F091E1
:102B70006E030280F381E02D8DE693E0099582E6F5
:102B800093E00E94D105E0914B03F0914C038085C6
:102B9000823038F48FB7F894A481B58196819C93E4
:102BA0008FBF88EC90E00197F1F781E08EBD0DB406
:102BB00007FEFDCF8EB51EBC0DB407FEFDCF8EB552
:102BC00085E08EBD0DB407FEFDCF8EB51EBC0DB4E5
:102BD00007FEFDCF8EB588EC90E00197F1F71EBCA3
:102BE0000DB407FEFDCF8EB581E08EBD0DB407FE9E
:102BF000FDCF8EB51EBC0DB407FEFDCF8EB580E4B3
:102C00008EBD0DB407FEFDCF8EB581E08EBD0DB437
:102C100007FEFDCF8EB51EBC0DB407FEFDCF8EB5F1
:102C2000E0914B03F0914C038FB7F894A481B581E8
:102C300096819C938FBFE0914B03F0914C0380856C
:102C4000823038F08FB7F894A481B58196819C9337
:102C50008FBF0E940306E0910001F091010168EE30
:102C600073E080E090E0099521E0AE014F5F5F4F97
:102C700060E070E482E693E00E94730997FD04C06F
:102C80008981992787FD909597FDCCC020E040E091
:102C900050E06BE070E482E693E00E94B40697FD9A
:102CA00019C024E0AE014F5F5F4F6BE070E482E635
:102CB00093E00E94730997FD0DC08A8180939B0366
:102CC0008B819C8190939A038093990389819927A2
:102CD00087FD909597FDA6C021E0AE01475D5F4F4F
:102CE00061E070E882E693E00E9473091816190605
:102CF0007CF589A581112CC025E1AE014F5F5F4FA6
:102D000060E170E882E693E00E94730918161906E4
:102D1000FCF4898181111CC0BE016E5F7F4F89E880
:102D200093E00E942806BE016A5F7F4F8DE893E022
:102D30000E942806BE01665F7F4F81E993E00E94F2
:102D40002806BE016E5E7F4F85E993E00E9428064B
:102D500086E090E0A0E0B0E0898F9A8FAB8FBC8FC7
:102D60008D8F9E8FAF8FB8A319A21AA21BA21CA28F
:102D70002CE0AE01475E5F4F61E072E082E693E0D7
:102D80000E94B40697FD46C021E0AE014B5D5F4F47
:102D900061E072E082E693E00E94730997FD3AC019
:102DA000E0910001F09101016AE070E080E090E0C4
:102DB000099580917603882371F006E010E023E8FE
:102DC00033E0AE014F5F5F4F61E982E693E03CDAAA
:102DD00097FF03C01FC080E090E049815A816B815A
:102DE0007C81463051056105710519F082EF9FEF36
:102DF00011C04D815E816F81788546305105610536
:102E00007105A1F749855A856B857C85452B462B35
:102E1000472B61F797FD06C08CE291E09093780311
:102E2000809377030E94C40DFDCFCF93DF93109260
:102E3000EB021092EC02EDEEF2E0108212821182AF
:102E400014821382359633E0ED33F307B1F7209106
:102E50007E0430917F044091800450918104609100
:102E60008204709183048091840490918504A1E090
:102E7000C3D120937E0430937F0440938004509309
:102E800081046093820470938304809384049093FC
:102E90008504BED1B1F410923E0310923D038AE046
:102EA00080933F0386E08093400384E08093410356
:102EB0008EE292E090934303809342038DE18093EE
:102EC00048032091860430918704409188045091F2
:102ED000890460918A0470918B0480918C04909194
:102EE0008D04A1E089D12093860430938704409318
:102EF00088045093890460938A0470938B048093B0
:102F00008C0490938D0484D1A9F410924A031092FA
:102F1000490310924C0310924B0310924D039FB73C
:102F2000F89484B1806B84B9269885B18F7585B982
:102F30002E9A9FBF1092E0041092E10487E791E07F
:102F40009093DF048093DE041092E3041092E20475
:102F50001092E5041092E4041092980410929904DF
:102F6000909397048093960410929B0410929A0475
:102F700010929D0410929C0420918E0430918F0435
:102F80004091900450919104609192047091930447
:102F90008091940490919504A1E02ED120938E0409
:102FA00030938F0440939004509391046093920463
:102FB00070939304809394049093950429D111F510
:102FC00010925403109255038DE491E090935303B3
:102FD0008093520380EC90E09093570380935603C4
:102FE0008EED94E0909359038093580386E994E022
:102FF00090935B0380935A0382E593E090934F0391
:1030000080934E0310926303109262038DE693E067
:10301000909365038093640341E068E086E693E063
:103020000E94280910926A0384E580936B03109232
:103030006C0340E06AE08FE693E00E9428099FB7A6
:10304000F894E0916F03F0917003828120917103F5
:10305000822B82839FBF9FB7F894C2E6D3E0E091B2
:103060006F03F09170032181809171038095822319
:1030700081839FBF8BE991E090936E0380936D03F2
:1030800082E080937303809169008F7C80628093DB
:1030900069008DE693E0909361038093600387EA73
:1030A00091E090936E0380936D03D0937503C0936A
:1030B00074031092760388EB9BE0909378038093DF
:1030C000770310927A031092790340E069E08BE76E
:1030D00093E00E94280987E592E090938003809313
:1030E0007F03D0938203C0938103ECE9F3E0ACEA61
:1030F000B3E02CE087E192E0ED012E971882219653
:1031000018821C92AF014C5F5F4FEA01322F199277
:103110003A95E9F7918380837C965C96C4E0EC371E
:10312000FC0751F710927D0410927C048FE793E026
:1031300090937A0380937903DF91CF910895A1E270
:103140001A2EAA1BBB1BFD010DC0AA1FBB1FEE1F21
:10315000FF1FA217B307E407F50720F0A21BB30B6C
:10316000E40BF50B661F771F881F991F1A9469F7E8
:1031700060957095809590959B01AC01BD01CF0144
:1031800008952F923F924F925F926F927F928F920B
:103190009F92AF92BF92CF92DF92EF92FF920F93E6
:1031A0001F93CF93DF93CDB7DEB7CA1BDB0B0FB6F0
:1031B000F894DEBF0FBECDBF09942A8839884888AD
:1031C0005F846E847D848C849B84AA84B984C88443
:1031D000DF80EE80FD800C811B81AA81B981CE0F3A
:1031E000D11D0FB6F894DEBF0FBECDBFED0108951F
:1031F0000790F691E02D09940024A7FD00942A0F72
:10320000301D401D501D601D701D801D901D0895B6
:103210000024A7FD00942A173005400550056005DD
:103220007005800590050895FB01DC0102C0019046
:103230000D9241505040D8F70895FC0105900020B0
:10324000E9F7809590958E0F9F1F0895453251059F
:1032500018F4423008F004C0FB011082CB0108953D
:10326000BB274A3031F4992322F4BDE29095819531
:103270009F4F4EC02532310518F4223008F004C0AB
:10328000FA011082CA010895BB272A3051F499230C
:1032900042F4BDE290958095709561957F4F8F4F78
:1032A0009F4F0BC02532310518F4223008F004C0BE
:1032B000FA011082CA010895BB27FA01A62F6217EE
:1032C000710581059105330B30FB66F0AA27660F67
:1032D000771F881F991FAA1FA21710F0A21B6395C2
:1032E0003850A9F7A05DAA3308F0A95DA19336F77D
:1032F000B111B1931082CA0123C04532510518F4AF
:10330000423008F004C0FB011082CB010895BB27B6
:10331000FB015527AA27880F991FAA1FA41710F091
:10332000A41B83955051B9F7A05DAA3308F0A95D9D
:10333000A193009779F7B111B1931192CB0100C01D
:10334000DC01FC01672F71917723E1F7329704C00C
:103350007C916D9370836291AE17BF07C8F3089597
:04336000F894FFCF0F
:103364008A01000000004A01360535053405FEFFD8
:1033740000003805696E74204843493A3A61776120
:1033840069742875696E7431365F742C20766F69A0
:10339400642A2C2075696E74385F742900766F690D
:1033A40064206C6F6F7028290000000000E904DCC1
:1033B4000420049C05810541031C03F702CF04C2C9
:1033C40004B504A80286026102A8049B0448043ED2
:1033D400049A040000000015040804EF039C05810E
:1033E4000541031C03F702D403B4039C03A802861B
:1033F4000261028B038503000000003305180507F2
:1034040005F604000000003B0518050705F6040056
:1034140000000082037F0363039C0581050E0205FF
:1034240002F702F402F102EA01A802E20161025E7B
:10343400025D028901890189018901890189018962
:1034440001890189018901890189018901890100B1
:1034540000000082037F0363039C05810541031C74
:1034640003F702F402F102EE02A802860261025E90
:10347400025D0200000000EA0A2F0263039C05813A
:10348400050E020502F702F402F102EA01A8027A2B
:103494001261022C025D022902030CA30A090C5ECC
:1034A4000D26022302FD0B20026D121D021A027466
:1034B4000C1702000000003206436F73614343336C
:1034C400303030736F636B65742E696E6F004745DF
:1034D40054202F20485454502F312E310D0A436F5D
:1034E4006E6E656374696F6E3A20636C6F73650DFD
:0434F4000A0D0A00B3
:00000001FF
