:100000002FC200000C946F190C943A190C94051926
:1000100056C2000054C2000052C2000050C200008C
:100020000C943D174CC200004AC2000048C20000B8
:1000300046C2000044C2000042C2000040C20000AC
:100040003EC200003CC200000C948B170C94811738
:100050000C94A9180C94D7180C947B1830C200008B
:100060002EC200002CC200002AC2000028C20000DC
:100070000C941F180C944D180C94F11720C200001A
:100080001EC200001CC200001AC200003062003014
:100090000030780025733A25643A25530D0A00256F
:1000A000643A25733A74726163653A726573203DF0
:1000B000200020757300436C6F736520636C696565
:1000C0006E7420636F6E6E656374696F6E3A003A8A
:1000D0006D6561737572653A0025643A25733A74EB
:1000E000726163653A726573203D200025643A258C
:1000F000733A74726163653A636F756E74203D2064
:100100000020757300436F6E7374727563742061A1
:100110006E642073656E6420706167653A003A6DA5
:100120006561737572653A006173736572743A72D2
:100130006573203D3D206F6275662E617661696C46
:1001400061626C652829003C2F424F44593E0D0ADC
:100150003C2F48544D4C3E0054696D653A20005286
:100160006571756573743A20006173736572743AD2
:10017000726573203D3D206F6275662E6176616900
:100180006C61626C652829003C2F5441424C453E0D
:10019000003C2F54523E003C2F54443E0067726591
:1001A000656E223E3000726564223E31003C54444C
:1001B000207374796C653D22746578742D616C6967
:1001C000676E3A2063656E7465723B206261636B93
:1001D00067726F756E642D636F6C6F723A200018D2
:1001E000191A1B0B1D1E131C0C1F0D0E0F141215BC
:1001F00016171110080A0900010203040506073C3E
:1002000054523E006173736572743A726573203D97
:100210003D206F6275662E617661696C61626C6506
:100220002829003C2F54523E003C2F54443E003CB1
:1002300054443E44003C54523E003C5441424C45E0
:100240003E003C42522F3E0D0A00446967697461CA
:100250006C2050696E3A006173736572743A72650E
:1002600073203D3D206F6275662E617661696C6119
:10027000626C65282900485454502F312E312032A9
:100280003030204F4B0D0A436F6E74656E742D54E1
:100290007970653A20746578742F68746D6C0D0AF6
:1002A000436F6E6E656374696F6E3A20636C6F7333
:1002B000650D0A526566726573683A20330D0A0D42
:1002C0000A3C21444F43545950452048544D4C3E1C
:1002D0000D0A3C48544D4C3E0D0A3C484541443EB5
:1002E0003C5449544C453E436F7361434333303073
:1002F000307365727665723C2F5449544C453E3CD0
:100300002F484541443E0D0A3C424F44593E0D0A98
:100310000025643A25733A74726163653A636F75B8
:100320006E74203D20002075730052656369657608
:10033000652048544D4C20726571756573743A00A0
:100340003A6D6561737572653A003A00636C696570
:100350006E743D0025643A25733A74726163653AA0
:10036000726573203D2000207573004C69737465BD
:100370006E206D6F64653A003A6D656173757265E4
:100380003A006173736572743A776966692E6C69B5
:100390007374656E2873657276657229203D3D2001
:1003A00030002075730042696E6420746F20706F96
:1003B00072743A003A6D6561737572653A006173E3
:1003C000736572743A776966692E62696E64287320
:1003D00065727665722C20383029203D3D20300032
:1003E0006173736572743A736572766572203D3D10
:1003F00020300020757300437265617465206120B0
:10040000736F636B65743A003A6D656173757265FD
:100410003A006173736572743A776966692E626532
:1004200067696E5F5028505354522822436F73619E
:100430004343333330307365727665722229290065
:10044000436F736143433330303073657276657246
:100450003A2073746172746564000D0A00007B1D9C
:1004600011241FBECFEFD0E4DEBFCDBF12E0A0E06D
:10047000B1E0E2E6F0E400E00BBF02C007900D92AD
:10048000A63BB107D9F725E0A6EBB2E001C01D926B
:10049000AC34B207E1F714E0C0E6D4E000E006C0F7
:1004A00022970109FE010BBF0E94681FCE35D107BC
:1004B00080E00807A9F70E94A4190C942F20A0CD72
:1004C000FC0185A196A1009771F120A531E0320FC2
:1004D00030A7DC01A20FB11D6C9380A597A18913F1
:1004E00022C090E09F012E5F3F4F5FB7F89440918C
:1004F00011034F5F4F7060911203461791F065E052
:10050000469FD0011124AD5EBC4F6EE06C931296F5
:100510003C932E93119714969C938E93139740932C
:1005200011035FBF10A6089583B7817F83BF83B790
:10053000816083BF889583B78E7F83BF08950895B8
:1005400020EA3FE0615071098109910920F0F90129
:100550003197F1F7F7CF0895A4E0B0E0E2EBF2E0D5
:100560000C943A1F20E130E00090040302C0220FF7
:10057000331F0A94E2F7BFB6F894C0900003D090FE
:100580000103E0900203F0900303A90156954795FB
:10059000640F751F811D911D40E050E00E94051FF2
:1005A0002C0D3D1D4E1D5F1DBFBE29833A834B831D
:1005B0005C83BADFBFB6F894809100039091010389
:1005C000A0910203B091030329813A814B815C81A0
:1005D00079018A01E81AF90A0A0B1B0B1E141F0481
:1005E000100611060CF3BFBE2496E9E00C94561FCA
:1005F000DC01ED91FC9102A8F3A9E02D0995089585
:10060000A1E0B0E0E6E0F3E00C94411FDC01ED91E5
:10061000FC9102A8F3A9E02D41E050E0BE016F5F1C
:100620007F4F09958130910511F4898190E02196E1
:10063000E2E00C945D1FDC01ED91FC9106A8F7A9A6
:10064000E02D21E009950895DC01ED91FC9106A8CB
:10065000F7A9E02D20E0099508958FEF9FEF089509
:100660008FEF9FEF08958FEF9FEF08958FEF9FEF2C
:1006700008958FEF9FEF08958FEF9FEF08958FEF0D
:100680009FEF08958FEF9FEF08958FEF9FEF0895ED
:100690006115710591F0DC011296ED91FC911397B3
:1006A00071836083DB01ED91FC9104A0F5A1E02D45
:1006B000CB01099521E0892B09F020E0822F0895D4
:1006C000DC01ED91FC910084F185E02D0995089500
:1006D000FC01603119F461E970E009C0623019F47D
:1006E0006CE870E004C0683029F46FE870E0808145
:1006F0009181E6CF0895DC01ED91FC910680F781B0
:10070000E02D09950895DC01ED91FC910480F581BF
:10071000E02D0995089508958FEF9FEF0895EF92CA
:10072000FF920F931F93CF93DF937C01EB0100E0C7
:1007300010E0688179816115710581F0D701ED9133
:10074000FC914A815B81008CF18DE02DC7010995F8
:10075000009721F0080F191F2496EBCFC801CDB7E1
:10076000DEB7E6E00C94591FA0E0B0E0EAEBF3E05E
:100770000C943B1F7C016A01EB0100E010E00C15BA
:100780001D0571F0D701ED91FC910488F589E02DEC
:10079000C701099597FD04C089930F5F1F4FEFCFE5
:1007A000C801CDB7DEB7E8E00C94571FA0E0B0E079
:1007B000ECEDF3E00C943B1FEC017B016A018B0133
:1007C000F1E0CF1AD10851F1E881F9810488F58967
:1007D000E02DCE0109958F3F2FEF920779F48A81A2
:1007E0008823E1F0A1DEE881F9810488F589E02D14
:1007F000CE0109958F3FEFEF9E07A1F38D30910554
:1008000029F48B818230E1F28AE090E098012F5F39
:100810003F4FF801808389010A9791F6F801108211
:100820000E151F0519F480E090E001C0C701CDB797
:10083000DEB7E8E00C94571F8FEF9FEF08958FEF1E
:100840009FEF08958FEF9FEF0895EF92FF920F9320
:100850001F93CF93DF937C01EB0100E010E06881F0
:1008600079816115710581F0D701ED91FC914A8183
:100870005B810284F385E02DC7010995009721F083
:10088000080F191F2496EBCFC801CDB7DEB7E6E0FD
:100890000C94591FA0E0B0E0E0E5F4E00C943B1F9D
:1008A0008C017B016A01C0E0D0E0CC15DD0589F048
:1008B000F701EC0FFD1F6491F801A081B18114963E
:1008C000ED91FC911597C801099597FD02C02196FD
:1008D000ECCFCE01CDB7DEB7E8E00C94571FA0E017
:1008E000B0E0E5E7F4E00C943B1F7C016A01EB010A
:1008F00000E010E00C151D0571F06991D701ED9134
:10090000FC910480F581E02DC701099597FD03C096
:100910000F5F1F4FEFCFC801CDB7DEB7E8E00C94F3
:10092000571FA1E0B0E0E7E9F4E00C94411F6983B0
:10093000DC01ED91FC910284F385E02D41E050E073
:10094000BE016F5F7F4F09958130910511F4898158
:1009500090E02196E2E00C945D1F80E090E0089525
:1009600080E090E00895FC011782168215821482BF
:100970000895CF93DF93EC012C813D818E819F817F
:100980002817390711F0D0DDF7CF80E090E0DF9134
:10099000CF910895FC0124813581868197812817A4
:1009A000390769F0268137812F5F3F4F2F73332737
:1009B00037832683E20FF31F808590E008958FEF41
:1009C0009FEF0895DC0116962D913C91179740E01A
:1009D00050E0DC011496ED91FC9115972E173F071E
:1009E00071F04F5F5F4F2F5F3F4F2F733327FC0135
:1009F000E20FF31F70857613ECCFCA0108958FEFD5
:100A00009FEF0895DC0114962D913C911597169651
:100A10008D919C9117972817390761F01696ED91E3
:100A2000FC9117973196EF73FF27EA0FFB1F808524
:100A300090E008958FEF9FEF0895FC0124813581A8
:100A40002F5F3F4F2F733327468157812417350778
:100A500051F0DC01A20FB31F18966C9335832483E9
:100A6000862F90E008958FEF9FEF0895FC01268177
:100A7000378184819581215C3F4F281B390BC90147
:100A80008F7399270895FC01248135818681978190
:100A9000281B390BC9018F73992708951F93CF9392
:100AA000DF93EC01162F88859985DC01ED91FC918F
:100AB0000480F581E02D612F0995019611F434DD54
:100AC000F2CFEC81FD81918190629183812F90E042
:100AD000DF91CF911F910895DC011496ED91FC9167
:100AE000159781818776818381E008958F929F9207
:100AF000AF92BF92CF92DF92EF92FF921F93CF936C
:100B0000DF93EC014A015B01122F9A01AB01A3E0D4
:100B1000220F331F441F551FAA95D1F7C12CB4E2F1
:100B2000DB2EB4EFEB2EF12CC701B6010E94051F9E
:100B300021503109211580E1380780F0A501940189
:100B4000F4E0220F331F441F551FFA95D1F7C70158
:100B5000B6010E94051F2150310904C0EC81FD81BE
:100B600082E08083EC81FD81358324831283EC81D4
:100B7000FD8188E9818381E0DF91CF911F91FF9012
:100B8000EF90DF90CF90BF90AF909F908F9008959F
:100B90000895DC0116968D919C911797DC01ED91DB
:100BA000FC91068CF78DE02D09950895DC011896CF
:100BB0008D919C911997DC01ED91FC91048CF58D40
:100BC000E02D09950895DC0116968D919C9117975B
:100BD000DC01ED91FC910488F589E02D09950895DB
:100BE000DC0116968D919C911797DC01ED91FC919B
:100BF0000288F389E02D09950895DC0116968D9100
:100C00009C911797DC01ED91FC910088F189E02D12
:100C100009950895DC0118968D919C911997DC0136
:100C2000ED91FC910280F381E02D09950895DC019E
:100C300016968D919C911797DC01ED91FC91019096
:100C4000F081E02D09950895CF93DF93EC01EA81BF
:100C5000FB8180819181009751F0DC01ED91FC9145
:100C600002A0F3A1E02D09951C8281E001C080E083
:100C7000DF91CF9108950895089581E008954FB7C9
:100C8000F8945CB321E030E0FC01068002C0220F42
:100C9000331F0A94E2F7209525232CBB4FBF0895FC
:100CA0004FB7F8945DB321E030E0FC01068002C04C
:100CB000220F331F0A94E2F7209525232DBB4FBF47
:100CC00008956FB7F8947CB321E030E0A901FC01EE
:100CD000068002C0440F551F0A94E2F7409547234F
:100CE0004CBB4DB3068002C0220F331F0A94E2F7BB
:100CF000422B4DBB6FBF0895089581E0089508957C
:100D00000895089508950895CF93DF93EC012C8101
:100D10003D818E819F812817390711F005DCF7CFBF
:100D200080E090E0DF91CF910895FC01248135812E
:100D3000868197812817390761F0268137812F5FD7
:100D40003F4F337037832683E20FF31F808590E097
:100D500008958FEF9FEF0895DC0116962D913C9139
:100D6000179740E050E0DC011496ED91FC91159747
:100D70002E173F0769F04F5F5F4F2F5F3F4F337074
:100D8000FC01E20FF31F70857613EDCFCA010895C1
:100D90008FEF9FEF0895DC0114962D913C911597EC
:100DA00016968D919C9117972817390759F016962A
:100DB000ED91FC9117973196F370EA0FFB1F808538
:100DC00090E008958FEF9FEF0895FC012481358115
:100DD0002F5F3F4F3370468157812417350751F0FD
:100DE000DC01A20FB31F18966C9335832483862FE2
:100DF00090E008958FEF9FEF0895FC018681978121
:100E00002481358181509C4F821B930B93700895F0
:100E1000FC0117821682158214820895FC01248138
:100E2000358186819781281B390BC90193700895FC
:100E3000DC011796ED91FC91189781E0848B089561
:100E4000A2E2B0E0E6E2F7E00C943B1F8C016A01FD
:100E50007B012A3021F0622F2AA33ADC2AA130E05C
:100E6000AE014F5F5F4FC701B6010E94D11FBC01A9
:100E7000F801808191813FDCA296E8E00C94571F35
:100E8000A2E0B0E0E6E4F7E00C943F1F8C01CB0158
:100E900069837A830E949C1FD801ED91FC910484A0
:100EA000F585E02DAC0169817A81C801099522960A
:100EB000E4E00C945B1FDB010D900020E9F7AD012D
:100EC00041505109461B570BDC01ED91FC91028406
:100ED000F385E02D099508951F93CF93DF93EC01DF
:100EE0001FB7F89480917303882319F01FBF1CDB90
:100EF000F7CF81E080937303D0937203C0937103A3
:100F000089858CBD8A858DBDC0916F03D09170039A
:100F1000209779F08A819B81009739F0DC01ED916F
:100F2000FC910480F581E02D09950990D881C02DB0
:100F3000EFCF1FBFDF91CF911F9108951F93CF93E4
:100F4000DF931FB7F89410927303109272031092FC
:100F50007103C0916F03D0917003209779F08A815B
:100F60009B81009739F0DC01ED91FC910280F381C7
:100F7000E02D09950990D881C02DEFCF1FBFDF91DB
:100F8000CF911F910895FB0134962291DC012D939E
:100F9000CD01E617F707C9F70895FC0121912EBD91
:100FA000680F791FE617F70739F081910DB407FE36
:100FB000FDCF9EB58EBDF6CF0DB407FEFDCF8EB52D
:100FC00008952FEF2EBDFC019B014FEF21503109F9
:100FD00039F00DB407FEFDCF5EB54EBD5193F6CF8F
:100FE000FB013197E80FF91F0DB407FEFDCF8EB559
:100FF000808308950F931F938FB7F8940091FC029C
:101000001091FD022091FE023091FF0266B5A89B6F
:1010100002C06F3F91F48FBF70E080E090E042E04B
:10102000660F771F881F991F4A95D1F7600F711FB0
:10103000821F931F1F910F9108951C5F2F4F3F4FE9
:10104000EACF4F925F926F927F928F929F92AF9270
:10105000BF92CF92DF92EF92FF926B017C01CADFC9
:1010600028EE33E040E050E00E94051F49015A019C
:1010700058EE452E53E0552E612C712CBBDFA30199
:1010800092010E94051F281939094A095B092C158C
:101090003D054E055F0510F447DAF0CFFF90EF9065
:1010A000DF90CF90BF90AF909F908F907F906F9088
:1010B0005F904F900895A2E1B0E0E1E6F8E00C9473
:1010C0003D1F8C017B01442399F04A3021F0642FAD
:1010D0004A8BFEDA4A8950E0BE016F5F7F4FC7013D
:1010E0000E94A51FBC01F8018081918104DB12C020
:1010F000E4E075956795EA95E1F76F70605DFC0136
:101100008081918100DB6E2D6F70605DF8018081C0
:101110009181F9DA6296E6E00C94591FCF93DF9340
:10112000EC014A81C8DF8AE08A83CE01DF91CF914A
:101130000895CF93DF93EC012A8182DE8AE08A83CF
:10114000CE01DF91CF910895A2E1B0E0EAEAF8E0A4
:101150000C943D1F8C017B014A3021F0642F4A8B97
:10116000B7DA4A8950E0BE016F5F7F4FC7010E9426
:10117000FC1FBC01F80180819181BDDA6296E6E036
:101180000C94591FA2E2B0E0E8ECF8E00C94371F91
:1011900009A91AA9EBA9FCA97E0135E3E30EF11C0C
:1011A0005F013FEFA31AB30AE4916E2FEE2309F417
:1011B000A5C0E53209F09CC02AE091E0F5018491D8
:1011C000682F882309F494C0FFEFAF1ABF0A88364E
:1011D00009F43DC0F4F4823611F422E0EFCF8336F7
:1011E0009CF4823411F420E0E9CF833509F080C00B
:1011F0006701F2E0CF0ED11CF70160817181F80127
:10120000808191815DDA47C0833629F18436B9F156
:101210006FC0803759F144F48C3609F441C08F36E1
:1012200009F066C028E0CACF853799F0883779F091
:10123000833709F05DC06701F2E0CF0ED11CF701E2
:1012400060817181F8018081918155DA24C020E1AB
:10125000B5CF90E0B3CF670132E0C30ED11CF701E8
:101260006081F801808191814EDA15C06701F2E05A
:10127000CF0ED11CF7016081718140E10EC0A70142
:101280004E5F5F4F6A01F70160817181422F9923A0
:1012900021F0C80110DF76012FC0C80155DFFBCF58
:1012A000A7014C5F5F4F4A01F7019923C9F0C08045
:1012B000D180E280F3802A3029F0622FC8012AA36E
:1012C00007DA2AA130E0AE014F5F5F4FC701B601D8
:1012D0000E94B91FBC01F801808191810CDA06C01F
:1012E0004081518162817381C801AADD740104C00B
:1012F000F8018081918107DAF50152CFA296ECE0E6
:101300000C94531F7F936F939F938F9382E992E086
:101310009F938F9384E990E09F938F93C3E6D3E0EC
:10132000DF93CF932FDF88819981DC01ED91FC91D0
:101330000480F581E02D60916E0309958881998183
:10134000DC01ED91FC91048CF58DE02D099580E098
:1013500090E00E942F20DC011496ED91FC911597EE
:1013600021812F7B2183ED91FC9104A0F5A1E02D3B
:1013700009950895CF93DF93EC01AE81BF81EC8195
:10138000FD816681ED91FC9111970480F581E02D3E
:10139000CD010995DF91CF910895CF93DF93EC01B3
:1013A00088859985DC01ED91FC910488F589E02D13
:1013B0000995EC81FD818F3FBFEF9B0711F086837C
:1013C00008C081818F7D8183EC81FD818181806472
:1013D0008183DF91CF910895FC01683038F060314E
:1013E00040F0683148F486E290E008C080E290E086
:1013F00005C083E290E002C089E290E0918380839F
:10140000262F277081E090E001C0880F2A95EAF727
:10141000828363832FB7F894A081B18111968C9158
:1014200011979281892B11968C93A081B181928121
:1014300012968C911297411103C09095892301C097
:10144000892B12968C932FBF0895CF93DF93EC01D5
:1014500088819981DC01ED91FC910680F781E02D76
:101460000995CE01DF91CF910895CF93DF93EC01E1
:10147000A881B981ED91FC9111976D817E810084E5
:10148000F185E02DCD010995DF91CF910895CF939E
:10149000DF93EC01EADFCE01DF91CF910895DC010B
:1014A000ED91FC91048CF58DE02D09950895DC01FA
:1014B000ED91FC910084F185E02D09950895CF937D
:1014C000DF93EC0188819981F2DFCE01DF91CF912A
:1014D0000895AFE3B0E0EFE6FAE00C94311F4C0161
:1014E000CB015A0139011FAF0EAFF8014081518184
:1014F00062817381F9010081118122813381F501BB
:101500002080318042805380AA2797FDA095BA2F72
:1015100089839A83AB83BC8384E190E0A0E0B0E050
:101520008D839E83AF83B88789879A87AB87BC8773
:101530008D879E87AF87B88B898B9A8BAB8BBC8B43
:1015400081E090E0A0E0B0E0C114D104E104F10436
:1015500019F080E090E0DC018D8B9E8BAF8BB88F13
:10156000298E3A8E4B8E5C8E0D8F1E8F2F8F38A357
:1015700049A35AA36BA37CA31DA21EA21FA218A657
:10158000C9A6DAA6EBA6FCA62CE2AE014F5F5F4F20
:1015900068E070E1C4010E94D41597FD2FC021E1DD
:1015A000AE01435D5F4F68E070E1C4010E944E13DD
:1015B00097FD24C08DA581111FC08AA99BA9ACA944
:1015C000BDA9F50180839183A283B3838EA99FA9CE
:1015D000A8ADB9ADF30180839183A283B3838AADB3
:1015E0009BADACADBDADEEADFFAD80839183A2836D
:1015F000B3838EA59FA502C082EF9FEFEF96E2E135
:101600000C944D1FACE0B0E0E8E0FBE00C94391F17
:101610005C011D821E821F82188619821A821B821B
:101620001C82FC012589622F70E081E090E0A0E03F
:10163000B0E004C0880F991FAA1FBB1F2A95D2F7DC
:1016400089879A87AB87BC876F5F7F4F80E5C82EFD
:1016500083ECD82EE12CF12C8E010F5F1F4F9E01E1
:101660002B5F3F4FAE01475F5F4F8389948931DF26
:1016700097FD12C049855A856B857C85F5010588E3
:1016800004C076956795579547950A94D2F74170AF
:10169000552766277727CA012C96EAE00C94551F38
:1016A000A9E0B0E0E6E5FBE00C943D1F8C017B0176
:1016B00044E650E060E070E00E948714A7016627CE
:1016C00057FD6095762F4E835F836887798724E086
:1016D000AE014A5F5F4F6BE070E1C8010E94D41514
:1016E00097FD19C025E0AE014F5F5F4F6BE070E1E1
:1016F000C801D4D79C01263D8FEF380799F337FDF9
:1017000006C08981811105C08A819B8104C0C901FD
:1017100002C082EF9FEF2996E6E00C94591FFC016E
:10172000658970E083899489BBCFFC01658970E08D
:1017300083899489B5CFA5E1B0E0E1EAFBE00C94A0
:10174000371F8C017B015A01490148EE53E060E0EC
:1017500070E00E948714C701AA2797FDA095BA2FB1
:101760008A8B9B8BAC8BBD8B24E0AE014E5E5F4FB2
:1017700065E070E1C8010E94D41597FD43C021E1E6
:10178000AE014F5F5F4F65E070E1C80187D797FDFD
:1017900039C0CE80DF80E884F9848A819B81AC8166
:1017A000BD81B7FD2DC088E0C816D10448F5F80109
:1017B000E65EFE4F81E090E00C2C02C0880F991F7E
:1017C0000A94E2F720813181822B932B91838083CD
:1017D000BE01625F7F4FC501D6DB8C859D85F4011C
:1017E000918380832CE12C9DC0012D9D900D1124AF
:1017F000800F911FFC01E15BFF4FC082C60102C058
:1018000082EF9FEF6596ECE00C94531F9C01265EDF
:101810003F4FAC014A5E5F4FFC01658970E08389F0
:10182000948989CFA5E0B0E0E8E1FCE00C94331F97
:101830007C01562E6A01590148014EDBE09171038B
:10184000F09172038085823038F48FB7F894A481C8
:10185000B58196819C938FBF83E08EBD0DB407FE4A
:10186000FDCF8EB5823009F082C01EBC0DB407FEDC
:10187000FDCF8EB51EBC0DB407FEFDCF8EB51EBCD0
:101880000DB407FEFDCF6EB4712C762C66241EBC01
:101890000DB407FEFDCF8EB5682A85E06816710489
:1018A00008F46AC065E070E0CE0101968ADB8981A8
:1018B000823071F58A8185112BC08B81883141F589
:1018C0004C805D80E8E14E1A510882018414950431
:1018D00008F1C114D10429F068E170E0C60171DBA0
:1018E00008C088E11EBC0DB407FEFDCF9EB5815037
:1018F000C9F74114510419F0B201C50162DB8C81B2
:1019000080FF08C01EBC0DB407FEFDCF8EB502C01F
:101910000AEE1FEF17FF0FC0F5E06F1A710880E0A5
:1019200090E08615970539F01EBC0DB407FEFDCF7B
:101930002EB50196F6CFF701148AE0917103F0916C
:1019400072038FB7F894A481B58196819C938FBF61
:10195000E0917103F09172038085823080F08FB73F
:10196000F894A481B58196819C938FBF08C002EF43
:101970001FEF612C712CD3CF06ED1FEFD0CFDEDA35
:10198000C8012596E0E10C944F1FA1E3B0E0EBEC19
:10199000FCE00C94331F5C014A016B01EE24D7FC80
:1019A000E094FE2CCEA2DFA2E8A6F9A6C901A0E031
:1019B000B0E08AA79BA7ACA7BDA71EA61FA618AA22
:1019C00019AA2CE0AE014A5D5F4F64E070E1C501E9
:1019D0000E94D41513E02DE0AE01475E5F4F64E036
:1019E00070E1C5015BD6863D2FEF920729F41150B7
:1019F00091F786ED9FEF59C097FD57C08A8D9B8D5B
:101A0000AC8DBD8D8C159D05AE05BF0569F58E8D20
:101A10009F8DA8A1B9A1892B8A2B8B2B19F480E06B
:101A200090E043C0E7DA28EE33E040E050E00E9467
:101A3000051F69017A0128EE422E23E0522E612C07
:101A4000712CF5018489811112C0D4DAA3019201AD
:101A50000E94051F2C193D094E095F09283B3B4098
:101A600041055105F8F003C082EF9FEF1EC0F5015C
:101A700084898823A1F00E8D1F8D28A139A1F5013D
:101A80008489882361F29401AE014F5F5F4F65E85E
:101A9000C501C8DE863DFFEF9F0799F206C082ECC4
:101AA0009FEF03C00E949402CCCFE196E0E10C943A
:101AB0004F1FAAE2B4E0EFE5FDE00C94311FC45ED5
:101AC000DB4F188219821A821B82CC51D4404E01FE
:101AD0002CEE821A2BEF920AF401108211821282EC
:101AE00013825E01F8EEAF1AFBEFBF0AF501108218
:101AF00011821282138260910503709106039E0188
:101B0000205E3B4FAE01405F5B4F88E893E013DE01
:101B10001C0197FD31C46CE473E0809163039091E4
:101B20006403C5DCB10183E693E0F8DA67EA72E0AA
:101B30008CDCCE01805F9B4F0E940D17C05EDB4F97
:101B400008811981C052D4406AE473E08091630334
:101B500090916403ACDC40916503B80183E693E0A7
:101B6000F3DA8AE08093650383E693E07EDC412C20
:101B7000512C32014394022C04C0440C551C661CA9
:101B8000771C0A94D2F7C45EDB4F88819981AA81C1
:101B9000BB81CC51D44084299529A629B729C45E9C
:101BA000DB4F88839983AA83BB83CC51D440F50152
:101BB00080819181A281B38184299529A629B729A1
:101BC00080839183A283B3838091630390916403A4
:101BD00066DC10DACA5DDB4F688379838A839B8376
:101BE000C652D44091012F5F3F4FCC5DDB4F39830C
:101BF0002883C452D440F0EACF2EF6E8DF2EEE243C
:101C0000E394F12C85019401AE01445E5B4FCC5D01
:101C1000DB4F68817981C452D44088E893E059DC75
:101C20008C01CE5DDB4F19821882C252D44010164F
:101C300011060CF040C0C45EDB4F88819981AA81F7
:101C4000BB81CC51D44084219521A621B721892B79
:101C50008A2B8B2B81F120E430E0AE014F5F5F4F88
:101C6000B10188E893E091DE8C0197FD24C0CE5D40
:101C7000DB4F48815981C252D440480F591FCE5D75
:101C8000DB4F59834883C252D44078E8C72E73E1B2
:101C9000D72EE12CF12C85019401AE01445E5B4FFF
:101CA000CC5DDB4F68817981C452D44088E893E0F1
:101CB00010DC8C01BCCF9ED9CA5DDB4F28813981F5
:101CC0004A815B81C652D440621B730B840B950B17
:101CD00060936A0370936B0380936C0390936D031E
:101CE00062E670E083E693E019DA5C01FC01808132
:101CF00091810E9434176EE271E0C501A6DB40902D
:101D00006A0350906B0360906C0370906D0363E600
:101D1000A62E63E0B62E60E473E080916303909199
:101D20006403C5DB6AE273E080916303909164030E
:101D3000BEDBB301A201C501FCD966E273E080916C
:101D4000630390916403B3DBC5018FDB1B821C82AC
:101D50008EE091E09A8389831E821D8218861F82FD
:101D600021E030E02C0F3D1FC75FDB4F3983288314
:101D7000C950D4408AE0C55FDB4F8883CB50D44044
:101D800086E0C45FDB4F8883CC50D44084E0C35FDF
:101D9000DB4F8883CD50D4408AE594E0C25FDB4FAF
:101DA00099838883CE50D440CE5DDB4F48815981E2
:101DB000C252D440452B09F453C28EE291E09F9366
:101DC0008F931F9289E88F9381E193E09F938F9384
:101DD000BF92AF92D7D94AE0CE5DDB4F688179815F
:101DE000C252D440C50167D9C5013FDB809163036E
:101DF0009091640354DBFED84B015C0166E772E00E
:101E0000CE01875F9B4F5BDB2D813E818F81988563
:101E10004F815885281B390B3370475F5F4F81E036
:101E200090E08C0F9D1F480F591FB10188E893E087
:101E3000C0D52C018D819E812F813885821B930B0B
:101E400093700FB6F894DEBF0FBECDBF481659068B
:101E500029F067E572E080E990E080C018861F8273
:101E60001E821D826AE472E0C75FDB4F8881998120
:101E7000C950D4401CDB62E472E0CE01875F9B4F07
:101E80001EDB6AE372E0C75FDB4F88819981C9502E
:101E9000D4400DDBCE01875F9B4FE7DA65E372E04C
:101EA000C75FDB4F88819981C950D44000DBCE01E8
:101EB000875F9B4FDADA612C712C6FE272E0C75FAB
:101EC000DB4F88819981C950D440F1DAB301CE014A
:101ED000875F9B4F23D98C0169E272E0FC0180810E
:101EE0009181E5DAC801C1DAFFEF6F1A7F0A2EE0AF
:101EF0006216710411F763E272E0C75FDB4F8881FD
:101F00009981C950D440D3DACE01875F9B4FADDAB7
:101F10002D813E818F8198854F815885281B390BF3
:101F20003370475F5F4F81E090E08C0F9D1F480F3B
:101F3000591FB10188E893E03CD58C0197FD92C10F
:101F40008D819E812F813885821B930B937008179A
:101F5000190729F064E072E08EE990E0D3D9040D0E
:101F6000151D18861F821E821D826FEF71E0C75FEC
:101F7000DB4F88819981C950D44099DACE01875FBF
:101F80009B4F73DA4FED642E41E0742E442443944A
:101F9000512CF30124916DEA71E0CE01875F9B4FD4
:101FA000C65DDB4F2883CA52D44089DAC65DDB4F59
:101FB0002881CA52D440283038F0203140F02831EE
:101FC00048F4E6E2F0E008C0E0E2F0E005C0E3E259
:101FD000F0E002C0E9E2F0E030812770C201022E99
:101FE00001C0880F0A94EAF7382319F066EA71E015
:101FF00002C06DE971E0CE01875F9B4F60DA67E94F
:1020000071E0C75FDB4F88819981C950D4404FDAB6
:10201000CE01875F9B4F29DAFFEF6F1A7F0A2DEE03
:10202000621621E0720609F0B4CF61E971E0C75F82
:10203000DB4F88819981C950D44039DACE01875F5E
:102040009B4F13DA68E871E0C75FDB4F88819981A5
:10205000C950D4402CDA62E472E0CE01875F9B4F16
:102060002EDA62E472E0CE01875F9B4F28DA2D8181
:102070003E818F8198854F815885281B390B33709D
:10208000475F5F4F81E090E08C0F9D1F480F591F05
:10209000B10188E893E08DD4080F191F2D813E818E
:1020A0004F815885241B350B33708217930729F015
:1020B00069E671E082EB90E051CF18861F821E82A4
:1020C0001D826090B6027090B7029FEF691A790A7C
:1020D0007092B7026092B6026FE571E0C75FDB4FA6
:1020E00088819981C950D440E2D9C55FDB4F4881CE
:1020F000CB50D440B301CE01875F9B4F25D88AE0F7
:10210000C55FDB4F8883CB50D44062E472E0CE01E0
:10211000875F9B4FD4D98FB7F8944090F8025090C6
:10212000F9026090FA027090FB028FBF68E571E0DF
:10213000C75FDB4F88819981C950D440B8D9B301BA
:10214000A201CE01875F9B4F0E94990862E472E072
:10215000B6D967E471E0CE01875F9B4FB0D92D817E
:102160003E818F8198854F815885281B390B3370AC
:10217000475F5F4FE1E0F0E0EC0FFD1F4E0F5F1F88
:10218000B10188E893E015D42D813E814F815885B7
:10219000241B350B33708217930729F068E271E036
:1021A00089EB90E0DBCE080F191F0E94FA0768192F
:1021B00079098A099B0960936A0370936B03809382
:1021C0006C0390936D036DE870E083E693E00E94EA
:1021D0008E085C01FC018081918146D66EE271E03F
:1021E000C50133D980906A0390906B03A0906C0373
:1021F000B0906D0333E6632E33E0732E6EE171E031
:10220000809163039091640352D965E071E08091FD
:102210006303909164034BD9B501A401C3010E94EB
:10222000990861E071E080916303909164033FD964
:10223000C3011BD98EE291E09F938F931F928CEB89
:102240008F938CEE90E09F938F937F926F920E947A
:10225000C2084AE0B801C3010E945B08C3011BC069
:1022600017FF1FC08EE291E09F938F931F928FEB19
:102270008F9389ED90E09F938F9383E693E09F93F4
:102280008F930E94C2084AE0B80183E693E00E945F
:102290005B0883E693E0E9D80FB6F894DEBF0FBE83
:1022A000CDBF03E613E08091630390916403F7D8F8
:1022B0000E94FA072B013C01B10188E893E0F0D9B4
:1022C0005C010E94FA0764197509860997096093F1
:1022D0006A0370936B0380936C0390936D0360ECBF
:1022E00070E0C8010E948E084C01FC018081918140
:1022F000BBD56EE271E0C401A8D840906A0350904B
:102300006B0360906C0370906D036FEC70E08091D4
:10231000630390916403CBD866EB70E08091630314
:1023200090916403C4D8B301A201C8010E94990826
:1023300062EB70E08091630390916403B8D8C801A8
:1023400094D88EE291E09F938F931F9282EC8F93AB
:102350008FE990E09F938F931F930F930E94C20881
:102360004AE0B501C8010E945B08C8017ED80FB6DB
:10237000F894DEBF0FBECDBFC65DDB4FE2E10C942B
:102380004D1FFB019A01DC0155966C91559770E049
:10239000AF0153968D919C915497F7CAEF92FF929B
:1023A0000F931F93CF93DF93EC018B017A01E881A8
:1023B000F9810190F081E02D099597FD0AC0892BE4
:1023C00059F06D8970E09701A8018B899C89DDDA4D
:1023D00005C08FEF9FEF02C080E090E0CDB7DEB781
:1023E000E6E00C94591FA0E0B0E0E9EFF1E10C94B5
:1023F000331FEC016A017B01EA81FB8100811181BD
:102400000115110509F4CAC02091000330910103A0
:102410004091020350910303A0E1B0E00090040357
:1024200002C0AA0FBB1F0A94E2F70E94271F2B01CC
:102430003C018C8190E1892E912C811156C0D801EC
:10244000ED91FC9106A0F7A1E02DC80109955C0172
:10245000009721F1C114D104E104F10409F4A4C0EE
:102460002091000330910103409102035091030336
:10247000D4010090040302C0AA0FBB1F0A94E2F724
:102480000E94271F64197509860997096C157D0537
:102490008E059F0508F488C08EEF81C0E881F98120
:1024A0006A817B810680F781E02DCE010995882322
:1024B00009F45AC0E881F9816A817B810084F18541
:1024C000E02DCE010995D801ED91FC91048CF58D9C
:1024D000E02DC801099581E08C8363C0C114D1044B
:1024E000E104F10471F40E949402D801ED91FC9191
:1024F0000190F081E02DC80109955C01009771F30E
:102500001CC02091000330910103409102035091BF
:102510000303D4010090040302C0AA0FBB1F0A9456
:10252000E2F70E94271F64197509860997096C153F
:102530007D058E059F05B8F234C018161906A4F45F
:10254000E881F9816A817B810284F385E02DCE01E7
:102550000995D801ED91FC91048CF58DE02DC80111
:1025600009955C010097E9F0E881F9810484F5851B
:10257000E02DCE0109951C82D801ED91FC9106A4B5
:10258000F7A5E02DC8010995D801ED91FC9104A0B3
:10259000F5A1E02DC8010995C50109C08FEF9FEF96
:1025A00006C080E090E003C00E94940248CFCDB7FF
:1025B000DEB7E0E10C944F1F0F931F93CF93DF938F
:1025C0008C01EA01603180E87807C1F16115A8E863
:1025D0007A0729F06115714409F05BC022C0888137
:1025E000811157C049815A816B817C81D801129633
:1025F000ED91FC9113974830510508F04AC0E65E12
:10260000FE4F81E090E002C0880F991F4A95E2F7E3
:1026100080959095208131818223932391838083BB
:1026200038C08881811135C0D8011296ED91FC9196
:10263000139781AD9D81890F81AF2BC08881811156
:1026400028C0BA016F5F7F4FF8018281938187961E
:102650000E94C307BE016B5F7F4FD80112968D9118
:102660009C9113978B960E94C307BE01675F7F4FB3
:10267000F801828193818F960E94C307BE016F5E2D
:102680007F4FD80112968D919C911397C3960E940B
:10269000C307DF91CF911F910F910895ABE0B0E098
:1026A000E4E5F3E10C94311F5C017E836D83588770
:1026B0004F83122F0E94FA0728EE33E040E050E0EB
:1026C0000E94051F69017A01812F90E09A8789870E
:1026D00038EE232E33E0332E412C512CD501549665
:1026E0008C91811115C00E94FA07A20191010E94EC
:1026F000051F2C193D094E095F09F5018589968949
:10270000A0E0B0E0281739074A075B0708F4EDC0DE
:10271000F5018489882309F4E5C0D50154968C918C
:10272000882309F4B9C0C5010E946C07E0917103C8
:10273000F09172038085823038F48FB7F894A481C9
:10274000B58196819C938FBFB3E0BEBD0DB407FEEB
:10275000FDCF8EB5823009F0CBC01EBC0DB407FE94
:10276000FDCF8EB51EBC0DB407FEFDCF8EB51EBCD1
:102770000DB407FEFDCF6EB4712C762C66241EBC02
:102780000DB407FEFDCF8EB5682AE4E06E16710425
:1027900008F4B3C064E070E0CE0101960E94E10746
:1027A0008981843011F08230D1F42C812134B8F445
:1027B0008A809B80022F10E021700115110539F0ED
:1027C000B80188EB92E02B870E94E1072B8521114D
:1027D0000AC01EBC0DB407FEFDCF8EB504C0812C0F
:1027E000912C0AEE1FEF17FF11C0F4E06F1A710869
:1027F0006114710459F080E090E01EBC0DB407FE36
:10280000FDCF2EB5019686159705B9F7D5015496DB
:102810001C92E0917103F09172038FB7F894A48138
:10282000B58196819C938FBFE0917103F091720303
:102830008085823038F08FB7F894A481B581968175
:102840009C938FBF0E949E07063DBFEF1B0709F4B4
:1028500045CF17FF23C08CE491E09F938F931F9285
:102860008EE68F9384E593E09F938F9383E693E0C6
:102870009F938F930E94C2084AE0B80183E693E0D9
:102880000E945B0883E693E00E94350A0FB6F89435
:10289000DEBF0FBECDBF36C000E010E08D819E814F
:1028A0008815990569F4A985BA850A171B0741F4AB
:1028B000A80168EB72E08F8198850E94931F22C067
:1028C000F5018789908D009709F408CFDC01ED911F
:1028D000FC910190F081E02D980148EB52E0B401A9
:1028E0000995FCCE02EC1FEF0DC00E949402F6CEBB
:1028F00002EF1FEF612C712C02C006ED1FEF812C3F
:10290000912C76CFC8012B96E2E10C944D1F4F928B
:102910005F926F927F928F929F92AF92BF92CF926F
:10292000DF92EF92FF92CF93DF93EC016A017B017C
:102930000E94FA0728EE33E040E050E00E94051FB5
:1029400049015A0148EE442E43E0542E612C712C6B
:102950008C8981110FC00E94FA07A30192010E9485
:10296000051F281939094A095B092C153D054E0533
:102970005F0558F08C89882359F020E448EB52E039
:1029800060E070E0CE018ADEE3CF0E949402E0CFE7
:1029900080E090E0DF91CF91FF90EF90DF90CF90BB
:1029A000BF90AF909F908F907F906F905F904F906F
:1029B0000895AAE1B0E0EFEDF4E10C94311F8C0131
:1029C0001B014A017901F80181AD811106C040E087
:1029D00050E0BA01C8019BDFF6CF442437FC409495
:1029E000542C29823A824B825C828CE090E0A0E0F9
:1029F000B0E08D839E83AF83B887C701A0E0B0E0CD
:102A000089879A87AB87BC871D861E861F86188A92
:102A10003701F0E16F0E711C6301570125E1A20E31
:102A2000B11CC50181709927E1E08E27282F217004
:102A30002A8F222321F0570186E1A80EB11CC8017C
:102A40000E946C07E0917103F091720380858230DF
:102A500038F48FB7F894A481B58196819C938FBF89
:102A600081E08EBD0DB407FEFDCF8EB5823009F03A
:102A700046C0BEBC0DB407FEFDCF8EB5AEBC0DB4D6
:102A800007FEFDCF8EB51EBC0DB407FEFDCF8EB583
:102A90001EBC0DB407FEFDCF8EB582E08EBD0DB419
:102AA00007FEFDCF8EB581E88EBD0DB407FEFDCFCC
:102AB0008EB580E18EBD0DB407FEFDCF8EB56EBC28
:102AC0000DB407FEFDCF8EB57EBC0DB407FEFDCF65
:102AD0008EB560E170E0CE0101960E94CD07E11451
:102AE000F10421F0B701C4010E94CD072A8D2223F1
:102AF00051F01EBC0DB407FEFDCF8EB504C052EFE1
:102B0000C52EDD24DA94E0917103F09172038FB742
:102B1000F894A481B58196819C938FBFE091710355
:102B2000F09172038085823038F08FB7F894A481D9
:102B3000B58196819C938FBF0E949E07D7FC1AC0D7
:102B400029E0AE014F5E5F4F63E070E1C801A6DD92
:102B500097FD14C08A899B89AC89BD89821593052C
:102B6000A405B50549F4F80181AD815081AF8E8986
:102B70009F8904C0C60102C082EF9FEF6A96E2E11E
:102B80000C944D1FFB0121110CC0DC0155966C917A
:102B9000559770E09A01AF0153968D919C9154978F
:102BA00008CF8FEF9FEF0895AF92BF92DF92EF9221
:102BB000FF920F931F93CF93DF9300D01F92CDB757
:102BC000DEB77A01322F30953170432F4170D42E09
:102BD000A22EB12C85010C5F1F4F030F111D2983FD
:102BE0006A837B830E946C07E0917103F09172030A
:102BF000808529816A817B81823038F48FB7F8948F
:102C0000A481B58196819C938FBF81E08EBD0DB468
:102C100007FEFDCF8EB58230C9F51EBD0DB407FE8F
:102C2000FDCF8EB50EBD0DB407FEFDCF8EB51EBC1B
:102C30000DB407FEFDCF8EB51EBC0DB407FEFDCF53
:102C40008EB581E08EBD0DB407FEFDCF8EB56EBD95
:102C50000DB407FEFDCF8EB57EBD0DB407FEFDCFD2
:102C60008EB52EBD0DB407FEFDCF8EB5A114B104F7
:102C700021F0B501C7010E94CD07DD2029F01EBC5F
:102C80000DB407FEFDCF8EB5C50102C082EF9FEFE8
:102C9000E0917103F09172032FB7F894A481B5818C
:102CA00036813C932FBFE0917103F0917203208530
:102CB000223038F02FB7F894A481B58136813C9347
:102CC0002FBF89839A830E949E0789819A810F90E2
:102CD0000F900F90DF91CF911F910F91FF90EF9088
:102CE000DF90BF90AF900895A9E1B0E0EAE7F6E188
:102CF0000C943F1FFC0103891489858990E0A0E0B2
:102D0000B0E089839A83AB83BC8388E090E0A0E045
:102D1000B0E08D839E83AF83B88789879A87AB871E
:102D2000BC8782E090E09E878D87042E452F502D32
:102D3000588B4F87FB0180819181A281B381898B60
:102D40009A8BAB8BBC8B24E1AE014F5F5F4F67E08A
:102D500070E1C80129DF97FD29C025E0AE014B5E77
:102D60005F4F67E070E1C80199DC97FD1FC08D8956
:102D700081111AC04E895F89688D798D483051055F
:102D800098F4F801E65EFE4F81E090E0042E02C068
:102D9000880F991F0A94E2F720813181822B932BAF
:102DA00091838083CA0102C082EF9FEF6996E4E0BD
:102DB0000C945B1FADE0B0E0E0EEF6E10C943F1F39
:102DC0008C01AB01662757FD6095762F49835A83A6
:102DD0006B837C831D821E821F82188628E0AE01D1
:102DE0004F5F5F4F66E070E1DFDE97FD0CC025E0CE
:102DF000AE01475F5F4F66E070E1C8014FDC97FDB1
:102E000002C08A859B852D96E4E00C945B1FFC0133
:102E1000658970E083899489CDCF0F931F93CF93F9
:102E2000DF93EC01699170E083E693E00E948E08E5
:102E300011E009918091630390916403DC01ED91AD
:102E4000FC910480F581E02D6EE20995602F70E021
:102E500083E693E00E948E081F5F143051F7DF91E4
:102E6000CF911F910F910895DC01ED91FC910480A9
:102E7000F581E02D6AE3099508951F920F920FB630
:102E80000F9211240BB60F922F933F934F935F93A2
:102E90006F937F938F939F93AF93BF93EF93FF9322
:102EA0008091000390910103A0910203B09103036C
:102EB0000196A11DB11D8093000390930103A0937F
:102EC0000203B0930303E0910E03F0910F033097D8
:102ED00029F080910C0390910D030995FF91EF91DA
:102EE000BF91AF919F918F917F916F915F914F9122
:102EF0003F912F910F900BBE0F900FBE0F901F9020
:102F000018951F920F920FB60F9211240F900FBEBB
:102F10000F901F9018951F920F920FB60F921124C9
:102F20002F938F939F93AF93BF938091FC029091C7
:102F3000FD02A091FE02B091FF029C5FAF4FBF4F18
:102F40008093FC029093FD02A093FE02B093FF02D7
:102F50008091090390910A038115944034F0809187
:102F6000090390910A03945024C080910703909123
:102F700008038F3C934011F5109208031092070349
:102F80008091F8029091F902A091FA02B091FB02AF
:102F90000196A11DB11D8093F8029093F902A093B0
:102FA000FA02B093FB028091090390910A03805CBE
:102FB0009D4F90930A038093090309C080910703F2
:102FC0009091080301969093080380930703BF91A3
:102FD000AF919F918F912F910F900FBE0F901F90E7
:102FE00018951F920F920FB60F9211240BB60F92E5
:102FF0002F933F934F935F936F937F938F939F9301
:10300000AF93BF93EF93FF938091760390917703F3
:10301000009711F00E94AB09FF91EF91BF91AF9122
:103020009F918F917F916F915F914F913F912F91E0
:103030000F900BBE0F900FBE0F901F9018951F9210
:103040000F920FB60F9211240BB60F922F933F934E
:103050004F935F936F937F938F939F93AF93BF93A0
:10306000EF93FF938091760390917703009711F08F
:103070000E94BA09FF91EF91BF91AF919F918F91FB
:103080007F916F915F914F913F912F910F900BBE68
:103090000F900FBE0F901F9018951F920F920FB6B2
:1030A0000F9211240BB60F922F933F934F935F9380
:1030B0006F937F938F939F93AF93BF93EF93FF9300
:1030C0008091760390917703009711F00E94CD09CB
:1030D000FF91EF91BF91AF919F918F917F916F91F0
:1030E0005F914F913F912F910F900BBE0F900FBEAC
:1030F0000F901F9018951F920F920FB60F921124E8
:103100000BB60F922F933F934F935F936F937F93E1
:103110008F939F93AF93BF93EF93FF93809174032B
:1031200090917503009711F00E94AB09FF91EF9108
:10313000BF91AF919F918F917F916F915F914F91CF
:103140003F912F910F900BBE0F900FBE0F901F90CD
:1031500018951F920F920FB60F9211240BB60F9273
:103160002F933F934F935F936F937F938F939F938F
:10317000AF93BF93EF93FF93809174039091750386
:10318000009711F00E94BA09FF91EF91BF91AF91A2
:103190009F918F917F916F915F914F913F912F916F
:1031A0000F900BBE0F900FBE0F901F9018951F929F
:1031B0000F920FB60F9211240BB60F922F933F93DD
:1031C0004F935F936F937F938F939F93AF93BF932F
:1031D000EF93FF938091740390917503009711F022
:1031E0000E94CD09FF91EF91BF91AF919F918F9177
:1031F0007F916F915F914F913F912F910F900BBEF7
:103200000F900FBE0F901F9018951F920F920FB640
:103210000F9211240BB60F922F933F934F935F930E
:103220006F937F938F939F93AF93BF93EF93FF938E
:103230008091860390918703009749F0DC01ED911E
:10324000FC910190F081E02D60E070E00995FF9124
:10325000EF91BF91AF919F918F917F916F915F910E
:103260004F913F912F910F900BBE0F900FBE0F907B
:103270001F9018951F920F920FB60F9211240BB644
:103280000F922F933F934F935F936F937F938F93FF
:103290009F93AF93BF93EF93FF938091840390919B
:1032A0008503009749F0DC01ED91FC910190F081DC
:1032B000E02D60E070E00995FF91EF91BF91AF9133
:1032C0009F918F917F916F915F914F913F912F913E
:1032D0000F900BBE0F900FBE0F901F9018951F926E
:1032E0000F920FB60F9211240BB60F922F933F93AC
:1032F0004F935F936F937F938F939F93AF93BF93FE
:10330000EF93FF938091820390918303009749F09C
:10331000DC01ED91FC910190F081E02D60E070E026
:103320000995FF91EF91BF91AF919F918F917F91FF
:103330006F915F914F913F912F910F900BBE0F9026
:103340000FBE0F901F901895A8E3B0E0E9EAF9E1ED
:1033500092C580917A00876080937A0080E880BF70
:103360001092C10041E063E1CE01C5960E94EC09D4
:1033700041E064E1CE01C1960E94EC0941E062E1C6
:10338000CE018D960E94EC0941E065E1CE0189965F
:103390000E94EC0941E068E0CE0185960E94EC09AC
:1033A00040E069E0CE0149960E94EC0940E06EE100
:1033B000CE0101960E94EC0978942EE040E051EE97
:1033C00060E070E088E793E00E94760588E793E08C
:1033D0009093640380936303E0917803F091790301
:1033E0000084F185E02D60E474E0099583E693E0C4
:1033F0000E94350A9FB7F894A89584B7877F84BF49
:1034000088E18093600080E4809360009FBF109209
:103410000F0310920E0310920D0310920C031092E2
:10342000040381E080930B038CEA92E09093010106
:103430008093000180911003811112C09FB7F8940E
:1034400083E085BD81E080936E0016BC15BA9FBFF6
:103450008093100381E298E0909301018093000132
:1034600088E893E190939E0380939D03E0919503F8
:10347000F09196039091970380818923E9F39FB798
:10348000F894E091A103F091A20382812091A3031B
:10349000822B82839FBFE0919503F09196039091D8
:1034A000970380818923E9F7E0919303F0919403D6
:1034B0000280F381E02D83E993E0099588E893E0A9
:1034C0000E946C07E0917103F09172038085823055
:1034D00038F48FB7F894A481B58196819C938FBFFF
:1034E00088EC90E00197F1F781E08EBD0DB407FE06
:1034F000FDCF8EB51EBC0DB407FEFDCF8EB585E0A9
:103500008EBD0DB407FEFDCF8EB51EBC0DB407FEFB
:10351000FDCF8EB588EC90E00197F1F71EBC0DB49D
:1035200007FEFDCF8EB581E08EBD0DB407FEFDCF49
:103530008EB51EBC0DB407FEFDCF8EB580E48EBDEA
:103540000DB407FEFDCF8EB581E08EBD0DB407FE34
:10355000FDCF8EB51EBC0DB407FEFDCF8EB5E0913C
:103560007103F09172038FB7F894A481B5819681AD
:103570009C938FBFE0917103F0917203808582303C
:1035800038F08FB7F894A481B58196819C938FBF52
:103590000E949E07E0910001F091010168EE73E046
:1035A00080E090E0099521E0AE014F5F5F4F60E061
:1035B00070E488E893E072D897FD04C08981992768
:1035C00087FD909597FD24C120E040E050E06BE03E
:1035D00070E488E893E0E8DA97FD18C024E0AE01D3
:1035E0004F5F5F4F6BE070E488E893E057D897FD3A
:1035F0000DC08A818093C1038B819C819093C0030D
:103600008093BF038981992787FD909597FD00C11D
:1036100021E0AE01475D5F4F61E070E888E893E02C
:103620003DD81816190674F589A581112BC025E11E
:10363000AE014F5F5F4F60E170E888E893E02ED8FD
:1036400018161906FCF4898181111CC0BE016E5F39
:103650007F4F8FEA93E00E94C307BE016A5F7F4FEE
:1036600083EB93E00E94C307BE01665F7F4F87EB49
:1036700093E00E94C307BE016E5E7F4F8BEB93E029
:103680000E94C30786E090E0A0E0B0E0898F9A8FA7
:10369000AB8FBC8F8D8F9E8FAF8FB8A319A21AA24C
:1036A0001BA21CA22CE0AE01475E5F4F61E072E0FE
:1036B00088E893E079DA97FD47C021E0AE014B5DE1
:1036C0005F4F61E072E088E893E00E944E1397FD3F
:1036D0003BC0E0910001F09101016AE070E080E000
:1036E00090E0099580919C03882379F006E010E032
:1036F00029EA33E0AE014F5F5F4F61E988E893E06C
:103700000E94120C97FF03C01FC080E090E0498127
:103710005A816B817C81463051056105710519F034
:1037200082EF9FEF11C04D815E816F8178854630B9
:10373000510561057105A1F749855A856B857C8521
:10374000452B462B472B61F797FD62C08CE291E039
:1037500090939E0380939D038091AF039091B0035B
:10376000A091B103B091B2038DA39EA3AFA3B8A75C
:103770008091B3039091B403A091B503B091B603C7
:1037800089A79AA7ABA7BCA768EA72E083E693E093
:103790000E94250ACE01859640DB6CEA72E083E642
:1037A00093E00E94250ACE01899637DB83E693E0F9
:1037B0000E94350A80916303909164030E944F0A2E
:1037C0000E94FA076B017C0182E090E0A0E0B0E08B
:1037D00089839A83AB83BC8381E090E0A0E0B0E072
:1037E0008D839E83AF83B88786E090E0A0E0B0E051
:1037F00089879A87AB87BC872CE0AE014F5F5F4F0C
:1038000061E070E188E893E0CFD997FF06C017C068
:1038100062E174E084E390E06DC025E0AE01475EB4
:103820005F4F61E070E188E893E00E944E1397FDDE
:1038300006C0898D811106C02A8D8B8D05C0282F69
:10384000892F02C022EF8FEF209305038093060398
:103850000E94FA076C197D098E099F0960936A031B
:1038600070936B0380936C0390936D036FE370E030
:1038700083E693E00E948E087C01FC0180819181A7
:10388000F3DA65E771E0C7010E94250AC0906A0378
:10389000D0906B03E0906C03F0906D0368E074E0EF
:1038A00080916303909164030E94570A67EF73E06D
:1038B00080916303909164030E94570AB701A601A7
:1038C00083E693E00E94990863EF73E080916303BD
:1038D000909164030E94570A83E693E00E94350AA0
:1038E0008091050390910603892B31F060EE73E01F
:1038F00081E490E00E9482098091630390916403C7
:103900000E944F0A0E94FA076B017C018091050317
:1039100090910603AA2797FDA095BA2F89839A83D1
:10392000AB83BC8388E090E0A0E0B0E08D839E8311
:10393000AF83B88789879A87AB87BC8782E090E09E
:103940009E878D8780E590E0082E892F902D988B9B
:103950008F87198A1A8A1B8A1C8A24E1AE014F5F5D
:103960005F4F62E070E188E893E01ED997FD0EC0DA
:1039700025E0AE01475E5F4F62E070E188E893E0CA
:103980000E944E1397FD02C08A8D9B8D892B09F0F2
:10399000A5C00E94FA076C197D098E099F096093E2
:1039A0006A0370936B0380936C0390936D0363E4DD
:1039B00070E083E693E00E948E087C01FC01808128
:1039C000918152DA65E771E0C7010E94250AC09033
:1039D0006A03D0906B03E0906C03F0906D0364EB8E
:1039E00073E080916303909164030E94570A66EA32
:1039F00073E080916303909164030E94570AB701BA
:103A0000A60183E693E00E94990862EA73E0809140
:103A10006303909164030E94570A83E693E00E9437
:103A2000350A80916303909164030E944F0A0E94BB
:103A3000FA076B017C01609105037091060388E829
:103A400093E0B8D9892B09F04EC00E94FA076C198F
:103A50007D098E099F0960936A0370936B038093BD
:103A60006C0390936D0366E470E083E693E00E943C
:103A70008E087C01FC0180819181F6D965E771E0B7
:103A8000C7010E94250AC0906A03D0906B03E090A2
:103A90006C03F0906D0368E773E08091630390918D
:103AA00064030E94570A6BE673E080916303909170
:103AB00064030E94570AB701A60183E693E00E94BF
:103AC000990867E673E080916303909164030E9414
:103AD000570A83E693E00E94350A0AC06EEB73E052
:103AE00084E490E007CF62E873E087E490E002CFDF
:103AF0000E94590DFDCFCF93DF93109211031092C6
:103B00001203E3E1F3E01082128211821482138225
:103B1000359633E0E336F307B1F72091A4043091F2
:103B2000A5044091A6045091A7046091A804709147
:103B3000A9048091AA049091AB04A1E0CDD1209377
:103B4000A4043093A5044093A6045093A704609363
:103B5000A8047093A9048093AA049093AB04C8D1DD
:103B6000B1F410926403109263038AE080936503BA
:103B700086E08093660384E0809367038AE594E09F
:103B800090936903809368038DE180936E03209185
:103B9000AC043091AD044091AE045091AF046091FB
:103BA000B0047091B1048091B2049091B304A1E08B
:103BB00093D12093AC043093AD044093AE04509362
:103BC000AF046093B0047093B1048093B2049093F7
:103BD000B3048ED1A9F41092700310926F03109267
:103BE000720310927103109273039FB7F89484B11B
:103BF000806B84B9269885B18F7585B92E9A9FBF41
:103C0000109206051092070580EB91E09093050550
:103C100080930405109209051092080510920B0577
:103C200010920A051092BE041092BF049093BD0436
:103C30008093BC041092C1041092C0041092C3047B
:103C40001092C2042091B4043091B5044091B6049E
:103C50005091B7046091B8047091B9048091BA048E
:103C60009091BB04A1E038D12093B4043093B50403
:103C70004093B6045093B7046093B8047093B904AA
:103C80008093BA049093BB0433D111F510927A0358
:103C900010927B0386E891E09093790380937803F8
:103CA00080EC90E090937D0380937C0384E095E02A
:103CB00090937F0380937E038CEB94E09093810339
:103CC0008093800388E793E0909375038093740357
:103CD000109289031092880383E993E090938B03F9
:103CE00080938A0341E068E08CE893E00E94EC094D
:103CF0001092900384E5809391031092920340E028
:103D00006AE085E993E00E94EC099FB7F894E0919E
:103D10009503F0919603828120919703822B8283F1
:103D20009FBF9FB7F894C8E8D3E0E0919503F09166
:103D300096032181809197038095822381839FBF81
:103D400084ED91E0909394038093930382E08093B9
:103D50009903809169008F7C80628093690083E978
:103D600093E0909387038093860380EE91E0909395
:103D7000940380939303D0939B03C0939A03109270
:103D80009C0388EB9BE090939E0380939D0310928D
:103D9000A00310929F0340E069E081EA93E00E9453
:103DA000EC0980E992E09093A6038093A503D09359
:103DB000A803C093A703E2ECF3E0A2EDB3E02CE08C
:103DC00080E592E0ED012E971882219618821C92D0
:103DD000AF014C5F5F4FEA01322F19923A95E9F734
:103DE000918380837C965C96C4E0E23AFC0751F7AD
:103DF0001092A3041092A20485EA93E09093A0038A
:103E000080939F03DF91CF910895A1E21A2EAA1B00
:103E1000BB1BFD010DC0AA1FBB1FEE1FFF1FA2177A
:103E2000B307E407F50720F0A21BB30BE40BF50B77
:103E3000661F771F881F991F1A9469F76095709500
:103E4000809590959B01AC01BD01CF0108955CD098
:103E5000A59F900DB49F900DA49F800D911D1124DE
:103E600008952F923F924F925F926F927F928F921E
:103E70009F92AF92BF92CF92DF92EF92FF920F93F9
:103E80001F93CF93DF93CDB7DEB7CA1BDB0B0FB603
:103E9000F894DEBF0FBECDBF09942A8839884888C0
:103EA0005F846E847D848C849B84AA84B984C88456
:103EB000DF80EE80FD800C811B81AA81B981CE0F4D
:103EC000D11D0FB6F894DEBF0FBECDBFED01089532
:103ED0000790F691E02D09940024A7FD00942A0F85
:103EE000301D401D501D601D701D801D901D0895CA
:103EF0000024A7FD00942A173005400550056005F1
:103F00007005800590050895A29FB001B39FC00180
:103F1000A39F700D811D1124911DB29F700D811DF5
:103F20001124911D0895FB01DC0102C001900D9246
:103F300041505040D8F70895FC0105900020E9F762
:103F4000809590958E0F9F1F08954532510518F466
:103F5000423008F004C0FB011082CB010895BB275A
:103F60004A3031F4992322F4BDE2909581959F4F18
:103F70004EC02532310518F4223008F004C0FA0191
:103F80001082CA010895BB272A3051F4992342F4C4
:103F9000BDE290958095709561957F4F8F4F9F4FB3
:103FA0000BC02532310518F4223008F004C0FA01A4
:103FB0001082CA010895BB27FA01A62F6217710566
:103FC00081059105330B30FB66F0AA27660F771F3A
:103FD000881F991FAA1FA21710F0A21B63953850C3
:103FE000A9F7A05DAA3308F0A95DA19336F7B11136
:103FF000B1931082CA0123C04532510518F44230F2
:1040000008F004C0FB011082CB010895BB27FB011F
:104010005527AA27880F991FAA1FA41710F0A41BC1
:1040200083955051B9F7A05DAA3308F0A95DA1931B
:10403000009779F7B111B1931192CB0100C0DC0167
:10404000FC01672F71917723E1F7329704C07C91CF
:104050006D9370836291AE17BF07C8F30895F8940B
:02406000FFCF90
:10406200A00200004C0580009402000000000E0730
:10407200FD06E5065B0740076F044A042504CB06EC
:10408200AC069506D603B4038F0384060807766F41
:104092006964206C6F6F70282900000000004803DB
:1040A200F31124063D063C069F023B06696E74200E
:1040B2004843493A3A61776169742875696E743187
:1040C200365F742C20766F69642A2C2075696E74B1
:1040D200385F742900766F6964207365747570287F
:1040E20029000000000017060A064E055B0740077C
:1040F2006F044A042504FD05F005E305D603B40365
:104102008F03D605C90576056C05C80500000000B9
:10411200430536051D055B0740076F044A04250465
:104122000205E204CA04D603B4038F03B904B3043C
:10413200000000007C06610650063F0600000000F9
:104142001807610650063F0600000000B004AD04E7
:1041520091045B07400724031B03250422041F0468
:104162000003D603F8028F038C038B039F029F0286
:104172009F029F029F029F029F029F029F029F0235
:104182009F029F029F029F0200000000B004AD0444
:1041920091045B0740076F044A04250422041F04AC
:1041A2001C04D603B4038F038C038B0300000000AE
:1041B200020B450391045B07400724031B032504FC
:1041C20022041F040003D603CE118F0342038B0384
:1041D2003F03950B0717060C74163C0339038F0B2C
:1041E2003603C11133033003C2152D030000000052
:1041F200DC12436F73614343333030307365727640
:1042020065722E696E6F002C49503D002C53554249
:064212004E45543D000082
:00000001FF
