:100000006DC100000C94BA0D0C94850D0C94500D2C
:1000100094C1000092C1000090C100008EC1000098
:100020000C948E0B8AC1000088C1000086C10000BC
:1000300084C1000082C1000080C100007EC10000B8
:100040007CC100007AC100000C94DC0B0C94D20B34
:100050000C94F60C0C94230D0C94C90C6EC100008A
:100060006CC100006AC1000068C1000066C10000E8
:100070000C946F0C0C949C0C0C94420C5EC1000010
:100080005CC100005AC1000058C1000025643A2537
:10009000733A696E666F3A4D414320616E64204E3B
:1000A0006574776F726B20616464726573736573D6
:1000B0003A0D0A0025643A25733A74726163653A11
:1000C0005041434B4147455F4255494C445F4E5276
:1000D000203D200025643A25733A74726163653AC5
:1000E0005041434B4147455F4944203D2000207526
:1000F00073005265616420736F6674776172652066
:100100007061636B61676520696E666F726D6174A3
:10011000696F6E3A003A6D6561737572653A0020D9
:100120007573005374617274204343333030303A36
:10013000003A6D6561737572653A0061737365723B
:10014000743A776966692E626567696E5F502850F8
:100150005354522822436F73614343333330306921
:100160006E666F22292900436F7361434333303039
:1001700030696E666F3A207374617274656400242E
:10018000000000A00F000014000000640000000543
:10019000000000FF1F000088FFFFFF000000002C90
:1001A000010000D0070000D0070000D0070000D0F9
:1001B000070000D0070000D0070000D0070000D0E3
:1001C000070000D0070000D0070000D0070000D0D3
:1001D000070000D0070000D0070000D0070000D0C3
:1001E00007000020757300476574207363616E20FB
:1001F000726573756C74733A003A6D6561737572EC
:10020000653A002C776C616E5F7365637572697413
:10021000793D002C727373693D00737369643D000E
:1002200025643A25733A696E666F3A57616974209E
:10023000666F72207363616E20726573756C747380
:100240002028313020736563290D0A002075730062
:1002500052657175657374207363616E20666F7289
:1002600020617661696C61626C65206163636573AE
:100270007320706F696E74733A003A6D65617375BF
:1002800072653A006173736572743A776966692EB4
:10029000776C616E5F696F63746C5F7365745F73B5
:1002A00063616E706172616D2829203D3D203000D0
:1002B00025733A25643A25530D0A0025643A2573BF
:1002C0003A74726163653A726573203D2000306252
:1002D0000030003078000D0A0000951811241FBE70
:1002E000CFEFD0E4DEBFCDBF12E0A0E0B1E0E0E9A7
:1002F000F6E300E00BBF02C007900D92A23AB107EF
:10030000D9F725E0A2EAB2E001C01D92A633B207F8
:10031000E1F712E0CCEDD2E000E006C0229701093F
:10032000FE010BBF0E948E1ACA3DD10780E008076C
:10033000A9F70E94C4130C94461B62CEA0E0B0E063
:10034000E4EAF1E00C94591AEC016A017B01EA81BC
:10035000FB81008111810115110509F4C9C02091AB
:10036000EF023091F0024091F1025091F202A0E1CF
:10037000B0E00090A20202C0AA0FBB1F0A94E2F7ED
:100380000E944D1A2B013C018C8190E1892E912C09
:10039000811155C0D801ED91FC9106A0F7A1E02D87
:1003A000C80109955C01009721F1C114D104E10451
:1003B000F10409F4A3C02091EF023091F0024091C2
:1003C000F1025091F202D4010090A20202C0AA0FE1
:1003D000BB1F0A94E2F70E944D1A64197509860939
:1003E00097096C157D058E059F0508F487C08EEF73
:1003F00080C0E881F9816A817B810680F781E02DE8
:10040000CE010995882309F459C0E881F9816A81F0
:100410007B810084F185E02DCE010995D801ED9115
:10042000FC91048CF58DE02DC801099581E08C8349
:1004300062C0C114D104E104F10469F49AD0D80176
:10044000ED91FC910190F081E02DC80109955C01CE
:10045000009779F31CC02091EF023091F002409197
:10046000F1025091F202D4010090A20202C0AA0F40
:10047000BB1F0A94E2F70E944D1A64197509860998
:1004800097096C157D058E059F05C0F234C01816BE
:100490001906A4F4E881F9816A817B810284F385DD
:1004A000E02DCE010995D801ED91FC91048CF58DDC
:1004B000E02DC80109955C010097E9F0E881F98118
:1004C0000484F585E02DCE0109951C82D801ED91BB
:1004D000FC9106A4F7A5E02DC8010995D801ED917E
:1004E000FC9104A0F5A1E02DC8010995C50108C043
:1004F0008FEF9FEF05C080E090E002C03AD04ACF76
:10050000CDB7DEB7E0E10C94751AFC0185A196A188
:10051000009771F120A531E0320F30A7DC01A20F66
:10052000B11D6C9380A597A1891322C090E09F0113
:100530002E5F3F4F5FB7F8944091FB024F5F4F70C3
:100540006091FC02461791F065E0469FD0011124AE
:10055000A350BD4F6EE06C9312963C932E9311976F
:1005600014969C938E9313974093FB025FBF10A643
:10057000089583B7817F83BF83B7816083BF8895E8
:1005800083B78E7F83BF089508959C01A8EEB3E0E2
:100590000E943E1AE0910001F09101010995089531
:1005A00020EA3FE0615071098109910920F0F901C9
:1005B0003197F1F7F7CF0895A4E0B0E0E2EEF2E072
:1005C0000C94601A20E130E00090A20202C0220FD9
:1005D000331F0A94E2F7BFB6F894C090EF02D090B0
:1005E000F002E090F102F090F202A90156954795D1
:1005F000640F751F811D911D40E050E00E941C1A80
:100600002C0D3D1D4E1D5F1DBFBE29833A834B83BC
:100610005C83AFDFBFB6F8948091EF029091F00257
:10062000A091F102B091F20229813A814B815C8163
:1006300079018A01E81AF90A0A0B1B0B1E141F0420
:10064000100611060CF3BFBE2496E9E00C947C1A48
:10065000DC01ED91FC9102A8F3A9E02D0995089524
:10066000A1E0B0E0E6E3F3E00C94671ADC01ED9161
:10067000FC9102A8F3A9E02D41E050E0BE016F5FBC
:100680007F4F09958130910511F4898190E0219681
:10069000E2E00C94831ADC01ED91FC9106A8F7A925
:1006A000E02D21E009950895DC01ED91FC9106A86B
:1006B000F7A9E02D20E0099508958FEF9FEF0895A9
:1006C0008FEF9FEF08958FEF9FEF08958FEF9FEFCC
:1006D00008958FEF9FEF08958FEF9FEF08958FEFAD
:1006E0009FEF08958FEF9FEF08958FEF9FEF08958D
:1006F000DC01ED91FC910480F581E02D6AE3099520
:1007000008951F93CF93DF93EC011FB7F894809166
:100710005D03882319F01FBF2CDFF7CF81E08093A2
:100720005D03D0935C03C0935B0389858CBD8A8590
:100730008DBDC0915903D0915A03209779F08A81D9
:100740009B81009739F0DC01ED91FC910480F581EB
:10075000E02D09950990D881C02DEFCF1FBFDF9103
:10076000CF911F9108951F93CF93DF931FB7F894F4
:1007700010925D0310925C0310925B03C0915903C9
:10078000D0915A03209779F08A819B81009739F0A4
:10079000DC01ED91FC910280F381E02D0995099037
:1007A000D881C02DEFCF1FBFDF91CF911F9108954A
:1007B0007F936F939F938F938EE892E09F938F9395
:1007C00080EB92E09F938F93CDE4D3E0DF93CF93C0
:1007D0000E944A1288819981DC01ED91FC9104808C
:1007E000F581E02D60915803099588819981DC019C
:1007F000ED91FC91048CF58DE02D099580E090E061
:100800000E94461B0F931F93CF93DF93EC016991D6
:1008100070E08DE493E00E94011213E009916EE212
:1008200080914D0390914E030E944913602F70E018
:100830008DE493E00E940112115081F7DF91CF9176
:100840001F910F910895FB0134962291DC012D93A5
:10085000CD01E617F707C9F708950F931F93CF93BC
:10086000DF938C01EA01603180E87807C1F16115FE
:10087000A8E87A0729F06115714409F057C022C031
:100880008881811153C049815A816B817C81D80153
:100890001296ED91FC9113974830510508F046C02F
:1008A000E65EFE4F81E090E002C0880F991F4A95F6
:1008B000E2F7809590952081318182239323918363
:1008C000808334C08881811131C0D8011296ED91A6
:1008D000FC91139781AD9D81890F81AF27C08881DD
:1008E000811124C0BA016F5F7F4FF801828193812B
:1008F0008796A9DFBE016B5F7F4FD80112968D915D
:100900009C9113978B969FDFBE01675F7F4FF80125
:10091000828193818F9697DFBE016F5E7F4FD801F2
:1009200012968D919C911397C3968DDFDF91CF9195
:100930001F910F910895FC0124912EBD9B01860FFC
:10094000971F2150310951F0FC01E21BF30BE49198
:100950000DB407FEFDCF4EB5EEBDF3CF0DB407FECF
:10096000FDCF8EB50895FC0121912EBD680F791F32
:10097000E617F70739F081910DB407FEFDCF9EB55C
:100980008EBDF6CF0DB407FEFDCF8EB50895A3E062
:10099000B0E0EDECF4E00C945F1A6A01322F309570
:1009A0003170132F1170A22EB12C750144E0E40EAA
:1009B000F11CE30EF11C29836A837B83A2DEE091A4
:1009C0005B03F0915C03808529816A817B818230A1
:1009D00038F48FB7F894A481B58196819C938FBF2A
:1009E00081E08EBD0DB407FEFDCF8EB5823009F0DB
:1009F00041C0FEBC0DB407FEFDCF8EB5EEBC0DB4FC
:100A000007FEFDCF8EB51EBC0DB407FEFDCF8EB523
:100A10001EBC0DB407FEFDCF8EB581E08EBD0DB4BA
:100A200007FEFDCF8EB56EBD0DB407FEFDCF8EB5B2
:100A30007EBD0DB407FEFDCF8EB52EBD0DB407FEF5
:100A4000FDCF8EB5002339F0A114B10451F0B501EA
:100A5000C60171DF06C0A114B10419F0B501C601C9
:100A600082DF112329F01EBC0DB407FEFDCF8EB529
:100A7000C50102C082EF9FEFE0915B03F0915C0340
:100A80002FB7F894A481B58136813C932FBFE091B4
:100A90005B03F0915C032085223038F02FB7F89487
:100AA000A481B58136813C932FBF89839A835BDE15
:100AB00089819A812396EAE00C947B1A0F9300E0D7
:100AC00066DF0F9108952FEF2EBDFC019B014FEFC4
:100AD0002150310939F00DB407FEFDCF5EB54EBD92
:100AE0005193F6CFFB013197E80FF91F0DB407FEC4
:100AF000FDCF8EB5808308950F931F938FB7F89421
:100B00000091EB021091EC022091ED023091EE0287
:100B100066B5A89B02C06F3F91F48FBF70E080E084
:100B200090E0F2E0660F771F881F991FFA95D1F7C2
:100B3000600F711F821F931F1F910F9108951C5FFB
:100B40002F4F3F4FEACFABE0B0E0E9EAF5E00C947D
:100B5000571A5C017E836D8358874F83122FCCDF39
:100B600028EE33E040E050E00E941C1A69017A014F
:100B7000812F90E09A878987B8EE2B2EB3E03B2E29
:100B8000412C512CD50154968C91811114C0B4DFA5
:100B9000A20191010E941C1A2C193D094E095F09FE
:100BA000F50185899689A0E0B0E0281739074A0742
:100BB0005B0708F4E9C0F5018489882309F4E1C0E2
:100BC000D50154968C91882309F4B5C0C50199DDEF
:100BD000E0915B03F0915C038085823038F48FB73D
:100BE000F894A481B58196819C938FBFB3E0BEBD7C
:100BF0000DB407FEFDCF8EB5823009F0C7C01EBC14
:100C00000DB407FEFDCF8EB51EBC0DB407FEFDCFA3
:100C10008EB51EBC0DB407FEFDCF6EB4712C762CC4
:100C200066241EBC0DB407FEFDCF8EB5682AE4E035
:100C30006E16710408F4AFC064E070E0CE01019656
:100C400042DF8981843011F08230C9F42C81213453
:100C5000B0F48A809B80022F10E0217001151105ED
:100C600031F0B8018BEA92E02B872DDF2B85211123
:100C70000AC01EBC0DB407FEFDCF8EB504C0812C8A
:100C8000912C0AEE1FEF17FF11C0F4E06F1A7108E4
:100C90006114710459F080E090E01EBC0DB407FEB1
:100CA000FDCF2EB5019686159705B9F7D501549657
:100CB0001C92E0915B03F0915C038FB7F894A481E0
:100CC000B58196819C938FBFE0915B03F0915C03AB
:100CD0008085823038F08FB7F894A481B5819681F1
:100CE0009C938FBF40DD063DBFEF1B0709F44ACF41
:100CF00017FF23C08FE391E09F938F931F928EE69F
:100D00008F938BEB92E09F938F938DE493E09F936F
:100D10008F930E944A124AE0B8018DE493E00E944A
:100D2000CE118DE493E00E949A130FB6F894DEBFC3
:100D30000FBECDBF35C000E010E08D819E818815CB
:100D4000990569F4A985BA850A171B0741F4A8011A
:100D50006BEA72E08F8198850E94AA1A21C0F50182
:100D60008789908D009709F40DCFDC01ED91FC91FE
:100D70000190F081E02D98014BEA52E0B401099511
:100D800001CF02EC1FEF0CC0F4DBFCCE02EF1FEF33
:100D9000612C712C02C006ED1FEF812C912C78CFB5
:100DA000C8012B96E2E10C94731A4F925F926F92F6
:100DB0007F928F929F92AF92BF92CF92DF92EF92EB
:100DC000FF926B017C0198DE28EE33E040E050E0BA
:100DD0000E941C1A49015A0188EE482E83E0582EC1
:100DE000612C712C89DEA30192010E941C1A281922
:100DF00039094A095B092C153D054E055F0510F4BC
:100E0000B8DBF0CFFF90EF90DF90CF90BF90AF9026
:100E10009F908F907F906F905F904F9008954F922A
:100E20005F926F927F928F929F92AF92BF92CF927A
:100E3000DF92EF92FF92CF93DF93EC016A017B0187
:100E40005BDE28EE33E040E050E00E941C1A4901CE
:100E50005A0188EE482E83E0582E612C712C8C8923
:100E600081110EC049DEA30192010E941C1A2819AB
:100E700039094A095B092C153D054E055F0558F0F7
:100E80008C89882351F020E44BEA52E060E070E066
:100E9000CE0159DEE4CF6DDBE2CF80E090E0DF9160
:100EA000CF91FF90EF90DF90CF90BF90AF909F9049
:100EB0008F907F906F905F904F900895ADE3B0E07A
:100EC000E4E6F7E00C945F1A8C01FC012589822F7F
:100ED00090E0C12CD12C7601C39404C0CC0CDD1C55
:100EE000EE1CFF1C2A95D2F7A388B4880196AA2786
:100EF00097FDA095BA2F89839A83AB83BC8384E145
:100F000090E0A0E0B0E08D839E83AF83B8878987AF
:100F10009A87AB87BC878D879E87AF87B88B898B75
:100F20009A8BAB8BBC8B1D8A1E8A1F8A188EC98E2A
:100F3000DA8EEB8EFC8E1D8E1E8E1F8E18A219A2CD
:100F40001AA21BA21CA21DA21EA21FA218A680E507
:100F500093ECA0E0B0E089A79AA7ABA7BCA72CE2CE
:100F6000AE014F5F5F4F68E070E1C501A7DD97FDFF
:100F700016C021E1AE01435D5F4F68E070E1C5013D
:100F8000E2DD97FD0CC08DA5811107C0CAA8DBA8C2
:100F9000ECA8FDA88EA59FA502C082EF9FEF97FD4C
:100FA0000FC0F801058804C0F694E794D794C7945D
:100FB0000A94D2F7F1E0CF22DD24EE24FF24C6010B
:100FC000ED96EAE00C947B1AA9E0B0E0EAEEF7E0D7
:100FD0000C94631A8C017B0144E650E060E070E001
:100FE0001EDFA701662757FD6095762F4E835F832E
:100FF0006887798724E0AE014A5F5F4F6BE070E15C
:10100000C8015CDD97FD19C025E0AE014F5F5F4F61
:101010006BE070E1C80197DD9C01263D8FEF38073A
:1010200099F337FD06C08981811105C08A819B81B2
:1010300004C0C90102C082EF9FEF2996E6E00C943C
:101040007F1AFC01658970E083899489BDCFFC011A
:10105000658970E083899489B7CFADE0B0E0E3E3C0
:10106000F8E00C94651AFC0103891489458950E065
:1010700060E070E049835A836B837C831D821E820B
:101080001F82188628E0AE014F5F5F4F66E070E177
:10109000C80114DD97FD0CC025E0AE01475F5F4F2E
:1010A00066E070E1C8014FDD97FD02C08A859B852F
:1010B0002D96E4E00C94811AA5E0B0E0E2E6F8E0B9
:1010C0000C94591A7C01562E6A015901480119DB0A
:1010D000E0915B03F0915C038085823038F48FB738
:1010E000F894A481B58196819C938FBF83E08EBDD7
:1010F0000DB407FEFDCF8EB5823009F082C01EBC54
:101100000DB407FEFDCF8EB51EBC0DB407FEFDCF9E
:101110008EB51EBC0DB407FEFDCF6EB4712C762CBF
:1011200066241EBC0DB407FEFDCF8EB5682A85E08F
:101130006816710408F46AC065E070E0CE0101969B
:10114000C2DC8981823071F58A8185112BC08B8147
:10115000883141F54C805D80E8E14E1A51088201EA
:101160008414950408F1C114D10429F068E170E0F9
:10117000C601A9DC08C088E11EBC0DB407FEFDCF86
:101180009EB58150C9F74114510419F0B201C5014F
:101190009ADC8C8180FF08C01EBC0DB407FEFDCF19
:1011A0008EB502C00AEE1FEF17FF0FC0F5E06F1AF1
:1011B000710880E090E08615970539F01EBC0DB4EB
:1011C00007FEFDCF2EB50196F6CFF701148AE09108
:1011D0005B03F0915C038FB7F894A481B58196818D
:1011E0009C938FBFE0915B03F0915C03808582301C
:1011F00080F08FB7F894A481B58196819C938FBFBE
:1012000008C002EF1FEF612C712CD3CF06ED1FEF4A
:10121000D0CFA9DAC8012596E0E10C94751AA1E3B4
:10122000B0E0E5E1F9E00C94591A5C014A016B0168
:10123000EE24D7FCE094FE2CCEA2DFA2E8A6F9A60D
:10124000C901A0E0B0E08AA79BA7ACA7BDA71EA6D6
:101250001FA618AA19AA2CE0AE014A5D5F4F64E0F0
:1012600070E1C5012BDC13E02DE0AE01475E5F4F5E
:1012700064E070E1C50167DC863D2FEF920729F439
:10128000115091F786ED9FEF58C097FD56C08A8D9B
:101290009B8DAC8DBD8D8C159D05AE05BF0569F58B
:1012A0008E8D9F8DA8A1B9A1892B8A2B8B2B19F428
:1012B00080E090E042C020DC28EE33E040E050E0E7
:1012C0000E941C1A69017A0158EE452E53E0552EF2
:1012D000612C712CF5018489811112C00DDCA301F0
:1012E00092010E941C1A2C193D094E095F09283BE6
:1012F0003B4041055105F8F003C082EF9FEF1DC050
:10130000F50184898823A1F00E8D1F8D28A139A1B4
:10131000F5018489882361F29401AE014F5F5F4F2C
:1013200065E8C501C9DE863DFFEF9F0799F205C05C
:1013300082EC9FEF02C01DD9CDCFE196E0E10C9485
:10134000751AFB019A01DC0155966C91559770E076
:10135000AF0153968D919C91549761CFEF92FF927C
:101360000F931F93CF93DF93EC018B017A01E881F8
:10137000F9810190F081E02D099597FD0AC0892B34
:1013800059F06D8970E09701A8018B899C8947DF2E
:1013900005C08FEF9FEF02C080E090E0CDB7DEB7D1
:1013A000E6E00C947F1AA5E1B0E0E9EDF9E00C94D9
:1013B0005F1A5C01FC01F5880389148948EE53E04B
:1013C00060E070E0C8012BDD8F2D90E0A0E0B0E080
:1013D0008A8B9B8BAC8BBD8B24E0AE014E5E5F4F46
:1013E00065E070E1C8016ADB97FD44C021E1AE0110
:1013F0004F5F5F4F65E070E1C801A5DB97FD3AC024
:10140000CE80DF80E884F9848A819B81AC81BD81B4
:10141000B7FD2EC0F8E0CF16D10450F5F801E65E16
:10142000FE4F81E090E00C2C02C0880F991F0A94B7
:10143000E2F720813181822B932B91838083BE013F
:10144000625F7F4FC5014696FED98C859D85F5016B
:10145000938F828F2CE12C9DC0012D9D900D112426
:10146000800F911FFC01E15BFF4FC082C60102C0EB
:1014700082EF9FEF6596EAE00C947B1AAAE1B0E058
:10148000E4E4FAE00C94571A3B017A012111DAC026
:10149000FC01258803891489F80181AD811106C0FA
:1014A00040E050E0BA01C801BADCF6CF312C412C43
:1014B000512C29823A824B825C828CE090E0A0E041
:1014C000B0E08D839E83AF83B887C701A0E0B0E012
:1014D00089879A87AB87BC871D861E861F86188AD8
:1014E0004701F0E18F0E911C6401570125E1A20E26
:1014F000B11CC50181709927E1E08E27282F21704A
:101500002A8F222321F0570186E1A80EB11CC801C1
:10151000F8D8E0915B03F0915C038085823038F469
:101520008FB7F894A481B58196819C938FBF81E099
:101530008EBD0DB407FEFDCF8EB5823009F044C0DC
:10154000BEBC0DB407FEFDCF8EB5AEBC0DB407FE1C
:10155000FDCF8EB51EBC0DB407FEFDCF8EB51EBCF3
:101560000DB407FEFDCF8EB582E08EBD0DB407FE33
:10157000FDCF8EB581E88EBD0DB407FEFDCF8EB5D3
:1015800080E18EBD0DB407FEFDCF8EB58EBC0DB4CF
:1015900007FEFDCF8EB59EBC0DB407FEFDCF8EB508
:1015A00060E170E0CE010196DED9E114F10419F09A
:1015B000B701C301D8D92A8D222351F01EBC0DB426
:1015C00007FEFDCF8EB504C062EFC62EDD24DA948F
:1015D000E0915B03F0915C038FB7F894A481B5812F
:1015E00096819C938FBFE0915B03F0915C038085B3
:1015F000823038F08FB7F894A481B58196819C939E
:101600008FBFB1D8D7FC1AC029E0AE014F5E5F4F43
:1016100063E070E1C80197DA97FD16C08A899B895B
:10162000AC89BD8982159305A405B50549F4F80177
:1016300081AD815081AF8E899F8906C0C60104C0EB
:1016400082EF01C08FEF9FEF6A96E2E10C94731A6C
:10165000A9E1B0E0EEE2FBE00C94651AFC0103891D
:101660001489858990E0A0E0B0E089839A83AB83F8
:10167000BC8388E090E0A0E0B0E08D839E83AF83E0
:10168000B88789879A87AB87BC8782E090E09E877E
:101690008D87042E452F502D588B4F87FB0180815D
:1016A0009181A281B381898B9A8BAB8BBC8B24E116
:1016B000AE014F5F5F4F67E070E1C801FFD997FD52
:1016C00029C025E0AE014B5E5F4F67E070E1C801C5
:1016D0003ADA97FD1FC08D8981111AC04E895F8942
:1016E000688D798D4830510598F4F801E65EFE4F1B
:1016F00081E090E0042E02C0880F991F0A94E2F75F
:1017000020813181822B932B91838083CA0102C077
:1017100082EF9FEF6996E4E00C94811A1F920F927A
:101720000FB60F9211240BB60F922F933F934F9346
:101730005F936F937F938F939F93AF93BF93EF9339
:10174000FF938091EF029091F002A091F102B0918D
:10175000F2020196A11DB11D8093EF029093F00259
:10176000A093F102B093F202E091A502F091A602DB
:10177000309729F08091A3029091A4020995FF91DE
:10178000EF91BF91AF919F918F917F916F915F91F9
:101790004F913F912F910F900BBE0F900FBE0F9066
:1017A0001F9018951F920F920FB60F9211240F9051
:1017B0000FBE0F901F9018951F920F920FB60F92A9
:1017C00011242F938F939F93AF93BF938091EB023C
:1017D0009091EC02A091ED02B091EE029C5FAF4FB0
:1017E000BF4F8093EB029093EC02A093ED02B09375
:1017F000EE028091F9029091FA028115944034F042
:101800008091F9029091FA02945024C08091F702DD
:101810009091F8028F3C934011F51092F8021092CB
:10182000F7028091F3029091F402A091F502B09139
:10183000F6020196A11DB11D8093F3029093F4026C
:10184000A093F502B093F6028091F9029091FA020A
:10185000805C9D4F9093FA028093F90209C08091B9
:10186000F7029091F80201969093F8028093F702A4
:10187000BF91AF919F918F912F910F900FBE0F90BD
:101880001F9018951F920F920FB60F9211240BB64E
:101890000F922F933F934F935F936F937F938F9309
:1018A0009F93AF93BF93EF93FF93809160039091C9
:1018B0006103009709F0ACD6FF91EF91BF91AF9112
:1018C0009F918F917F916F915F914F913F912F9158
:1018D0000F900BBE0F900FBE0F901F9018951F9288
:1018E0000F920FB60F9211240BB60F922F933F93C6
:1018F0004F935F936F937F938F939F93AF93BF9318
:10190000EF93FF938091600390916103009709F03A
:101910008ED6FF91EF91BF91AF919F918F917F9163
:101920006F915F914F913F912F910F900BBE0F9050
:101930000FBE0F901F9018951F920F920FB60F9227
:1019400011240BB60F922F933F934F935F936F9396
:101950007F938F939F93AF93BF93EF93FF93809168
:10196000600390916103009709F074D6FF91EF91A5
:10197000BF91AF919F918F917F916F915F914F91A7
:101980003F912F910F900BBE0F900FBE0F901F90A5
:1019900018951F920F920FB60F9211240BB60F924B
:1019A0002F933F934F935F936F937F938F939F9367
:1019B000AF93BF93EF93FF9380915E0390915F038A
:1019C000009709F025D6FF91EF91BF91AF919F91BC
:1019D0008F917F916F915F914F913F912F910F90D8
:1019E0000BBE0F900FBE0F901F9018951F920F9275
:1019F0000FB60F9211240BB60F922F933F934F9374
:101A00005F936F937F938F939F93AF93BF93EF9366
:101A1000FF9380915E0390915F03009709F007D6D2
:101A2000FF91EF91BF91AF919F918F917F916F91B6
:101A30005F914F913F912F910F900BBE0F900FBE72
:101A40000F901F9018951F920F920FB60F921124AE
:101A50000BB60F922F933F934F935F936F937F93A8
:101A60008F939F93AF93BF93EF93FF9380915E0308
:101A700090915F03009709F0EDD5FF91EF91BF9131
:101A8000AF919F918F917F916F915F914F913F9116
:101A90002F910F900BBE0F900FBE0F901F901895B7
:101AA0001F920F920FB60F9211240BB60F922F9325
:101AB0003F934F935F936F937F938F939F93AF93D6
:101AC000BF93EF93FF938091700390917103009700
:101AD00049F0DC01ED91FC910190F081E02D60E096
:101AE00070E00995FF91EF91BF91AF919F918F9118
:101AF0007F916F915F914F913F912F910F900BBE0E
:101B00000F900FBE0F901F9018951F920F920FB657
:101B10000F9211240BB60F922F933F934F935F9325
:101B20006F937F938F939F93AF93BF93EF93FF93A5
:101B300080916E0390916F03009749F0DC01ED9165
:101B4000FC910190F081E02D60E070E00995FF913B
:101B5000EF91BF91AF919F918F917F916F915F9125
:101B60004F913F912F910F900BBE0F900FBE0F9092
:101B70001F9018951F920F920FB60F9211240BB65B
:101B80000F922F933F934F935F936F937F938F9316
:101B90009F93AF93BF93EF93FF9380916C039091CA
:101BA0006D03009749F0DC01ED91FC910190F0810B
:101BB000E02D60E070E00995FF91EF91BF91AF914A
:101BC0009F918F917F916F915F914F913F912F9155
:101BD0000F900BBE0F900FBE0F901F901895A5E2AF
:101BE000B0E0E5EFFDE00C94631A7C0146E050E0C4
:101BF00060E070E0498F5A8F6B8F7C8F4D8F5E8FC6
:101C00006F8F78A319A21AA21BA21CA22CE0AE010E
:101C1000475E5F4F61E072E082E793E00E945E05FD
:101C200097FD45C021E0AE014B5D5F4F61E072E082
:101C300082E793E00E94A30597FD39C0E09100017F
:101C4000F09101016AE070E080E090E009958091F8
:101C50008603882369F006E010E09701AE014F5F2C
:101C60005F4F61E982E793E027DA97FF03C01FC067
:101C700080E090E049815A816B817C81463051053A
:101C80006105710519F082EF9FEF11C04D815E81F2
:101C90006F8178854630510561057105A1F7498549
:101CA0005A856B857C85452B462B472B61F7A5967E
:101CB000E6E00C947F1A6115710591F0DC01129633
:101CC000ED91FC91139771836083DB01ED91FC91A1
:101CD00004A0F5A1E02DCB01099521E0892B09F0A5
:101CE00020E0822F0895DC01ED91FC910084F185C4
:101CF000E02D09950895FC01603119F463ED72E05F
:101D000009C0623019F46EEC72E004C0683029F446
:101D100061ED72E080819181E6CF0895DC01ED9163
:101D2000FC910680F781E02D09950895DC01ED9185
:101D3000FC910480F581E02D0995089508958FEFB9
:101D40009FEF0895EF92FF920F931F93CF93DF932E
:101D50007C01EB0100E010E068817981611571057B
:101D600081F0D701ED91FC914A815B81008CF18D6E
:101D7000E02DC7010995009721F0080F191F24963F
:101D8000EBCFC801CDB7DEB7E6E00C947F1AA0E038
:101D9000B0E0EDECFEE00C94611A7C016A01EB010D
:101DA00000E010E00C151D0571F0D701ED91FC91DC
:101DB0000488F589E02DC701099597FD04C0899332
:101DC0000F5F1F4FEFCFC801CDB7DEB7E8E00C942F
:101DD0007D1AA0E0B0E0EFEEFEE00C94611AEC0199
:101DE0007B016A018B01F1E0CF1AD10859F1E8813A
:101DF000F9810488F589E02DCE0109958F3F2FEFF9
:101E0000920781F48A818823E9F00E94B902E8816F
:101E1000F9810488F589E02DCE0109958F3FEFEF18
:101E20009E0799F38D30910529F48B818230D9F288
:101E30008AE090E098012F5F3F4FF801808389018D
:101E40000A9789F6F80110820E151F0519F480E033
:101E500090E001C0C701CDB7DEB7E8E00C947D1A71
:101E60008FEF9FEF08958FEF9FEF08958FEF9FEF14
:101E70000895EF92FF920F931F93CF93DF937C010E
:101E8000EB0100E010E0688179816115710581F056
:101E9000D701ED91FC914A815B810284F385E02DAD
:101EA000C7010995009721F0080F191F2496EBCF61
:101EB000C801CDB7DEB7E6E00C947F1AA0E0B0E031
:101EC000E4E6FFE00C94611A8C017B016A01C0E03A
:101ED000D0E0CC15DD0589F0F701EC0FFD1F649112
:101EE000F801A081B1811496ED91FC911597C8017C
:101EF000099597FD02C02196ECCFCE01CDB7DEB794
:101F0000E8E00C947D1AA0E0B0E0E9E8FFE00C9472
:101F1000611A7C016A01EB0100E010E00C151D055F
:101F200071F06991D701ED91FC910480F581E02D6C
:101F3000C701099597FD03C00F5F1F4FEFCFC80181
:101F4000CDB7DEB7E8E00C947D1AA1E0B0E0EBEA93
:101F5000FFE00C94671A6983DC01ED91FC91028427
:101F6000F385E02D41E050E0BE016F5F7F4F0995A2
:101F70008130910511F4898190E02196E2E00C9482
:101F8000831A80E090E0089580E090E00895FC01DD
:101F900017821682158214820895CF93DF93EC0185
:101FA0002C813D818E819F812817390719F00E946D
:101FB000B902F6CF80E090E0DF91CF910895FC0167
:101FC00024813581868197812817390769F0268118
:101FD00037812F5F3F4F2F73332737832683E20FDD
:101FE000F31F808590E008958FEF9FEF0895DC0147
:101FF00016962D913C91179740E050E0DC01149625
:10200000ED91FC9115972E173F0771F04F5F5F4FD1
:102010002F5F3F4F2F733327FC01E20FF31F7085B3
:102020007613ECCFCA0108958FEF9FEF0895DC017E
:1020300014962D913C91159716968D919C9117971A
:102040002817390761F01696ED91FC911797319694
:10205000EF73FF27EA0FFB1F808590E008958FEF55
:102060009FEF0895FC01248135812F5F3F4F2F732F
:102070003327468157812417350751F0DC01A20F21
:10208000B31F18966C9335832483862F90E00895B0
:102090008FEF9FEF0895FC01268137818481958120
:1020A000215C3F4F281B390BC9018F739927089575
:1020B000FC012481358186819781281B390BC90158
:1020C0008F73992708951F93CF93DF93EC01162FF9
:1020D00088859985DC01ED91FC910480F581E02DE6
:1020E000612F0995019619F40E94B902F1CFEC8194
:1020F000FD81918190629183812F90E0DF91CF915A
:102100001F910895DC011496ED91FC911597818142
:102110008776818381E008958F929F92AF92BF92DC
:10212000CF92DF92EF92FF921F93CF93DF93EC0158
:102130004A015B01122F9A01AB0193E0220F331F7A
:10214000441F551F9A95D1F7C12C64E2D62E64EF37
:10215000E62EF12CC701B6010E941C1A215031094C
:10216000211580E1380780F0A501940184E0220F59
:10217000331F441F551F8A95D1F7C701B6010E942E
:102180001C1A2150310904C0EC81FD8182E080835A
:10219000EC81FD81358324831283EC81FD8188E904
:1021A000818381E0DF91CF911F91FF90EF90DF90CD
:1021B000CF90BF90AF909F908F9008950895DC01CD
:1021C00016968D919C911797DC01ED91FC91068CF0
:1021D000F78DE02D09950895DC0118968D919C915D
:1021E0001997DC01ED91FC91048CF58DE02D09959A
:1021F0000895DC0116968D919C911797DC01ED9165
:10220000FC910488F589E02D09950895DC01169666
:102210008D919C911797DC01ED91FC910288F389D7
:10222000E02D09950895DC0116968D919C911797E4
:10223000DC01ED91FC910088F189E02D099508956C
:10224000DC0118968D919C911997DC01ED91FC9120
:102250000280F381E02D09950895DC0116968D9199
:102260009C911797DC01ED91FC910190F081E02D9C
:1022700009950895CF93DF93EC01EA81FB8180817A
:102280009181009751F0DC01ED91FC9102A0F3A146
:10229000E02D09951C8281E001C080E0DF91CF91A3
:1022A00008950895089581E008954FB7F8945CB3B8
:1022B00021E030E0FC01068002C0220F331F0A94A7
:1022C000E2F7209525232CBB4FBF08954FB7F89414
:1022D0005DB321E030E0FC01068002C0220F331F15
:1022E0000A94E2F7209525232DBB4FBF08956FB7C1
:1022F000F8947CB321E030E0A901FC01068002C023
:10230000440F551F0A94E2F7409547234CBB4DB349
:10231000068002C0220F331F0A94E2F7422B4DBB06
:102320006FBF089508950895089508950895089534
:1023300081E00895DC011796ED91FC91189781E0FA
:10234000848B0895A2E0B0E0E8EAF1E10C94651A0C
:102350008C01CB0169837A830E94B31AD801ED9175
:10236000FC910484F585E02DAC0169817A81C80176
:1023700009952296E4E00C94811ADB010D9000206F
:10238000E9F7AD0141505109461B570BDC01ED91B6
:10239000FC910284F385E02D09950895A2E1B0E057
:1023A000E4EDF1E10C94631A8C017B01442399F074
:1023B0004A3021F0642F4A8B9EDC4A8950E0BE01EE
:1023C0006F5F7F4FC7010E94BC1ABC01F80180817A
:1023D0009181A4DC12C0E4E075956795EA95E1F778
:1023E0006F70605DFC0180819181A0DC6E2D6F704B
:1023F000605DF8018081918199DC6296E6E00C9441
:102400007F1ACF93DF93EC014A81C8DF8AE08A8389
:10241000CE01DF91CF910895A2E2B0E0E2E1F2E1D6
:102420000C94611A8C016A017B012A3021F0622F21
:102430002AA361DC2AA130E0AE014F5F5F4FC701E4
:10244000B6010E94E81ABC01F8018081918166DC26
:10245000A296E8E00C947D1AA2E1B0E0E2E3F2E19A
:102460000C94631A8C017B014A3021F0642F4A8B53
:1024700042DC4A8950E0BE016F5F7F4FC7010E9476
:10248000131BBC01F8018081918148DC6296E6E073
:102490000C947F1AA2E2B0E0E0E5F2E10C945D1A40
:1024A00009A91AA9EBA9FCA97E0135E3E30EF11CE9
:1024B0005F013FEFA31AB30AE4916E2FEE2309F4F4
:1024C000A4C0E53209F09BC02AE091E0F5018491B7
:1024D000682F882309F493C0FFEFAF1ABF0A88362C
:1024E00009F43DC0F4F4823611F422E0EFCF8336D4
:1024F0009CF4823411F420E0E9CF833509F07FC0E9
:102500006701F2E0CF0ED11CF70160817181F80103
:1025100080819181E8DB47C0833629F18436B9F1A7
:102520006EC0803759F144F48C3609F441C08F36BF
:1025300009F065C028E0CACF853799F0883779F06F
:10254000833709F05CC06701F2E0CF0ED11CF701C0
:1025500060817181F80180819181E0DB24C020E1FC
:10256000B5CF90E0B3CF670132E0C30ED11CF701C5
:102570006081F80180819181D9DB15C06701F2E0AB
:10258000CF0ED11CF7016081718140E10EC0A7011F
:102590004E5F5F4F6A01F70160817181422F99237D
:1025A00021F0C801FBDE76012EC0C80155DFFBCF4C
:1025B000A7014C5F5F4F4A01F7019923C1F0C0802A
:1025C000D180E280F3802A3029F0622FC8012AA34B
:1025D00092DB2AA130E0AE014F5F5F4FC701B60129
:1025E000DFD7BC01F8018081918198DB06C0408172
:1025F000518162817381C8010FDF740104C0F80149
:102600008081918193DBF50153CFA296ECE071C7F5
:10261000DC011496ED91FC91159721812F7B21838C
:10262000ED91FC9104A0F5A1E02D09950895CF93BB
:10263000DF93EC01AE81BF81EC81FD816681ED917C
:10264000FC9111970480F581E02DCD010995DF9172
:10265000CF910895CF93DF93EC0188859985DC01B4
:10266000ED91FC910488F589E02D0995EC81FD81BF
:102670008F3FBFEF9B0711F0868308C081818F7D5C
:102680008183EC81FD81818180648183DF91CF91A1
:102690000895DC01ED91FC910480F581E02D099510
:1026A0000895FC01683038F0603140F0683148F43A
:1026B00086E290E008C080E290E005C083E290E00E
:1026C00002C089E290E091838083262F277081E009
:1026D00090E001C0880F2A95EAF7828363832FB7C1
:1026E000F894A081B18111968C9111979281892BD8
:1026F00011968C93A081B181928112968C91129740
:10270000411103C09095892301C0892B12968C93A7
:102710002FBF0895CF93DF93EC0188819981DC016D
:10272000ED91FC910680F781E02D0995CE01DF91B6
:10273000CF910895CF93DF93EC01A881B981ED91FA
:10274000FC9111976D817E810084F185E02DCD0192
:102750000995DF91CF910895CF93DF93EC01EADFE4
:10276000CE01DF91CF910895DC01ED91FC91048CB5
:10277000F58DE02D09950895DC01ED91FC91008423
:10278000F185E02D09950895AFE4B0E0E9ECF3E1BF
:1027900090C680917A00876080937A0080E880BF3D
:1027A0001092C10041E063E1CE01865B9F4F79DF6B
:1027B00041E064E1CE018A5B9F4F73DF41E062E15B
:1027C000CE018E5B9F4F6DDF41E065E1CE01CE967D
:1027D00068DF41E068E0CE01CA9663DF40E069E06F
:1027E000CE01C6965EDF40E06EE1CE01019659DF74
:1027F00078942EE040E051EE60E070E082E693E0F5
:102800008BDC82E693E090934E0380934D03E0913E
:102810006203F09163030084F185E02D67E671E0C7
:1028200009958DE493E086DF9FB7F894A89584B767
:10283000877F84BF88E18093600080E4809360009C
:102840009FBF1092A6021092A5021092A4021092AD
:10285000A3021092A20281E08093A7028CED92E085
:1028600090930101809300018091A802811112C010
:102870009FB7F89483E085BD81E080936E0016BC1D
:1028800015BA9FBF8093A80285ED96E09093010151
:102890008093000180914D0390914E0365DF0E946B
:1028A0007C056B017C0188E893E190938803809319
:1028B0008703E0917F03F0918003909181038081F1
:1028C0008923E9F39FB7F894E0918B03F0918C038F
:1028D000828120918D03822B82839FBFE0917F03B1
:1028E000F09180039091810380818923E9F7E09141
:1028F0007D03F0917E030280F381E02D8DE793E06C
:10290000099582E793E00E948103E0915B03F091D7
:102910005C038085823038F48FB7F894A481B58148
:1029200096819C938FBF88EC90E00197F1F781E04E
:102930008EBD0DB407FEFDCF8EB51EBC0DB407FED7
:10294000FDCF8EB585E08EBD0DB407FEFDCF8EB5F3
:102950001EBC0DB407FEFDCF8EB588EC90E001974C
:10296000F1F71EBC0DB407FEFDCF8EB581E08EBD24
:102970000DB407FEFDCF8EB51EBC0DB407FEFDCF16
:102980008EB580E48EBD0DB407FEFDCF8EB581E01F
:102990008EBD0DB407FEFDCF8EB51EBC0DB407FE77
:1029A000FDCF8EB5E0915B03F0915C038FB7F89497
:1029B000A481B58196819C938FBFE0915B03F091D8
:1029C0005C038085823038F08FB7F894A481B5819C
:1029D00096819C938FBF0E94B303E0910001F09118
:1029E000010168EE73E080E090E0099521E0AE011E
:1029F0004F5F5F4F60E070E482E793E00E94A305C1
:102A000097FD04C08981992787FD909597FDC9C0DE
:102A100020E040E050E06BE070E482E793E00E9449
:102A20005E0597FD19C024E0AE014F5F5F4F6BE07C
:102A300070E482E793E00E94A30597FD0DC08A81B0
:102A40008093AB038B819C819093AA038093A9030D
:102A50008981992787FD909597FDA3C021E0AE015C
:102A60004A5C5F4F61E070E882E793E00E94A30553
:102A7000181619067CF58EA981112CC025E1AE012E
:102A80004F5F5F4F60E170E882E793E00E94A3052B
:102A900018161906FCF4898181111CC0BE016E5FF5
:102AA0007F4F89E993E00E942304BE016A5F7F4F54
:102AB0008DE993E00E942304BE01665F7F4F81EAA7
:102AC00093E00E942304BE016E5E7F4F85EA93E08F
:102AD0000E94230483E993E082D897FD62C08CE2D0
:102AE00091E090938803809387030E947C056C1982
:102AF0007D098E099F096093540370935503809359
:102B00005603909357036DE270E08DE493E079DC17
:102B10008C01DC018D919C910E94780362E071E050
:102B2000C801F8DDC0905403D0905503E0905603DF
:102B3000F090570361E371E080914D0390914E0353
:102B40001BDE63E271E080914D0390914E0314DE31
:102B500020914F03B701A6018DE493E05DDC8AE08C
:102B600080934F036FE171E080914D0390914E038C
:102B700003DE8DE493E0DEDD80914D0390914E0302
:102B8000F3DD0E947C056B017C0120E040E050E019
:102B900067E072E082E793E00E945E0597FF06C05F
:102BA0001CC06BE371E08EE290E019C225E0AE013B
:102BB0004F5F5F4F67E072E082E793E00E94A305FA
:102BC00097FD0BC08C818093AA028D818093A9020E
:102BD0000981112707FD109501C08C010E947C0519
:102BE0006C197D098E099F096093540370935503F6
:102BF000809356039093570360E370E08DE493E075
:102C000000DC7C01FC01808191810E94780362E0FC
:102C100071E0C7017FDDC0905403D0905503E09070
:102C20005603F09057036DE4A62E63E0B62E65E1DF
:102C300071E080914D0390914E039EDD62EF70E054
:102C400080914D0390914E0397DD20914F03B70182
:102C5000A601C501E1DB8AE080934F036EEE70E0D0
:102C600080914D0390914E0387DDC50163DD012BFB
:102C700089F502E011E01F930F931F9283E38F9376
:102C800084ED90E09F938F93BF92AF9203DC6091AD
:102C9000AA0270E04AE0C50181DBC5014BDD1F934C
:102CA0000F931F9284E38F9384EB90E09F938F9315
:102CB000BF92AF92EFDB6091A90270E04AE0C501DC
:102CC0006DDBC50137DDC50135DD0FB6F894DEBF1C
:102CD0000FBECDBF1F921F9282E091E09F938F9312
:102CE0001F9288E38F938CE890E09F938F938DE4FD
:102CF00093E09F938F93CEDBCE0101960E94EF0D60
:102D00008091990390919A03A0919B03B0919C03A9
:102D10008EAB9FABA8AFB9AF80919D0390919E03FE
:102D2000A0919F03B091A00322968CAF9DAFAEAF50
:102D3000BFAF22978091A5039091A603A091A7030E
:102D4000B091A8038AAF9BAFACAFBDAF68E772E0AC
:102D50008DE493E0DFDC8981682F6F700FB6F89403
:102D6000DEBF0FBECDBF6A3010F017E301C010E325
:102D7000160F90E054E0959587955A95E1F78A30C3
:102D800010F067E301C060E3680F80914D039091FC
:102D90004E037FDC612F80914D0390914E0379DCCF
:102DA0008E010E5F1F4F7E01B7E0EB0EF11CF801A4
:102DB00081918F01682F6F706A3010F027E301C096
:102DC00020E3260F90E044E0959587954A95E1F73A
:102DD0008A3010F037E301C030E3380F6AE38091A6
:102DE0004D0390914E0360962FAF60972F963FAFA3
:102DF0002F974FDC2F963FAD2F97632F80914D0378
:102E000090914E0346DC60962FAD6097622F8091C3
:102E10004D0390914E033DDC0E151F0541F68DE4E8
:102E200093E088DC6DE772E08DE493E073DCCE0123
:102E3000C6960E9402048DE493E07CDC61E872E0B7
:102E40008DE493E067DCCE01CE960E9402048DE40F
:102E500093E070DC69E872E08DE493E05BDCCE0126
:102E6000CA960E9402048DE493E064DC8DE493E052
:102E700061DC88E8C82E83E1D82E9AE0992E2CE4F4
:102E8000822E30E2E32E32E0F32E80914D039091BA
:102E90004E036ADC0E947C052B013C0101E024E624
:102EA0004FE751E063E070E082E793E00E94C704DF
:102EB00097FD28C00091870310918803D092880362
:102EC000C092870325E0AE014F5F5F4F63E070E083
:102ED00082E793E00E94A305109388030093870381
:102EE00097FD10C08981882319F082EF9FEF0AC0F7
:102EF0008A819B81AC81BD81892B8A2B8B2BA9F781
:102F000080E090E0892B09F066C00E947C0564197E
:102F1000750986099709609354037093550380934C
:102F200056039093570369E470E08DE493E069DA07
:102F30008C01DC018D919C910E9478036FE071E01F
:102F4000C801E8DB4090540350905503609056034D
:102F5000709057030DE413E06AE772E080914D032F
:102F600090914E0309DC60E572E080914D039091F1
:102F70004E0302DC20914F03B301A201C8014CDAD9
:102F800090924F036CE472E080914D0390914E0358
:102F9000F3DBC801CFDB1F921F928FE091E09F937C
:102FA0008F931F928F92FF92EF921F930F9372DA7B
:102FB0008AE090E00E94C50280914D0390914E03FB
:102FC000D3DB0E947C052B013C010FB6F894DEBFD9
:102FD0000FBECDBF38C064E872E08AE490E00E9482
:102FE000D8038B858370A82EB12C0A85069510E036
:102FF0006AE172E080914D0390914E03BDDB8091B8
:103000004D0390914E03DC01ED91FC910680F78118
:10301000E02DBE01625F7F4F099563E172E0809110
:103020004D0390914E03A8DBB8018DE493E0E9D9FC
:103030008C0163E072E0FC01808191819DDBB50130
:10304000C801DFD977DB1EAA1FAA18AE19AE24E08B
:10305000AE014A5C5F4F67E070E082E793E00E9458
:103060005E0597FD14C025E3AE014F5F5F4F67E03B
:1030700070E082E793E00E94A30597FD08C0898174
:10308000882319F082EF9FEF02C08A819B81181676
:1030900019060CF4A6CF0E947C05641975098609EF
:1030A000970960935403709355038093560390934C
:1030B000570360E570E08DE493E0A3D98C01DC0157
:1030C0008D919C910E9478036FE071E0C80122DB32
:1030D00040905403509055036090560370905703EE
:1030E00069EF71E080914D0390914E0345DB67EEEF
:1030F00071E080914D0390914E033EDB20914F0390
:10310000B301A2018DE493E087D990924F0363EE5F
:1031100071E080914D0390914E032EDB8DE493E09E
:1031200009DB8DE493E006DBB0CECF93DF93109202
:10313000FB021092FC02EDEFF2E01082128211828B
:1031400014821382359633E0ED34F307B1F7209102
:103150008E0430918F0440919004509191046091BD
:103160009204709193048091940490919504A1E04D
:10317000D9D120938E0430938F04409390045093C0
:1031800091046093920470939304809394049093B9
:103190009504D4D1B1F410924E0310924D038AE0FD
:1031A00080934F0386E08093500384E08093510323
:1031B00086ED92E090935303809352038DE18093C8
:1031C00058032091960430919704409198045091AF
:1031D000990460919A0470919B0480919C04909151
:1031E0009D04A1E09FD120939604309397044093CF
:1031F00098045093990460939A0470939B0480936D
:103200009C0490939D049AD1A9F410925A031092B1
:10321000590310925C0310925B0310925D039FB7F9
:10322000F89484B1806B84B9269885B18F7585B97F
:103230002E9A9FBF1092F0041092F10486E991E05B
:103240009093EF048093EE041092F3041092F20432
:103250001092F5041092F4041092A8041092A9049C
:103260009093A7048093A6041092AB041092AA0432
:103270001092AD041092AC0420919E0430919F04F2
:103280004091A0045091A1046091A2047091A30404
:103290008091A4049091A504A1E044D120939E04C0
:1032A00030939F044093A0045093A1046093A20420
:1032B0007093A3048093A4049093A5043FD111F5C7
:1032C00010926403109265038CE691E0909363037F
:1032D0008093620380EC90E0909367038093660391
:1032E0008EEE94E0909369038093680386EA94E0FD
:1032F00090936B0380936A0382E693E090935F035D
:1033000080935E0310927303109272038DE793E033
:10331000909375038093740341E068E086E793E03F
:10332000C0D910927A0384E580937B0310927C03CA
:1033300040E06AE08FE793E0B4D99FB7F894E0915A
:103340007F03F0918003828120918103822B82830D
:103350009FBF9FB7F894C2E7D3E0E0917F03F0915D
:1033600080032181809181038095822381839FBF87
:103370008AEB91E090937E0380937D0382E08093BB
:103380008303809169008F7C8062809369008DE760
:1033900093E0909371038093700386EC91E0909397
:1033A0007E0380937D03D0938503C09384031092A2
:1033B000860388EB9BE090938803809387031092A9
:1033C0008A031092890340E069E08BE893E069D9B1
:1033D00086E792E09093900380938F03D0939203BB
:1033E000C0939103ECEAF3E0ACEBB3E02CE086E3AE
:1033F00092E0ED012E971882219618821C92AF015F
:103400004C5F5F4FEA01322F19923A95E9F79183A9
:1034100080837C965C96C4E0EC38FC0751F71092F0
:103420008D0410928C048FE893E090938A0380932C
:103430008903DF91CF910895A1E21A2EAA1BBB1B2D
:10344000FD010DC0AA1FBB1FEE1FFF1FA217B30770
:10345000E407F50720F0A21BB30BE40BF50B661F86
:10346000771F881F991F1A9469F76095709580954A
:1034700090959B01AC01BD01CF010895A29FB001C1
:10348000B39FC001A39F700D811D1124911DB29F98
:10349000700D811D1124911D0895F0DFA59F900DE1
:1034A000B49F900DA49F800D911D112408952F921B
:1034B0003F924F925F926F927F928F929F92AF92C4
:1034C000BF92CF92DF92EF92FF920F931F93CF9311
:1034D000DF93CDB7DEB7CA1BDB0B0FB6F894DEBFA8
:1034E0000FBECDBF09942A88398848885F846E84CE
:1034F0007D848C849B84AA84B984C884DF80EE8018
:10350000FD800C811B81AA81B981CE0FD11D0FB620
:10351000F894DEBF0FBECDBFED0108950790F69180
:10352000E02D09940024A7FD00942A0F301D401DB2
:10353000501D601D701D801D901D08950024A7FD65
:1035400000942A1730054005500560057005800578
:1035500090050895FB01DC0102C001900D924150DD
:103560005040D8F70895FC0105900020E9F78095B8
:1035700090958E0F9F1F08954532510518F44230E3
:1035800008F004C0FB011082CB010895BB274A302C
:1035900031F4992322F4BDE2909581959F4F4EC05E
:1035A0002532310518F4223008F004C0FA011082E7
:1035B000CA010895BB272A3051F4992342F4BDE291
:1035C00090958095709561957F4F8F4F9F4F0BC061
:1035D0002532310518F4223008F004C0FA011082B7
:1035E000CA010895BB27FA01A62F6217710581054C
:1035F0009105330B30FB66F0AA27660F771F881FF3
:10360000991FAA1FA21710F0A21B63953850A9F7A3
:10361000A05DAA3308F0A95DA19336F7B111B1936B
:103620001082CA0123C04532510518F4423008F017
:1036300004C0FB011082CB010895BB27FB01552775
:10364000AA27880F991FAA1FA41710F0A41B8395FF
:103650005051B9F7A05DAA3308F0A95DA193009776
:1036600079F7B111B1931192CB0100C0DC01FC01DB
:10367000672F71917723E1F7329704C07C916D93A6
:1036800070836291AE17BF07C8F30895F894FFCF17
:10369000D002766F6964207365747570282900768E
:1036A0006F6964206C6F6F7028290000000000852E
:1036B00002951194119311FEFF0000971100000074
:1036C000005B0E9E013A1153115211C4025111694F
:1036D0006E74204843493A3A617761697428756984
:1036E0006E7431365F742C20766F69642A2C2075D5
:1036F000696E74385F742900000000002D112011DC
:103700006310BD11A211830F5E0F390F1311061143
:10371000F910E90EC70EA20EEC10DF108C1082100B
:10372000DE100000000058104B103210BD11A21125
:10373000830F5E0F390F1710F70FDF0FE90EC70E5B
:10374000A20ECD0FC70F0000000092117711661175
:103750005511000000009A117711661155110000F3
:103760000000C40FC10FA50FBD11A21154034B03DC
:10377000390F360F330F3003E90E2803A20E9F0EC8
:103780009E0EC402C402C402C402C402C402C40223
:10379000C402C402C402C402C402C402C4020000BF
:1037A0000000C40FC10FA50FBD11A211830F5E0F42
:1037B000390F360F330F300FE90EC70EA20E9F0ED2
:1037C0009E0E000000005E077503A50FBD11A2113B
:1037D00054034B03390F360F330F3003E90EAE0994
:1037E000A20E72039E0E6F0327082D08D309280B23
:1037F0006C03690321086603A109630360033E0AA1
:103800005D03000000002D044D41433D0049503D43
:10381000005355424E45543D00444E533D00436FC6
:103820007361434333303030696E666F2E696E6F5B
:02383000000096
:00000001FF
