:100000000FC033C032C031C030C02FC02EC02DC091
:100010002CC02BC02AC029C089C027C026C02601F9
:1000200011241FBECFE5D2E0DEBFCDBF10E0A0E6B9
:10003000B0E0EAE5F3E002C005900D92A236B10708
:10004000D9F720E0A2E6B0E001C01D92A037B207C8
:10005000E1F710E0C0E2D0E003C02297FE0177D1C3
:10006000CE31D107D1F7A2D076C1CACFA4E0B0E09B
:10007000EBE3F0E03CC120E130E00090670002C01B
:10008000220F331F0A94E2F7BFB6F894C0906200C3
:10009000D0906300E0906400F0906500A90156954F
:1000A0004795640F751F811D911D40E050E0F4D00D
:1000B0002C0D3D1D4E1D5F1DBFBE29833A834B8312
:1000C0005C831DD0BFB6F89480916200909163006C
:1000D000A0916400B091650029813A814B815C81D7
:1000E00079018A01E81AF90A0A0B1B0B1E141F0476
:1000F000100611060CF3BFBE2496E9E014C185B7C3
:10010000877E85BF85B7806285BF889585B78F7DDF
:1001100085BF089520ED37E061507109810991098B
:1001200020F0F9013197F1F7F7CF08951F920F9260
:100130000FB60F9211242F933F934F935F936F93BA
:100140007F938F939F93AF93BF93EF93FF93809190
:10015000620090916300A0916400B09165000196E7
:10016000A11DB11D8093620090936300A093640071
:10017000B0936500E0916A00F0916B00309729F030
:1001800080916800909169000995FF91EF91BF916E
:10019000AF919F918F917F916F915F914F913F911F
:1001A0002F910F900FBE0F901F90189586B186600B
:1001B00086B980E888B978949FB7F894A89584B7F1
:1001C000877F84BF88E181BD80E481BD9FBF10929D
:1001D0006B0010926A0010926900109268001092F1
:1001E000670081E08093660086E390E09093610071
:1001F000809360009FB7F894E0916C00F0916D00DF
:10020000828120916E00822B82839FBFE0916000EB
:10021000F091610060E170E080E090E009959FB7A7
:10022000F894E0916C00F0916D00228180916E0055
:100230008095822382839FBFE0916000F0916100EE
:1002400060E072E080E090E00995D4CFCF93DF9337
:1002500086E390E090936D0080936C0080E1809342
:100260006E0084E080936F009FB7F894ECE6F0E0B6
:10027000C081D1818981AEE6B0E02C91822B898347
:100280000190F081E02D22818C91809582238283E0
:100290009FBFDF91CF910895A1E21A2EAA1BBB1B2D
:1002A000FD010DC0AA1FBB1FEE1FFF1FA217B30742
:1002B000E407F50720F0A21BB30BE40BF50B661F58
:1002C000771F881F991F1A9469F76095709580951C
:1002D00090959B01AC01BD01CF0108952F923F92F3
:1002E0004F925F926F927F928F929F92AF92BF9246
:1002F000CF92DF92EF92FF920F931F93CF93DF93F2
:10030000CDB7DEB7CA1BDB0B0FB6F894DEBF0FBE4E
:10031000CDBF09942A88398848885F846E847D849B
:100320008C849B84AA84B984C884DF80EE80FD809D
:100330000C811B81AA81B981CE0FD11D0FB6F89413
:10034000DEBF0FBECDBFED010895EE0FFF1F05907C
:0A035000F491E02D0994F894FFCF1A
:02035A008A0017
:00000001FF
